{
  "_format": "hh-sol-artifact-1",
  "contractName": "LotteryWinnerSelector",
  "sourceName": "contracts/RandomNumberLottery.sol",
  "abi": [
    {
      "inputs": [
        {
          "internalType": "address",
          "name": "_vrfCoordinator",
          "type": "address"
        },
        {
          "internalType": "address",
          "name": "_link",
          "type": "address"
        },
        {
          "internalType": "address",
          "name": "_fatheraddress",
          "type": "address"
        }
      ],
      "stateMutability": "nonpayable",
      "type": "constructor"
    },
    {
      "inputs": [
        {
          "internalType": "bytes32",
          "name": "_keyHash",
          "type": "bytes32"
        },
        {
          "internalType": "uint256",
          "name": "_fee",
          "type": "uint256"
        },
        {
          "internalType": "uint256",
          "name": "_seed",
          "type": "uint256"
        }
      ],
      "name": "loteryRequestRandomness",
      "outputs": [],
      "stateMutability": "nonpayable",
      "type": "function"
    },
    {
      "inputs": [
        {
          "internalType": "bytes32",
          "name": "requestId",
          "type": "bytes32"
        },
        {
          "internalType": "uint256",
          "name": "randomness",
          "type": "uint256"
        }
      ],
      "name": "rawFulfillRandomness",
      "outputs": [],
      "stateMutability": "nonpayable",
      "type": "function"
    }
  ],
  "bytecode": "0x60e060405234801561001057600080fd5b5060405161059938038061059983398101604081905261002f91610072565b6001600160601b0319606093841b811660a05291831b821660805290911b1660c0526100b4565b80516001600160a01b038116811461006d57600080fd5b919050565b600080600060608486031215610086578283fd5b61008f84610056565b925061009d60208501610056565b91506100ab60408501610056565b90509250925092565b60805160601c60a05160601c60c05160601c6104a16100f86000396000818160f90152610179015260008181606e0152610214015260006101e501526104a16000f3fe608060405234801561001057600080fd5b50600436106100365760003560e01c806394985ddd1461003b578063d42eb4b814610050575b600080fd5b61004e610049366004610391565b610063565b005b61004e61005e3660046103b2565b6100ee565b336001600160a01b037f000000000000000000000000000000000000000000000000000000000000000016146100e05760405162461bcd60e51b815260206004820152601f60248201527f4f6e6c7920565246436f6f7264696e61746f722063616e2066756c66696c6c0060448201526064015b60405180910390fd5b6100ea8282610163565b5050565b336001600160a01b037f000000000000000000000000000000000000000000000000000000000000000016146101525760405162461bcd60e51b81526020600482015260096024820152683337b93134b23232b760b91b60448201526064016100d7565b61015d8383836101e1565b50505050565b6040516382db4f1960e01b8152600481018290527f00000000000000000000000000000000000000000000000000000000000000006001600160a01b0316906382db4f1990602401600060405180830381600087803b1580156101c557600080fd5b505af11580156101d9573d6000803e3d6000fd5b505050505050565b60007f00000000000000000000000000000000000000000000000000000000000000006001600160a01b0316634000aea07f0000000000000000000000000000000000000000000000000000000000000000858786604051602001610250929190918252602082015260400190565b6040516020818303038152906040526040518463ffffffff1660e01b815260040161027d939291906103dd565b602060405180830381600087803b15801561029757600080fd5b505af11580156102ab573d6000803e3d6000fd5b505050506040513d601f19601f820116820180604052508101906102cf919061036a565b5060008481526020818152604080832054815180840189905280830187905230606082015260808082018390528351808303909101815260a090910190925281519183019190912087845292909152610329906001610447565b600086815260208181526040918290209290925580518083018890528082018490528151808203830181526060909101909152805191012095945050505050565b60006020828403121561037b578081fd5b8151801515811461038a578182fd5b9392505050565b600080604083850312156103a3578081fd5b50508035926020909101359150565b6000806000606084860312156103c6578081fd5b505081359360208301359350604090920135919050565b60018060a01b0384168152600060208481840152606060408401528351806060850152825b8181101561041e57858101830151858201608001528201610402565b8181111561042f5783608083870101525b50601f01601f19169290920160800195945050505050565b6000821982111561046657634e487b7160e01b81526011600452602481fd5b50019056fea26469706673582212205827c93142b3d6cbd3ce22ac6420196997363b3f7430bf8bc218c407281969a564736f6c63430008040033",
  "linkReferences": {},
  "deployedLinkReferences": {}
}