{
  "_format": "hh-sol-artifact-1",
  "contractName": "LotterySolo",
  "sourceName": "contracts/LotterySolo.sol",
  "abi": [
    {
      "anonymous": false,
      "inputs": [
        {
          "indexed": false,
          "internalType": "uint256",
          "name": "lotteryId",
          "type": "uint256"
        },
        {
          "indexed": false,
          "internalType": "address",
          "name": "particpantAddress",
          "type": "address"
        },
        {
          "indexed": false,
          "internalType": "uint256",
          "name": "ticketBuyed",
          "type": "uint256"
        },
        {
          "indexed": false,
          "internalType": "uint256",
          "name": "totalAmmount",
          "type": "uint256"
        }
      ],
      "name": "AddressEnterLottery",
      "type": "event"
    },
    {
      "anonymous": false,
      "inputs": [
        {
          "indexed": false,
          "internalType": "uint256",
          "name": "lotteryId",
          "type": "uint256"
        },
        {
          "indexed": false,
          "internalType": "address",
          "name": "particpantAddress",
          "type": "address"
        },
        {
          "indexed": false,
          "internalType": "uint256",
          "name": "ammount",
          "type": "uint256"
        }
      ],
      "name": "AddressWithdrawFrom",
      "type": "event"
    },
    {
      "anonymous": false,
      "inputs": [
        {
          "indexed": true,
          "internalType": "address",
          "name": "previousOwner",
          "type": "address"
        },
        {
          "indexed": true,
          "internalType": "address",
          "name": "newOwner",
          "type": "address"
        }
      ],
      "name": "OwnershipTransferred",
      "type": "event"
    },
    {
      "anonymous": false,
      "inputs": [
        {
          "indexed": false,
          "internalType": "uint256",
          "name": "lotteryId",
          "type": "uint256"
        },
        {
          "indexed": false,
          "internalType": "address",
          "name": "winner",
          "type": "address"
        }
      ],
      "name": "WinnerPicked",
      "type": "event"
    },
    {
      "inputs": [],
      "name": "FundsOfOwner",
      "outputs": [
        {
          "internalType": "uint256",
          "name": "",
          "type": "uint256"
        }
      ],
      "stateMutability": "view",
      "type": "function"
    },
    {
      "inputs": [
        {
          "internalType": "uint256",
          "name": "",
          "type": "uint256"
        }
      ],
      "name": "LotteriesHistory",
      "outputs": [
        {
          "internalType": "uint256",
          "name": "poolOfMony",
          "type": "uint256"
        },
        {
          "internalType": "enum LotterySolo.LotteryStatus",
          "name": "status",
          "type": "uint8"
        },
        {
          "internalType": "address",
          "name": "winner",
          "type": "address"
        },
        {
          "internalType": "uint256",
          "name": "statusChangeTime",
          "type": "uint256"
        }
      ],
      "stateMutability": "view",
      "type": "function"
    },
    {
      "inputs": [
        {
          "internalType": "uint256",
          "name": "_lotteryId",
          "type": "uint256"
        }
      ],
      "name": "OwnerWithdraw",
      "outputs": [],
      "stateMutability": "nonpayable",
      "type": "function"
    },
    {
      "inputs": [],
      "name": "TickedAmmount",
      "outputs": [
        {
          "internalType": "uint256",
          "name": "",
          "type": "uint256"
        }
      ],
      "stateMutability": "view",
      "type": "function"
    },
    {
      "inputs": [
        {
          "internalType": "uint256",
          "name": "_lotteryId",
          "type": "uint256"
        }
      ],
      "name": "WithdrawPending",
      "outputs": [],
      "stateMutability": "nonpayable",
      "type": "function"
    },
    {
      "inputs": [],
      "name": "addressOfRandomPicker",
      "outputs": [
        {
          "internalType": "address",
          "name": "",
          "type": "address"
        }
      ],
      "stateMutability": "view",
      "type": "function"
    },
    {
      "inputs": [],
      "name": "currentLottery",
      "outputs": [
        {
          "internalType": "uint256",
          "name": "",
          "type": "uint256"
        }
      ],
      "stateMutability": "view",
      "type": "function"
    },
    {
      "inputs": [
        {
          "internalType": "enum LotterySolo.paymentMethod",
          "name": "_paymentMethod",
          "type": "uint8"
        },
        {
          "internalType": "uint256",
          "name": "_tokenAmount",
          "type": "uint256"
        }
      ],
      "name": "enterLottery",
      "outputs": [],
      "stateMutability": "payable",
      "type": "function"
    },
    {
      "inputs": [
        {
          "internalType": "address",
          "name": "_vrfCoordinator",
          "type": "address"
        },
        {
          "internalType": "address",
          "name": "linkTokenAddress",
          "type": "address"
        },
        {
          "internalType": "uint256",
          "name": "_tickedValue",
          "type": "uint256"
        },
        {
          "internalType": "bytes32",
          "name": "_chainLinkHash",
          "type": "bytes32"
        },
        {
          "internalType": "uint256",
          "name": "_chainLinkFee",
          "type": "uint256"
        }
      ],
      "name": "initialize",
      "outputs": [],
      "stateMutability": "nonpayable",
      "type": "function"
    },
    {
      "inputs": [],
      "name": "lotteryToWaitingPhase",
      "outputs": [],
      "stateMutability": "nonpayable",
      "type": "function"
    },
    {
      "inputs": [],
      "name": "owner",
      "outputs": [
        {
          "internalType": "address",
          "name": "",
          "type": "address"
        }
      ],
      "stateMutability": "view",
      "type": "function"
    },
    {
      "inputs": [
        {
          "internalType": "uint256",
          "name": "_randomValue",
          "type": "uint256"
        }
      ],
      "name": "pickTheWinner",
      "outputs": [],
      "stateMutability": "nonpayable",
      "type": "function"
    },
    {
      "inputs": [],
      "name": "renounceOwnership",
      "outputs": [],
      "stateMutability": "nonpayable",
      "type": "function"
    },
    {
      "inputs": [],
      "name": "requestWinnerToBePicked",
      "outputs": [],
      "stateMutability": "nonpayable",
      "type": "function"
    },
    {
      "inputs": [
        {
          "internalType": "uint256",
          "name": "_lotteriId",
          "type": "uint256"
        },
        {
          "internalType": "address",
          "name": "addressOf",
          "type": "address"
        }
      ],
      "name": "seePending",
      "outputs": [
        {
          "internalType": "uint256",
          "name": "",
          "type": "uint256"
        }
      ],
      "stateMutability": "view",
      "type": "function"
    },
    {
      "inputs": [
        {
          "internalType": "uint256",
          "name": "_ammount",
          "type": "uint256"
        }
      ],
      "name": "setTicketAmmount",
      "outputs": [],
      "stateMutability": "nonpayable",
      "type": "function"
    },
    {
      "inputs": [
        {
          "internalType": "address",
          "name": "newOwner",
          "type": "address"
        }
      ],
      "name": "transferOwnership",
      "outputs": [],
      "stateMutability": "nonpayable",
      "type": "function"
    }
  ],
  "bytecode": "0x608060405234801561001057600080fd5b5061196c806100206000396000f3fe6080604052600436106100fe5760003560e01c806382db4f1911610095578063a01acdd911610064578063a01acdd9146102d6578063a20809e6146102ec578063d16c51361461030c578063e3780c0f1461032c578063f2fde38b1461034c57600080fd5b806382db4f191461026f5780638650ecf11461028f5780638bc22e29146102a55780638da5cb5b146102b857600080fd5b8063654c1a0a116100d1578063654c1a0a146101ed5780636c4a67771461020d578063715018a61461022257806371c93bcb1461023757600080fd5b80631a0899c2146101035780632bd56b061461011a5780632e793854146101435780634fd60af6146101a6575b600080fd5b34801561010f57600080fd5b5061011861036c565b005b34801561012657600080fd5b5061013060655481565b6040519081526020015b60405180910390f35b34801561014f57600080fd5b5061019661015e366004611195565b606660205260009081526040902060028101546003820154600490920154909160ff8116916101009091046001600160a01b03169084565b60405161013a94939291906112b6565b3480156101b257600080fd5b506101306101c13660046111ad565b60008281526066602090815260408083206001600160a01b038516845260010190915290205492915050565b3480156101f957600080fd5b5061011861020836600461111b565b6104bb565b34801561021957600080fd5b5061011861060f565b34801561022e57600080fd5b5061011861077c565b34801561024357600080fd5b50606854610257906001600160a01b031681565b6040516001600160a01b03909116815260200161013a565b34801561027b57600080fd5b5061011861028a366004611195565b6107f0565b34801561029b57600080fd5b50610130606b5481565b6101186102b3366004611167565b6109cb565b3480156102c457600080fd5b506033546001600160a01b0316610257565b3480156102e257600080fd5b5061013060675481565b3480156102f857600080fd5b50610118610307366004611195565b610c58565b34801561031857600080fd5b50610118610327366004611195565b610c85565b34801561033857600080fd5b50610118610347366004611195565b610cd3565b34801561035857600080fd5b506101186103673660046110fa565b610db7565b606554600160008281526066602052604090206003015460ff1660048111156103a557634e487b7160e01b600052602160045260246000fd5b146104025760405162461bcd60e51b815260206004820152602260248201527f746865206c6f7474657279206861736e74206f66666369616c79207374617274604482015261195960f21b60648201526084015b60405180910390fd5b6000818152606660205260409020600401544290610423906202a3006112ff565b11156104815760405162461bcd60e51b815260206004820152602760248201527f636f756c64206f6e6c79207761697420322064617973206265666f726520737460448201526661727474696e6760c81b60648201526084016103f9565b600081815260666020526040812060038101805460ff191660021790554260049091015560658054916104b383611342565b919050555050565b600054610100900460ff16806104d4575060005460ff16155b6104f05760405162461bcd60e51b81526004016103f990611233565b600054610100900460ff16158015610512576000805461ffff19166101011790555b61051a610ea2565b600086863060405161052b9061109f565b6001600160a01b03938416815291831660208301529091166040820152606001604051809103906000f080158015610567573d6000803e3d6000fd5b50606880546001600160a01b0319166001600160a01b039290921691909117905550606784905560006065819055805260666020527f6f48904484b35701cf1f41ad9068b394adf7e2f8a59d2309a04d10a155eaa72e805460ff19166001179055427f6f48904484b35701cf1f41ad9068b394adf7e2f8a59d2309a04d10a155eaa72f556069839055606a8290558015610607576000805461ff00191690555b505050505050565b60006001606554610620919061132b565b9050600260008281526066602052604090206003015460ff16600481111561065857634e487b7160e01b600052602160045260246000fd5b1480156106835750600081815260666020526040902060040154429061068190620697806112ff565b105b6106eb5760405162461bcd60e51b815260206004820152603360248201527f74686973206c6f747465727920646f65736e742066697420746865206372697460448201527232b934b0903a37903834b1b5903bb4b73732b960691b60648201526084016103f9565b606854606954606a54604051631a85d69760e31b815260048101929092526024820152604481018390526001600160a01b039091169063d42eb4b890606401600060405180830381600087803b15801561074457600080fd5b505af1158015610758573d6000803e3d6000fd5b5050506000918252506066602052604090206003908101805460ff19169091179055565b6033546001600160a01b031633146107a65760405162461bcd60e51b81526004016103f990611281565b6033546040516000916001600160a01b0316907f8be0079c531659141344cd1fd0a4f28419497f9722a3daafe3b4186f6b6457e0908390a3603380546001600160a01b0319169055565b6068546001600160a01b0316331461085b5760405162461bcd60e51b815260206004820152602860248201527f796f7520617265206e6f7420616c6c6f77656420746f207069636b207468652060448201526718dbdb9d1c9858dd60c21b60648201526084016103f9565b6000600160655461086c919061132b565b60008181526066602052604081205491925090610889908461135d565b90506108bf6040518060400160405280601281526020017174686520706f736974696f6e20697320257360701b81525082610f1d565b60008281526066602052604090208054829081106108ed57634e487b7160e01b600052603260045260246000fd5b60009182526020808320919091015484835260669091526040808320600380820180546001600160a81b03191660ff196101006001600160a01b0390971696909602861617600490811790915560658054875284872090920180549095166001179094555484529083204292019190915583825261096a916110ac565b6000828152606660209081526040918290206003015482518581526101009091046001600160a01b0316918101919091527f7286599a58b2822d6e330944038c6d3424134069b04156404050720b942d87ee910160405180910390a1505050565b6067546109d8908261135d565b15610a255760405162461bcd60e51b815260206004820152601e60248201527f7469636b65747320646f65736e742061636365707420646563696d616c73000060448201526064016103f9565b60655415801590610a69575080606660006001606554610a45919061132b565b81526020808201929092526040908101600090812033825260010190925290205410155b8015610abd57506004606660006001606554610a85919061132b565b815260208101919091526040016000206003015460ff166004811115610abb57634e487b7160e01b600052602160045260246000fd5b145b15610b245780606660006001606554610ad6919061132b565b81526020019081526020016000206001016000336001600160a01b03166001600160a01b031681526020019081526020016000206000828254610b19919061132b565b90915550610b499050565b6000826003811115610b4657634e487b7160e01b600052602160045260246000fd5b50505b600060675482610b599190611317565b6065546000908152606660209081526040808320338452600101909152812080549293508492909190610b8d9084906112ff565b909155505060655460009081526066602052604081206002018054849290610bb69084906112ff565b9091555050606554604080519182523360208301528101829052606081018390527f7b41b8f7a1cd70f6929c0c4f242c30064343843613256cb2001e0bb810204da39060800160405180910390a160005b81811015610c525760655460009081526066602090815260408220805460018101825590835291200180546001600160a01b0319163317905580610c4a81611342565b915050610c07565b50505050565b6033546001600160a01b03163314610c825760405162461bcd60e51b81526004016103f990611281565b50565b6033546001600160a01b03163314610caf5760405162461bcd60e51b81526004016103f990611281565b60655460009081526066602052604090206002015415610cce57600080fd5b606755565b600460008281526066602052604090206003015460ff166004811115610d0957634e487b7160e01b600052602160045260246000fd5b14610d565760405162461bcd60e51b815260206004820152601860248201527f74686973206c6f7474657279206861736e7420656e646564000000000000000060448201526064016103f9565b600081815260666020908152604080832033808552600190910183528184208490558151858152928301528101919091527fb939406ab44f38c7dc45e00d3fd3441787d5f020ec9e1c51074b9a91d3bebc129060600160405180910390a150565b6033546001600160a01b03163314610de15760405162461bcd60e51b81526004016103f990611281565b6001600160a01b038116610e465760405162461bcd60e51b815260206004820152602660248201527f4f776e61626c653a206e6577206f776e657220697320746865207a65726f206160448201526564647265737360d01b60648201526084016103f9565b6033546040516001600160a01b038084169216907f8be0079c531659141344cd1fd0a4f28419497f9722a3daafe3b4186f6b6457e090600090a3603380546001600160a01b0319166001600160a01b0392909216919091179055565b600054610100900460ff1680610ebb575060005460ff16155b610ed75760405162461bcd60e51b81526004016103f990611233565b600054610100900460ff16158015610ef9576000805461ffff19166101011790555b610f01610f66565b610f09610fd0565b8015610c82576000805461ff001916905550565b610f628282604051602401610f339291906111d8565b60408051601f198184030181529190526020810180516001600160e01b03166309710a9d60e41b17905261107e565b5050565b600054610100900460ff1680610f7f575060005460ff16155b610f9b5760405162461bcd60e51b81526004016103f990611233565b600054610100900460ff16158015610f09576000805461ffff19166101011790558015610c82576000805461ff001916905550565b600054610100900460ff1680610fe9575060005460ff16155b6110055760405162461bcd60e51b81526004016103f990611233565b600054610100900460ff16158015611027576000805461ffff19166101011790555b603380546001600160a01b0319163390811790915560405181906000907f8be0079c531659141344cd1fd0a4f28419497f9722a3daafe3b4186f6b6457e0908290a3508015610c82576000805461ff001916905550565b80516a636f6e736f6c652e6c6f67602083016000808483855afa5050505050565b6105998061139e83390190565b5080546000825590600052602060002090810190610c8291905b808211156110da57600081556001016110c6565b5090565b80356001600160a01b03811681146110f557600080fd5b919050565b60006020828403121561110b578081fd5b611114826110de565b9392505050565b600080600080600060a08688031215611132578081fd5b61113b866110de565b9450611149602087016110de565b94979496505050506040830135926060810135926080909101359150565b60008060408385031215611179578182fd5b823560048110611187578283fd5b946020939093013593505050565b6000602082840312156111a6578081fd5b5035919050565b600080604083850312156111bf578182fd5b823591506111cf602084016110de565b90509250929050565b6040815260008351806040840152815b8181101561120557602081870181015160608684010152016111e8565b818111156112165782606083860101525b50602083019390935250601f91909101601f191601606001919050565b6020808252602e908201527f496e697469616c697a61626c653a20636f6e747261637420697320616c72656160408201526d191e481a5b9a5d1a585b1a5e995960921b606082015260800190565b6020808252818101527f4f776e61626c653a2063616c6c6572206973206e6f7420746865206f776e6572604082015260600190565b84815260808101600585106112db57634e487b7160e01b600052602160045260246000fd5b60208201949094526001600160a01b03929092166040830152606090910152919050565b6000821982111561131257611312611371565b500190565b60008261132657611326611387565b500490565b60008282101561133d5761133d611371565b500390565b600060001982141561135657611356611371565b5060010190565b60008261136c5761136c611387565b500690565b634e487b7160e01b600052601160045260246000fd5b634e487b7160e01b600052601260045260246000fdfe60e060405234801561001057600080fd5b5060405161059938038061059983398101604081905261002f91610072565b6001600160601b0319606093841b811660a05291831b821660805290911b1660c0526100b4565b80516001600160a01b038116811461006d57600080fd5b919050565b600080600060608486031215610086578283fd5b61008f84610056565b925061009d60208501610056565b91506100ab60408501610056565b90509250925092565b60805160601c60a05160601c60c05160601c6104a16100f86000396000818160f90152610179015260008181606e0152610214015260006101e501526104a16000f3fe608060405234801561001057600080fd5b50600436106100365760003560e01c806394985ddd1461003b578063d42eb4b814610050575b600080fd5b61004e610049366004610391565b610063565b005b61004e61005e3660046103b2565b6100ee565b336001600160a01b037f000000000000000000000000000000000000000000000000000000000000000016146100e05760405162461bcd60e51b815260206004820152601f60248201527f4f6e6c7920565246436f6f7264696e61746f722063616e2066756c66696c6c0060448201526064015b60405180910390fd5b6100ea8282610163565b5050565b336001600160a01b037f000000000000000000000000000000000000000000000000000000000000000016146101525760405162461bcd60e51b81526020600482015260096024820152683337b93134b23232b760b91b60448201526064016100d7565b61015d8383836101e1565b50505050565b6040516382db4f1960e01b8152600481018290527f00000000000000000000000000000000000000000000000000000000000000006001600160a01b0316906382db4f1990602401600060405180830381600087803b1580156101c557600080fd5b505af11580156101d9573d6000803e3d6000fd5b505050505050565b60007f00000000000000000000000000000000000000000000000000000000000000006001600160a01b0316634000aea07f0000000000000000000000000000000000000000000000000000000000000000858786604051602001610250929190918252602082015260400190565b6040516020818303038152906040526040518463ffffffff1660e01b815260040161027d939291906103dd565b602060405180830381600087803b15801561029757600080fd5b505af11580156102ab573d6000803e3d6000fd5b505050506040513d601f19601f820116820180604052508101906102cf919061036a565b5060008481526020818152604080832054815180840189905280830187905230606082015260808082018390528351808303909101815260a090910190925281519183019190912087845292909152610329906001610447565b600086815260208181526040918290209290925580518083018890528082018490528151808203830181526060909101909152805191012095945050505050565b60006020828403121561037b578081fd5b8151801515811461038a578182fd5b9392505050565b600080604083850312156103a3578081fd5b50508035926020909101359150565b6000806000606084860312156103c6578081fd5b505081359360208301359350604090920135919050565b60018060a01b0384168152600060208481840152606060408401528351806060850152825b8181101561041e57858101830151858201608001528201610402565b8181111561042f5783608083870101525b50601f01601f19169290920160800195945050505050565b6000821982111561046657634e487b7160e01b81526011600452602481fd5b50019056fea26469706673582212205827c93142b3d6cbd3ce22ac6420196997363b3f7430bf8bc218c407281969a564736f6c63430008040033a264697066735822122077a8db99c0728ccfbe0ea65e12cec7f7b869d0872e2718b0b7e53a7f97cff0c864736f6c63430008040033",
  "linkReferences": {},
  "deployedLinkReferences": {}
}