{
  "_format": "hh-sol-artifact-1",
  "contractName": "Lottery",
  "sourceName": "contracts/Lottery.sol",
  "abi": [
    {
      "anonymous": false,
      "inputs": [
        {
          "indexed": false,
          "internalType": "uint256",
          "name": "lotteryId",
          "type": "uint256"
        },
        {
          "indexed": false,
          "internalType": "address",
          "name": "particpantAddress",
          "type": "address"
        },
        {
          "indexed": false,
          "internalType": "uint256",
          "name": "ticketBuyed",
          "type": "uint256"
        },
        {
          "indexed": false,
          "internalType": "uint256",
          "name": "totalAmmount",
          "type": "uint256"
        }
      ],
      "name": "AddressEnterLottery",
      "type": "event"
    },
    {
      "anonymous": false,
      "inputs": [
        {
          "indexed": false,
          "internalType": "uint256",
          "name": "lotteryId",
          "type": "uint256"
        },
        {
          "indexed": false,
          "internalType": "address",
          "name": "particpantAddress",
          "type": "address"
        },
        {
          "indexed": false,
          "internalType": "uint256",
          "name": "ammount",
          "type": "uint256"
        }
      ],
      "name": "AddressWithdrawFrom",
      "type": "event"
    },
    {
      "anonymous": false,
      "inputs": [
        {
          "indexed": true,
          "internalType": "address",
          "name": "previousOwner",
          "type": "address"
        },
        {
          "indexed": true,
          "internalType": "address",
          "name": "newOwner",
          "type": "address"
        }
      ],
      "name": "OwnershipTransferred",
      "type": "event"
    },
    {
      "anonymous": false,
      "inputs": [
        {
          "indexed": true,
          "internalType": "address",
          "name": "_from",
          "type": "address"
        },
        {
          "indexed": true,
          "internalType": "address",
          "name": "_token",
          "type": "address"
        },
        {
          "indexed": true,
          "internalType": "uint256",
          "name": "_amount",
          "type": "uint256"
        }
      ],
      "name": "Receive",
      "type": "event"
    },
    {
      "anonymous": false,
      "inputs": [
        {
          "indexed": false,
          "internalType": "uint256",
          "name": "lotteryId",
          "type": "uint256"
        },
        {
          "indexed": false,
          "internalType": "address",
          "name": "winner",
          "type": "address"
        }
      ],
      "name": "WinnerPicked",
      "type": "event"
    },
    {
      "inputs": [],
      "name": "FundsOfOwner",
      "outputs": [
        {
          "internalType": "uint256",
          "name": "",
          "type": "uint256"
        }
      ],
      "stateMutability": "view",
      "type": "function"
    },
    {
      "inputs": [
        {
          "internalType": "uint256",
          "name": "",
          "type": "uint256"
        }
      ],
      "name": "LotteriesHistory",
      "outputs": [
        {
          "internalType": "uint256",
          "name": "poolOfMony",
          "type": "uint256"
        },
        {
          "internalType": "enum Lottery.LotteryStatus",
          "name": "status",
          "type": "uint8"
        },
        {
          "internalType": "address",
          "name": "winner",
          "type": "address"
        },
        {
          "internalType": "uint256",
          "name": "statusChangeTime",
          "type": "uint256"
        }
      ],
      "stateMutability": "view",
      "type": "function"
    },
    {
      "inputs": [],
      "name": "OwnerWithdraw",
      "outputs": [],
      "stateMutability": "nonpayable",
      "type": "function"
    },
    {
      "inputs": [],
      "name": "TickedAmmount",
      "outputs": [
        {
          "internalType": "uint256",
          "name": "",
          "type": "uint256"
        }
      ],
      "stateMutability": "view",
      "type": "function"
    },
    {
      "inputs": [
        {
          "internalType": "uint256",
          "name": "_lotteryId",
          "type": "uint256"
        }
      ],
      "name": "WithdrawPending",
      "outputs": [],
      "stateMutability": "nonpayable",
      "type": "function"
    },
    {
      "inputs": [],
      "name": "addressOfRandomPicker",
      "outputs": [
        {
          "internalType": "address",
          "name": "",
          "type": "address"
        }
      ],
      "stateMutability": "view",
      "type": "function"
    },
    {
      "inputs": [],
      "name": "currentLottery",
      "outputs": [
        {
          "internalType": "uint256",
          "name": "",
          "type": "uint256"
        }
      ],
      "stateMutability": "view",
      "type": "function"
    },
    {
      "inputs": [
        {
          "internalType": "enum Lottery.paymentMethod",
          "name": "_paymentMethod",
          "type": "uint8"
        },
        {
          "internalType": "uint256",
          "name": "_tokenAmountIn",
          "type": "uint256"
        },
        {
          "internalType": "uint256",
          "name": "_tokenAmountOut",
          "type": "uint256"
        }
      ],
      "name": "enterLottery",
      "outputs": [],
      "stateMutability": "payable",
      "type": "function"
    },
    {
      "inputs": [
        {
          "internalType": "address",
          "name": "_uniswapRouterAddress",
          "type": "address"
        },
        {
          "internalType": "address",
          "name": "_daiContractAddress",
          "type": "address"
        },
        {
          "internalType": "address",
          "name": "_poolContractAddress",
          "type": "address"
        }
      ],
      "name": "inicializate",
      "outputs": [],
      "stateMutability": "nonpayable",
      "type": "function"
    },
    {
      "inputs": [
        {
          "internalType": "uint256",
          "name": "_tickedValue",
          "type": "uint256"
        },
        {
          "internalType": "address",
          "name": "_vrfCoordinator",
          "type": "address"
        },
        {
          "internalType": "address",
          "name": "linkTokenAddress",
          "type": "address"
        },
        {
          "internalType": "bytes32",
          "name": "_chainLinkHash",
          "type": "bytes32"
        },
        {
          "internalType": "uint256",
          "name": "_chainLinkFee",
          "type": "uint256"
        },
        {
          "internalType": "address",
          "name": "addressDAI",
          "type": "address"
        },
        {
          "internalType": "address",
          "name": "addressUSDT",
          "type": "address"
        },
        {
          "internalType": "address",
          "name": "addressUSDC",
          "type": "address"
        },
        {
          "internalType": "address",
          "name": "poolCurve",
          "type": "address"
        },
        {
          "internalType": "address",
          "name": "_uniswapRouterAddress",
          "type": "address"
        },
        {
          "internalType": "address",
          "name": "_aavepoolAddress",
          "type": "address"
        }
      ],
      "name": "initialize",
      "outputs": [],
      "stateMutability": "nonpayable",
      "type": "function"
    },
    {
      "inputs": [],
      "name": "lotteryToWaitingPhase",
      "outputs": [],
      "stateMutability": "nonpayable",
      "type": "function"
    },
    {
      "inputs": [],
      "name": "owner",
      "outputs": [
        {
          "internalType": "address",
          "name": "",
          "type": "address"
        }
      ],
      "stateMutability": "view",
      "type": "function"
    },
    {
      "inputs": [
        {
          "internalType": "uint256",
          "name": "_randomValue",
          "type": "uint256"
        }
      ],
      "name": "pickTheWinner",
      "outputs": [],
      "stateMutability": "nonpayable",
      "type": "function"
    },
    {
      "inputs": [],
      "name": "prizeOflottery",
      "outputs": [
        {
          "internalType": "uint256",
          "name": "",
          "type": "uint256"
        }
      ],
      "stateMutability": "view",
      "type": "function"
    },
    {
      "inputs": [],
      "name": "renounceOwnership",
      "outputs": [],
      "stateMutability": "nonpayable",
      "type": "function"
    },
    {
      "inputs": [],
      "name": "requestWinnerToBePicked",
      "outputs": [],
      "stateMutability": "nonpayable",
      "type": "function"
    },
    {
      "inputs": [
        {
          "internalType": "uint256",
          "name": "_lotteriId",
          "type": "uint256"
        },
        {
          "internalType": "address",
          "name": "addressOf",
          "type": "address"
        }
      ],
      "name": "seePending",
      "outputs": [
        {
          "internalType": "uint256",
          "name": "",
          "type": "uint256"
        }
      ],
      "stateMutability": "view",
      "type": "function"
    },
    {
      "inputs": [
        {
          "internalType": "uint256",
          "name": "_ammount",
          "type": "uint256"
        }
      ],
      "name": "setTicketAmmount",
      "outputs": [],
      "stateMutability": "nonpayable",
      "type": "function"
    },
    {
      "inputs": [
        {
          "internalType": "int128",
          "name": "from",
          "type": "int128"
        },
        {
          "internalType": "int128",
          "name": "to",
          "type": "int128"
        },
        {
          "internalType": "uint256",
          "name": "fromAmount",
          "type": "uint256"
        }
      ],
      "name": "swappableAmount",
      "outputs": [
        {
          "internalType": "uint256",
          "name": "",
          "type": "uint256"
        }
      ],
      "stateMutability": "view",
      "type": "function"
    },
    {
      "inputs": [
        {
          "internalType": "address",
          "name": "newOwner",
          "type": "address"
        }
      ],
      "name": "transferOwnership",
      "outputs": [],
      "stateMutability": "nonpayable",
      "type": "function"
    },
    {
      "stateMutability": "payable",
      "type": "receive"
    }
  ],
  "bytecode": "0x608060405234801561001057600080fd5b50612f16806100206000396000f3fe6080604052600436106200013b5760003560e01c806382db4f1911620000ad578063e0d56503116200006c578063e0d5650314620003dd578063e3780c0f1462000402578063e571c3cb1462000427578063f2fde38b146200044c578063f66ffb9a146200047157600080fd5b806382db4f1914620003435780638650ecf114620003685780638da5cb5b1462000380578063a01acdd914620003a0578063d16c513614620003b857600080fd5b80634d5714a111620000fa5780634d5714a114620002685780634fd60af6146200028d5780636c4a677714620002d8578063715018a614620002f057806371c93bcb146200030857600080fd5b80631a0899c2146200018b5780632bd56b0614620001a55780632c84d56014620001d05780632e79385414620001e8578063428c3f8e146200025157600080fd5b366200018657604051349073eeeeeeeeeeeeeeeeeeeeeeeeeeeeeeeeeeeeeeee9033907ffd19781f43410d9594fd4c02dd1d98dbe99099cbd222d5851a6e183c468d33ca90600090a4005b600080fd5b3480156200019857600080fd5b50620001a362000489565b005b348015620001b257600080fd5b50620001bd606b5481565b6040519081526020015b60405180910390f35b348015620001dd57600080fd5b50620001a3620005fe565b348015620001f557600080fd5b506200023f62000207366004620024df565b606c60205260009081526040902060028101546003820154600490920154909160ff8116916101009091046001600160a01b03169084565b604051620001c79493929190620027b3565b620001a36200026236600462002466565b620006db565b3480156200027557600080fd5b50620001bd620002873660046200249f565b62000bca565b3480156200029a57600080fd5b50620001bd620002ac36600462002511565b6000828152606c602090815260408083206001600160a01b038516845260010190915290205492915050565b348015620002e557600080fd5b50620001a362000d3a565b348015620002fd57600080fd5b50620001a362000fd3565b3480156200031557600080fd5b50606e546200032a906001600160a01b031681565b6040516001600160a01b039091168152602001620001c7565b3480156200035057600080fd5b50620001a362000362366004620024df565b6200104a565b3480156200037557600080fd5b50620001bd60715481565b3480156200038d57600080fd5b506033546001600160a01b03166200032a565b348015620003ad57600080fd5b50620001bd606d5481565b348015620003c557600080fd5b50620001a3620003d7366004620024df565b62001271565b348015620003ea57600080fd5b50620001a3620003fc36600462002327565b620012c3565b3480156200040f57600080fd5b50620001a362000421366004620024df565b62001380565b3480156200043457600080fd5b50620001a36200044636600462002543565b62001554565b3480156200045957600080fd5b50620001a36200046b366004620022e9565b62001766565b3480156200047e57600080fd5b50620001bd60725481565b606b5460016000828152606c602052604090206003015460ff166004811115620004c357634e487b7160e01b600052602160045260246000fd5b14620005215760405162461bcd60e51b815260206004820152602260248201527f746865206c6f7474657279206861736e74206f66666369616c79207374617274604482015261195960f21b60648201526084015b60405180910390fd5b6000818152606c6020526040902060040154429062000544906202a300620027fd565b1115620005a45760405162461bcd60e51b815260206004820152602760248201527f636f756c64206f6e6c79207761697420322064617973206265666f726520737460448201526661727474696e6760c81b606482015260840162000518565b6000818152606c6020526040902060020154620005c2903062001856565b6000818152606c6020526040812060038101805460ff1916600217905542600490910155606b805491620005f6836200289a565b919050555050565b6033546001600160a01b031633146200062b5760405162461bcd60e51b8152600401620005189062002713565b60718054600091829055908052606660205260008051602062002ec1833981519152546040516323b872dd60e01b81526001600160a01b03909116906323b872dd90620006819030903390869060040162002668565b602060405180830381600087803b1580156200069c57600080fd5b505af1158015620006b1573d6000803e3d6000fd5b505050506040513d601f19601f82011682018060405250810190620006d7919062002444565b5050565b606d54620006ea9082620028b8565b15620007395760405162461bcd60e51b815260206004820152601e60248201527f7469636b65747320646f65736e742061636365707420646563696d616c730000604482015260640162000518565b606b541580159062000780575080606c60006001606b546200075c919062002851565b81526020808201929092526040908101600090812033825260010190925290205410155b8015620007d857506004606c60006001606b546200079f919062002851565b815260208101919091526040016000206003015460ff166004811115620007d657634e487b7160e01b600052602160045260246000fd5b145b15620008725780606c60006001606b54620007f4919062002851565b81526020019081526020016000206001016000336001600160a01b03166001600160a01b03168152602001908152602001600020600082825462000839919062002851565b909155505060405133903480156108fc02916000818181858888f193505050501580156200086b573d6000803e3d6000fd5b5062000ab0565b60008360038111156200089557634e487b7160e01b600052602160045260246000fd5b1415620008ad57620008a7816200196b565b62000ab0565b6001836003811115620008d057634e487b7160e01b600052602160045260246000fd5b1415620009a85760008052606660205260008051602062002ec1833981519152546040516323b872dd60e01b81526001600160a01b03909116906323b872dd90620009249033903090869060040162002668565b602060405180830381600087803b1580156200093f57600080fd5b505af115801562000954573d6000803e3d6000fd5b505050506040513d601f19601f820116820180604052508101906200097a919062002444565b5060405133903480156108fc02916000818181858888f193505050501580156200086b573d6000803e3d6000fd5b6003836003811115620009cb57634e487b7160e01b600052602160045260246000fd5b141562000a0f57620009e260026000848462001b97565b60405133903480156108fc02916000818181858888f193505050501580156200086b573d6000803e3d6000fd5b600283600381111562000a3257634e487b7160e01b600052602160045260246000fd5b141562000a4957620009e260016000848462001b97565b60405162461bcd60e51b815260206004820152603560248201527f4572726f7220796f7520686176656e742070726f70726f63696f6e6174652061604482015274081d985b1a59081c185e5b595b9d081b595d1a1bd9605a1b606482015260840162000518565b6000606d548262000ac2919062002818565b606b546000908152606c6020908152604080832033845260010190915281208054929350849290919062000af8908490620027fd565b9091555050606b546000908152606c60205260408120600201805484929062000b23908490620027fd565b9091555050606b54604080519182523360208301528101829052606081018390527f7b41b8f7a1cd70f6929c0c4f242c30064343843613256cb2001e0bb810204da39060800160405180910390a160005b8181101562000bc357606b546000908152606c602090815260408220805460018101825590835291200180546001600160a01b031916331790558062000bba816200289a565b91505062000b74565b5050505050565b600f83900b600090815260666020526040808220549051636eb1769f60e11b815233600482015230602482015283916001600160a01b03169063dd62ed3e9060440160206040518083038186803b15801562000c2557600080fd5b505afa15801562000c3a573d6000803e3d6000fd5b505050506040513d601f19601f8201168201806040525081019062000c609190620024f8565b101562000c9e5760405162461bcd60e51b815260206004820152600b60248201526a139bdd08185b1b1bddd95960aa1b604482015260640162000518565b606554604051635e0d443f60e01b8152600f86810b600483015285900b6024820152604481018490526001600160a01b0390911690635e0d443f9060640160206040518083038186803b15801562000cf557600080fd5b505afa15801562000d0a573d6000803e3d6000fd5b505050506040513d601f19601f8201168201806040525081019062000d309190620024f8565b90505b9392505050565b60006001606b5462000d4d919062002851565b905060026000828152606c602052604090206003015460ff16600481111562000d8657634e487b7160e01b600052602160045260246000fd5b14801562000db457506000818152606c6020526040902060040154429062000db29062069780620027fd565b105b62000e1e5760405162461bcd60e51b815260206004820152603360248201527f74686973206c6f747465727920646f65736e742066697420746865206372697460448201527232b934b0903a37903834b1b5903bb4b73732b960691b606482015260840162000518565b606e54606f54607054604051631a85d69760e31b815260048101929092526024820152604481018390526001600160a01b039091169063d42eb4b890606401600060405180830381600087803b15801562000e7857600080fd5b505af115801562000e8d573d6000803e3d6000fd5b5050506000828152606c602052604090206003908101805460ff191690911790555062000eba3062001d39565b6000818152606c6020908152604080832060020154838052606690925260008051602062002ec18339815191525490516370a0823160e01b81523060048201526001600160a01b03909116906370a082319060240160206040518083038186803b15801562000f2857600080fd5b505afa15801562000f3d573d6000803e3d6000fd5b505050506040513d601f19601f8201168201806040525081019062000f639190620024f8565b62000f6f919062002851565b9050606462000f808260056200282f565b62000f8c919062002818565b6071600082825462000f9f9190620027fd565b909155506064905062000fb48260056200282f565b62000fc0919062002818565b62000fcc908262002851565b6072555050565b6033546001600160a01b03163314620010005760405162461bcd60e51b8152600401620005189062002713565b6033546040516000916001600160a01b0316907f8be0079c531659141344cd1fd0a4f28419497f9722a3daafe3b4186f6b6457e0908390a3603380546001600160a01b0319169055565b606e546001600160a01b03163314620010b75760405162461bcd60e51b815260206004820152602860248201527f796f7520617265206e6f7420616c6c6f77656420746f207069636b207468652060448201526718dbdb9d1c9858dd60c21b606482015260840162000518565b60006001606b54620010ca919062002851565b6000818152606c602052604081205491925090620010e99084620028b8565b9050620011216040518060400160405280601281526020017174686520706f736974696f6e20697320257360701b8152508262001dce565b6000828152606c602052604081208054839081106200115057634e487b7160e01b600052603260045260246000fd5b600091825260208083209190910154858352606c82526040808420600381018054610100600160a81b0319166101006001600160a01b03909516948502179055607254838652600190910190935283208054919450919290620011b5908490620027fd565b90915550506000838152606c602052604080822060038082018054600460ff199182168117909255606b805487528587209093018054909116600117905590548452918320429201919091558482526200120f9162002288565b6000838152606c60209081526040918290206003015482518681526101009091046001600160a01b0316918101919091527f7286599a58b2822d6e330944038c6d3424134069b04156404050720b942d87ee910160405180910390a150505050565b6033546001600160a01b031633146200129e5760405162461bcd60e51b8152600401620005189062002713565b606b546000908152606c602052604090206002015415620012be57600080fd5b606d55565b600054610100900460ff1680620012dd575060005460ff16155b620012fc5760405162461bcd60e51b81526004016200051890620026c5565b600054610100900460ff161580156200131f576000805461ffff19166101011790555b606780546001600160a01b038087166001600160a01b031992831617909255606880548684169083161790556069805492851692821692909217909155606a80549091163317905580156200137a576000805461ff00191690555b50505050565b60046000828152606c602052604090206003015460ff166004811115620013b757634e487b7160e01b600052602160045260246000fd5b14620014065760405162461bcd60e51b815260206004820152601860248201527f74686973206c6f7474657279206861736e7420656e6465640000000000000000604482015260640162000518565b6000818152606c602090815260408083203384526001019091529020546200142e8162001e17565b6000828152606c602090815260408083203380855260019091018352818420849055928052606690915260008051602062002ec18339815191525490516323b872dd60e01b81526001600160a01b03909116916323b872dd9162001499913091869060040162002668565b602060405180830381600087803b158015620014b457600080fd5b505af1158015620014c9573d6000803e3d6000fd5b505050506040513d601f19601f82011682018060405250810190620014ef919062002444565b506000828152606c60209081526040808320338085526001909101835292819020548151868152928301939093528101919091527fb939406ab44f38c7dc45e00d3fd3441787d5f020ec9e1c51074b9a91d3bebc129060600160405180910390a15050565b600054610100900460ff16806200156e575060005460ff16155b6200158d5760405162461bcd60e51b81526004016200051890620026c5565b600054610100900460ff16158015620015b0576000805461ffff19166101011790555b606580546001600160a01b03199081166001600160a01b0380881691909117909255606660205260008051602062002ec183398151915280548216838b161790557fe34b8b74e1cdcaa1b90aa77af7dd89e496ad9a4ae4a4d4759712101c7da2dce68054821683891617905560026000527f8a9614ba8c677ead4620d2169d8ea794c0a1c3b5c9b380bc9dc10aaa393fb41980549091169188169190911790556200165d838884620012c3565b6200166762001e62565b60008b8b306040516200167a90620022a8565b6001600160a01b03938416815291831660208301529091166040820152606001604051809103906000f080158015620016b7573d6000803e3d6000fd5b50606e80546001600160a01b0319166001600160a01b039290921691909117905550606d8c90556000606b8190558052606c6020527f7febd347df14ea35c529e50fb2dd629d4a6226f5ccc893710fb466f8b83823ff805460ff19166001179055427f7febd347df14ea35c529e50fb2dd629d4a6226f5ccc893710fb466f8b838240055606f8990556070889055801562001758576000805461ff00191690555b505050505050505050505050565b6033546001600160a01b03163314620017935760405162461bcd60e51b8152600401620005189062002713565b6001600160a01b038116620017fa5760405162461bcd60e51b815260206004820152602660248201527f4f776e61626c653a206e6577206f776e657220697320746865207a65726f206160448201526564647265737360d01b606482015260840162000518565b6033546040516001600160a01b038084169216907f8be0079c531659141344cd1fd0a4f28419497f9722a3daafe3b4186f6b6457e090600090a3603380546001600160a01b0319166001600160a01b0392909216919091179055565b620018618262001e17565b60685460695460405163095ea7b360e01b81526001600160a01b0391821660048201526024810185905291169063095ea7b390604401602060405180830381600087803b158015620018b257600080fd5b505af1158015620018c7573d6000803e3d6000fd5b505050506040513d601f19601f82011682018060405250810190620018ed919062002444565b5060695460685460405163e8eda9df60e01b81526001600160a01b0391821660048201526024810185905283821660448201526000606482015291169063e8eda9df90608401600060405180830381600087803b1580156200194e57600080fd5b505af115801562001963573d6000803e3d6000fd5b505050505050565b60003411620019b55760405162461bcd60e51b815260206004820152601560248201527454686520616d6f756e7420697320746f6f206c6f7760581b604482015260640162000518565b6040805160028082526060820183526000926020830190803683375050606754604080516315ab88c960e31b815290519394506001600160a01b039091169263ad5c464892506004808301926020929190829003018186803b15801562001a1b57600080fd5b505afa15801562001a30573d6000803e3d6000fd5b505050506040513d601f19601f8201168201806040525081019062001a56919062002308565b8160008151811062001a7857634e487b7160e01b600052603260045260246000fd5b6001600160a01b03928316602091820292909201015260685482519116908290600190811062001ab857634e487b7160e01b600052603260045260246000fd5b6001600160a01b0392831660209182029290920101526067541663fb3bdb413484843062001ae94261012c620027fd565b6040518663ffffffff1660e01b815260040162001b0a949392919062002748565b6000604051808303818588803b15801562001b2457600080fd5b505af115801562001b39573d6000803e3d6000fd5b50505050506040513d6000823e601f3d908101601f1916820160405262001b64919081019062002378565b5060405133904780156108fc02916000818181858888f1935050505015801562001b92573d6000803e3d6000fd5b505050565b6000600185600f0b1262001bb95762001bb68364e8d4a5100062001ee7565b90505b600f85900b60009081526066602052604090819020549051636eb1769f60e11b815233600482015230602482015282916001600160a01b03169063dd62ed3e9060440160206040518083038186803b15801562001c1557600080fd5b505afa15801562001c2a573d6000803e3d6000fd5b505050506040513d601f19601f8201168201806040525081019062001c509190620024f8565b101562001c8e5760405162461bcd60e51b815260206004820152600b60248201526a139bdd08185b1b1bddd95960aa1b604482015260640162000518565b600f85900b60009081526066602052604090205462001cb9906001600160a01b031633308462001ef5565b606554604051630f7c084960e21b8152600f87810b600483015286900b602482015260448101839052606481018490526001600160a01b0390911690633df0212490608401600060405180830381600087803b15801562001d1957600080fd5b505af115801562001d2e573d6000803e3d6000fd5b505050505050505050565b606954606854604051631a4ca37b60e21b81526001600160a01b039182166004820152600019602482015283821660448201529116906369328dec90606401602060405180830381600087803b15801562001d9357600080fd5b505af115801562001da8573d6000803e3d6000fd5b505050506040513d601f19601f82011682018060405250810190620006d79190620024f8565b620006d7828260405160240162001de7929190620026a1565b60408051601f198184030181529190526020810180516001600160e01b03166309710a9d60e41b17905262001f51565b62001e5f8160405160240162001e2f91815260200190565b60408051601f198184030181529190526020810180516001600160e01b031663f5b1bba960e01b17905262001f51565b50565b600054610100900460ff168062001e7c575060005460ff16155b62001e9b5760405162461bcd60e51b81526004016200051890620026c5565b600054610100900460ff1615801562001ebe576000805461ffff19166101011790555b62001ec862001f72565b62001ed262001fe2565b801562001e5f576000805461ff001916905550565b600062000d33828462002818565b6200137a846323b872dd60e01b85858560405160240162001f199392919062002668565b60408051601f198184030181529190526020810180516001600160e01b03166001600160e01b03199093169290921790915262002096565b80516a636f6e736f6c652e6c6f67602083016000808483855afa5050505050565b600054610100900460ff168062001f8c575060005460ff16155b62001fab5760405162461bcd60e51b81526004016200051890620026c5565b600054610100900460ff1615801562001ed2576000805461ffff1916610101179055801562001e5f576000805461ff001916905550565b600054610100900460ff168062001ffc575060005460ff16155b6200201b5760405162461bcd60e51b81526004016200051890620026c5565b600054610100900460ff161580156200203e576000805461ffff19166101011790555b603380546001600160a01b0319163390811790915560405181906000907f8be0079c531659141344cd1fd0a4f28419497f9722a3daafe3b4186f6b6457e0908290a350801562001e5f576000805461ff001916905550565b6000620020ed826040518060400160405280602081526020017f5361666545524332303a206c6f772d6c6576656c2063616c6c206661696c6564815250856001600160a01b03166200216f9092919063ffffffff16565b80519091501562001b9257808060200190518101906200210e919062002444565b62001b925760405162461bcd60e51b815260206004820152602a60248201527f5361666545524332303a204552433230206f7065726174696f6e20646964206e6044820152691bdd081cdd58d8d9595960b21b606482015260840162000518565b606062000d30848460008585843b620021cb5760405162461bcd60e51b815260206004820152601d60248201527f416464726573733a2063616c6c20746f206e6f6e2d636f6e7472616374000000604482015260640162000518565b600080866001600160a01b03168587604051620021e991906200264a565b60006040518083038185875af1925050503d806000811462002228576040519150601f19603f3d011682016040523d82523d6000602084013e6200222d565b606091505b50915091506200223f8282866200224a565b979650505050505050565b606083156200225b57508162000d33565b8251156200226c5782518084602001fd5b8160405162461bcd60e51b81526004016200051891906200268c565b508054600082559060005260206000209081019062001e5f9190620022b6565b610599806200292883390190565b5b80821115620022cd5760008155600101620022b7565b5090565b8035600f81900b8114620022e457600080fd5b919050565b600060208284031215620022fb578081fd5b813562000d338162002911565b6000602082840312156200231a578081fd5b815162000d338162002911565b6000806000606084860312156200233c578182fd5b8335620023498162002911565b925060208401356200235b8162002911565b915060408401356200236d8162002911565b809150509250925092565b600060208083850312156200238b578182fd5b825167ffffffffffffffff80821115620023a3578384fd5b818501915085601f830112620023b7578384fd5b815181811115620023cc57620023cc620028fb565b8060051b604051601f19603f83011681018181108582111715620023f457620023f4620028fb565b604052828152858101935084860182860187018a101562002413578788fd5b8795505b838610156200243757805185526001959095019493860193860162002417565b5098975050505050505050565b60006020828403121562002456578081fd5b8151801515811462000d33578182fd5b6000806000606084860312156200247b578283fd5b8335600481106200248a578384fd5b95602085013595506040909401359392505050565b600080600060608486031215620024b4578283fd5b620024bf84620022d1565b9250620024cf60208501620022d1565b9150604084013590509250925092565b600060208284031215620024f1578081fd5b5035919050565b6000602082840312156200250a578081fd5b5051919050565b6000806040838503121562002524578182fd5b823591506020830135620025388162002911565b809150509250929050565b60008060008060008060008060008060006101608c8e03121562002565578687fd5b8b359a5060208c0135620025798162002911565b995060408c01356200258b8162002911565b985060608c0135975060808c0135965060a08c0135620025ab8162002911565b955060c08c0135620025bd8162002911565b945060e08c0135620025cf8162002911565b93506101008c0135620025e28162002911565b92506101208c0135620025f58162002911565b91506101408c0135620026088162002911565b809150509295989b509295989b9093969950565b60008151808452620026368160208601602086016200286b565b601f01601f19169290920160200192915050565b600082516200265e8184602087016200286b565b9190910192915050565b6001600160a01b039384168152919092166020820152604081019190915260600190565b60208152600062000d3360208301846200261c565b604081526000620026b660408301856200261c565b90508260208301529392505050565b6020808252602e908201527f496e697469616c697a61626c653a20636f6e747261637420697320616c72656160408201526d191e481a5b9a5d1a585b1a5e995960921b606082015260800190565b6020808252818101527f4f776e61626c653a2063616c6c6572206973206e6f7420746865206f776e6572604082015260600190565b600060808201868352602060808185015281875180845260a0860191508289019350845b81811015620027935784516001600160a01b0316835293830193918301916001016200276c565b50506001600160a01b039690961660408501525050506060015292915050565b8481526080810160058510620027d957634e487b7160e01b600052602160045260246000fd5b60208201949094526001600160a01b03929092166040830152606090910152919050565b60008219821115620028135762002813620028cf565b500190565b6000826200282a576200282a620028e5565b500490565b60008160001904831182151516156200284c576200284c620028cf565b500290565b600082821015620028665762002866620028cf565b500390565b60005b83811015620028885781810151838201526020016200286e565b838111156200137a5750506000910152565b6000600019821415620028b157620028b1620028cf565b5060010190565b600082620028ca57620028ca620028e5565b500690565b634e487b7160e01b600052601160045260246000fd5b634e487b7160e01b600052601260045260246000fd5b634e487b7160e01b600052604160045260246000fd5b6001600160a01b038116811462001e5f57600080fdfe60e060405234801561001057600080fd5b5060405161059938038061059983398101604081905261002f91610072565b6001600160601b0319606093841b811660a05291831b821660805290911b1660c0526100b4565b80516001600160a01b038116811461006d57600080fd5b919050565b600080600060608486031215610086578283fd5b61008f84610056565b925061009d60208501610056565b91506100ab60408501610056565b90509250925092565b60805160601c60a05160601c60c05160601c6104a16100f86000396000818160f90152610179015260008181606e0152610214015260006101e501526104a16000f3fe608060405234801561001057600080fd5b50600436106100365760003560e01c806394985ddd1461003b578063d42eb4b814610050575b600080fd5b61004e610049366004610391565b610063565b005b61004e61005e3660046103b2565b6100ee565b336001600160a01b037f000000000000000000000000000000000000000000000000000000000000000016146100e05760405162461bcd60e51b815260206004820152601f60248201527f4f6e6c7920565246436f6f7264696e61746f722063616e2066756c66696c6c0060448201526064015b60405180910390fd5b6100ea8282610163565b5050565b336001600160a01b037f000000000000000000000000000000000000000000000000000000000000000016146101525760405162461bcd60e51b81526020600482015260096024820152683337b93134b23232b760b91b60448201526064016100d7565b61015d8383836101e1565b50505050565b6040516382db4f1960e01b8152600481018290527f00000000000000000000000000000000000000000000000000000000000000006001600160a01b0316906382db4f1990602401600060405180830381600087803b1580156101c557600080fd5b505af11580156101d9573d6000803e3d6000fd5b505050505050565b60007f00000000000000000000000000000000000000000000000000000000000000006001600160a01b0316634000aea07f0000000000000000000000000000000000000000000000000000000000000000858786604051602001610250929190918252602082015260400190565b6040516020818303038152906040526040518463ffffffff1660e01b815260040161027d939291906103dd565b602060405180830381600087803b15801561029757600080fd5b505af11580156102ab573d6000803e3d6000fd5b505050506040513d601f19601f820116820180604052508101906102cf919061036a565b5060008481526020818152604080832054815180840189905280830187905230606082015260808082018390528351808303909101815260a090910190925281519183019190912087845292909152610329906001610447565b600086815260208181526040918290209290925580518083018890528082018490528151808203830181526060909101909152805191012095945050505050565b60006020828403121561037b578081fd5b8151801515811461038a578182fd5b9392505050565b600080604083850312156103a3578081fd5b50508035926020909101359150565b6000806000606084860312156103c6578081fd5b505081359360208301359350604090920135919050565b60018060a01b0384168152600060208481840152606060408401528351806060850152825b8181101561041e57858101830151858201608001528201610402565b8181111561042f5783608083870101525b50601f01601f19169290920160800195945050505050565b6000821982111561046657634e487b7160e01b81526011600452602481fd5b50019056fea26469706673582212205827c93142b3d6cbd3ce22ac6420196997363b3f7430bf8bc218c407281969a564736f6c634300080400336f48904484b35701cf1f41ad9068b394adf7e2f8a59d2309a04d10a155eaa72ba26469706673582212209915f3cd53b0d5e92bf9d3ca0e78482368f452ff443b4582a4c51a7b1086551f64736f6c63430008040033",
  "linkReferences": {},
  "deployedLinkReferences": {}
}