{
  "address": "0x8AC25089495040590573FCFE8803B2A83230d796",
  "abi": [
    {
      "anonymous": false,
      "inputs": [
        {
          "indexed": false,
          "internalType": "string",
          "name": "message",
          "type": "string"
        },
        {
          "indexed": false,
          "internalType": "uint256",
          "name": "value",
          "type": "uint256"
        }
      ],
      "name": "Log",
      "type": "event"
    },
    {
      "anonymous": false,
      "inputs": [
        {
          "indexed": false,
          "internalType": "address",
          "name": "account",
          "type": "address"
        },
        {
          "indexed": false,
          "internalType": "uint256",
          "name": "amount",
          "type": "uint256"
        }
      ],
      "name": "RewardClaimed",
      "type": "event"
    },
    {
      "inputs": [],
      "name": "DAI",
      "outputs": [
        {
          "internalType": "address",
          "name": "",
          "type": "address"
        }
      ],
      "stateMutability": "view",
      "type": "function"
    },
    {
      "inputs": [],
      "name": "FACTORY",
      "outputs": [
        {
          "internalType": "address",
          "name": "",
          "type": "address"
        }
      ],
      "stateMutability": "view",
      "type": "function"
    },
    {
      "inputs": [],
      "name": "ROUTER",
      "outputs": [
        {
          "internalType": "address",
          "name": "",
          "type": "address"
        }
      ],
      "stateMutability": "view",
      "type": "function"
    },
    {
      "inputs": [
        {
          "internalType": "address",
          "name": "",
          "type": "address"
        }
      ],
      "name": "balances",
      "outputs": [
        {
          "internalType": "uint256",
          "name": "",
          "type": "uint256"
        }
      ],
      "stateMutability": "view",
      "type": "function"
    },
    {
      "inputs": [],
      "name": "dai",
      "outputs": [
        {
          "internalType": "contract IERC20",
          "name": "",
          "type": "address"
        }
      ],
      "stateMutability": "view",
      "type": "function"
    },
    {
      "inputs": [
        {
          "internalType": "address",
          "name": "account",
          "type": "address"
        }
      ],
      "name": "earned",
      "outputs": [
        {
          "internalType": "uint256",
          "name": "",
          "type": "uint256"
        }
      ],
      "stateMutability": "view",
      "type": "function"
    },
    {
      "inputs": [],
      "name": "factory",
      "outputs": [
        {
          "internalType": "contract IUniswapV2Factory",
          "name": "",
          "type": "address"
        }
      ],
      "stateMutability": "view",
      "type": "function"
    },
    {
      "inputs": [
        {
          "internalType": "uint256",
          "name": "r",
          "type": "uint256"
        },
        {
          "internalType": "uint256",
          "name": "a",
          "type": "uint256"
        }
      ],
      "name": "getAmount",
      "outputs": [
        {
          "internalType": "uint256",
          "name": "",
          "type": "uint256"
        }
      ],
      "stateMutability": "pure",
      "type": "function"
    },
    {
      "inputs": [],
      "name": "getReward",
      "outputs": [],
      "stateMutability": "nonpayable",
      "type": "function"
    },
    {
      "inputs": [
        {
          "internalType": "address",
          "name": "_ROUTER",
          "type": "address"
        },
        {
          "internalType": "address",
          "name": "_FACTORY",
          "type": "address"
        },
        {
          "internalType": "address",
          "name": "_DAI",
          "type": "address"
        },
        {
          "internalType": "address",
          "name": "_stakingToken",
          "type": "address"
        },
        {
          "internalType": "address",
          "name": "_rewardsToken",
          "type": "address"
        }
      ],
      "name": "initialize",
      "outputs": [],
      "stateMutability": "nonpayable",
      "type": "function"
    },
    {
      "inputs": [],
      "name": "lastUpdateTime",
      "outputs": [
        {
          "internalType": "uint256",
          "name": "",
          "type": "uint256"
        }
      ],
      "stateMutability": "view",
      "type": "function"
    },
    {
      "inputs": [],
      "name": "rewardPerToken",
      "outputs": [
        {
          "internalType": "uint256",
          "name": "",
          "type": "uint256"
        }
      ],
      "stateMutability": "view",
      "type": "function"
    },
    {
      "inputs": [],
      "name": "rewardPerTokenStored",
      "outputs": [
        {
          "internalType": "uint256",
          "name": "",
          "type": "uint256"
        }
      ],
      "stateMutability": "view",
      "type": "function"
    },
    {
      "inputs": [],
      "name": "rewardRate",
      "outputs": [
        {
          "internalType": "uint256",
          "name": "",
          "type": "uint256"
        }
      ],
      "stateMutability": "view",
      "type": "function"
    },
    {
      "inputs": [
        {
          "internalType": "address",
          "name": "",
          "type": "address"
        }
      ],
      "name": "rewards",
      "outputs": [
        {
          "internalType": "uint256",
          "name": "",
          "type": "uint256"
        }
      ],
      "stateMutability": "view",
      "type": "function"
    },
    {
      "inputs": [],
      "name": "rewardsToken",
      "outputs": [
        {
          "internalType": "contract IERC20Upgradeable",
          "name": "",
          "type": "address"
        }
      ],
      "stateMutability": "view",
      "type": "function"
    },
    {
      "inputs": [],
      "name": "router",
      "outputs": [
        {
          "internalType": "contract IUniswapV2Router02",
          "name": "",
          "type": "address"
        }
      ],
      "stateMutability": "view",
      "type": "function"
    },
    {
      "inputs": [
        {
          "internalType": "uint256",
          "name": "_amount",
          "type": "uint256"
        },
        {
          "internalType": "bytes",
          "name": "sig",
          "type": "bytes"
        }
      ],
      "name": "stakeLPWithPermit",
      "outputs": [],
      "stateMutability": "nonpayable",
      "type": "function"
    },
    {
      "inputs": [
        {
          "internalType": "uint256",
          "name": "_amount",
          "type": "uint256"
        }
      ],
      "name": "stakeLPWithoutPermit",
      "outputs": [],
      "stateMutability": "nonpayable",
      "type": "function"
    },
    {
      "inputs": [],
      "name": "stakingToken",
      "outputs": [
        {
          "internalType": "contract IUniswapV2ERC20",
          "name": "",
          "type": "address"
        }
      ],
      "stateMutability": "view",
      "type": "function"
    },
    {
      "inputs": [],
      "name": "swapAddLiquidityAndReturnLP",
      "outputs": [],
      "stateMutability": "payable",
      "type": "function"
    },
    {
      "inputs": [],
      "name": "swapAddLiquidityAndStakeLP",
      "outputs": [],
      "stateMutability": "payable",
      "type": "function"
    },
    {
      "inputs": [],
      "name": "totalSupply",
      "outputs": [
        {
          "internalType": "uint256",
          "name": "",
          "type": "uint256"
        }
      ],
      "stateMutability": "view",
      "type": "function"
    },
    {
      "inputs": [
        {
          "internalType": "address",
          "name": "",
          "type": "address"
        }
      ],
      "name": "userRewardPerTokenPaid",
      "outputs": [
        {
          "internalType": "uint256",
          "name": "",
          "type": "uint256"
        }
      ],
      "stateMutability": "view",
      "type": "function"
    },
    {
      "inputs": [
        {
          "internalType": "uint256",
          "name": "_amount",
          "type": "uint256"
        }
      ],
      "name": "withdraw",
      "outputs": [],
      "stateMutability": "nonpayable",
      "type": "function"
    },
    {
      "stateMutability": "payable",
      "type": "receive"
    }
  ],
  "transactionHash": "0xd0b2b3cef9fa7edf782e8884e3833239ff0bcb5a06a3e4c7ed223cdd80807af1",
  "args": [],
  "numDeployments": 1,
  "solcInputHash": "c3230e4d3fe66b72ddeb534d58f56d3e",
  "bytecode": "0x608060405234801561001057600080fd5b50611868806100206000396000f3fe6080604052600436106101695760003560e01c8063809b0c2d116100d1578063cd3daf9d1161008a578063e0bab4c411610064578063e0bab4c414610419578063ea24682714610439578063f4b9fa7514610441578063f887ea401461046157600080fd5b8063cd3daf9d146103ce578063d1af0c7d146103e3578063df136d651461040357600080fd5b8063809b0c2d146103235780638408b5ac1461032b5780638b8763471461034b578063aae693e014610378578063c45a015514610398578063c8f33c91146103b857600080fd5b80632e1a7d4d116101235780632e1a7d4d1461027257806332fe7b26146102925780633d18b912146102b85780634ca98997146102cd57806372f702f3146102ed5780637b0a47ee1461030d57600080fd5b80628cc262146101755780630700037d146101a85780631459457a146101d557806318160ddd146101f757806327e235e31461020d5780632dd310001461023a57600080fd5b3661017057005b600080fd5b34801561018157600080fd5b5061019561019036600461145a565b610481565b6040519081526020015b60405180910390f35b3480156101b457600080fd5b506101956101c336600461145a565b600d6020526000908152604090205481565b3480156101e157600080fd5b506101f56101f0366004611477565b61050c565b005b34801561020357600080fd5b50610195600b5481565b34801561021957600080fd5b5061019561022836600461145a565b600e6020526000908152604090205481565b34801561024657600080fd5b5060015461025a906001600160a01b031681565b6040516001600160a01b03909116815260200161019f565b34801561027e57600080fd5b506101f561028d3660046114e8565b6105e4565b34801561029e57600080fd5b5060005461025a906201000090046001600160a01b031681565b3480156102c457600080fd5b506101f56106f1565b3480156102d957600080fd5b506101956102e8366004611501565b6107f2565b3480156102f957600080fd5b5060075461025a906001600160a01b031681565b34801561031957600080fd5b5061019560085481565b6101f5610853565b34801561033757600080fd5b506101f56103463660046114e8565b610861565b34801561035757600080fd5b5061019561036636600461145a565b600c6020526000908152604090205481565b34801561038457600080fd5b506101f5610393366004611539565b610873565b3480156103a457600080fd5b5060045461025a906001600160a01b031681565b3480156103c457600080fd5b5061019560095481565b3480156103da57600080fd5b506101956108a3565b3480156103ef57600080fd5b5060065461025a906001600160a01b031681565b34801561040f57600080fd5b50610195600a5481565b34801561042557600080fd5b5060025461025a906001600160a01b031681565b6101f5610901565b34801561044d57600080fd5b5060055461025a906001600160a01b031681565b34801561046d57600080fd5b5060035461025a906001600160a01b031681565b6001600160a01b0381166000908152600c6020526040812054670de0b6b3a7640000906104ac6108a3565b6104b6919061160a565b6001600160a01b0384166000908152600e60205260409020546104d99190611621565b6104e39190611640565b6001600160a01b0383166000908152600d60205260409020546105069190611662565b92915050565b600054610100900460ff166105275760005460ff161561052b565b303b155b6105935760405162461bcd60e51b815260206004820152602e60248201527f496e697469616c697a61626c653a20636f6e747261637420697320616c72656160448201526d191e481a5b9a5d1a585b1a5e995960921b60648201526084015b60405180910390fd5b600054610100900460ff161580156105b5576000805461ffff19166101011790555b6105c0868686610919565b6105ca83836109bb565b80156105dc576000805461ff00191690555b505050505050565b336105ed6108a3565b600a55426009556105fd81610481565b6001600160a01b0382166000908152600d6020908152604080832093909355600a54600c825283832055338252600e9052205482111561063c57600080fd5b81600b600082825461064e919061160a565b9091555050336000908152600e60205260408120805484929061067290849061160a565b909155505060075460405163a9059cbb60e01b8152336004820152602481018490526001600160a01b039091169063a9059cbb906044016020604051808303816000875af11580156106c8573d6000803e3d6000fd5b505050506040513d601f19601f820116820180604052508101906106ec919061167a565b505050565b336106fa6108a3565b600a554260095561070a81610481565b6001600160a01b038281166000908152600d6020818152604080842095909555600a54600c825285842055338084529190528382208054929055600654935163a9059cbb60e01b815260048101919091526024810182905290929091169063a9059cbb906044016020604051808303816000875af1158015610790573d6000803e3d6000fd5b505050506040513d601f19601f820116820180604052508101906107b4919061167a565b5060408051338152602081018390527f106f923f993c2149d49b4255ff723acafa1f2d94393f561d3eda32ae348f7241910160405180910390a15050565b60006107ca610842610806856107cd610a19565b61083c61083761081987623cda20610a19565b61082689623cda29610a19565b6108309190611662565b8890610a19565b610a25565b90610a95565b61084c9190611640565b9392505050565b61085e346001610aa1565b50565b61086a816110a7565b61085e57600080fd5b6000806000610881846111a6565b9250925092506108938584848461120e565b61089c57600080fd5b5050505050565b6000600b546000036108b65750600a5490565b600b546008546009546108c9904261160a565b6108d39190611621565b6108e590670de0b6b3a7640000611621565b6108ef9190611640565b600a546108fc9190611662565b905090565b600061090e346000610aa1565b905061085e816113bb565b600054610100900460ff166109405760405162461bcd60e51b815260040161058a9061169c565b6000805462010000600160b01b031916620100006001600160a01b0395861681029190911791829055600380549190920485166001600160a01b031991821617909155600180548216938516938417905560048054821690931790925560028054831691909316908117909255600580549091169091179055565b600054610100900460ff166109e25760405162461bcd60e51b815260040161058a9061169c565b600780546001600160a01b039384166001600160a01b03199182161790915560068054929093169116179055606460085542600955565b600061084c8284611621565b60006003821115610a865750806000610a3f600283611640565b610a4a906001611662565b90505b81811015610a8057905080600281610a658186611640565b610a6f9190611662565b610a799190611640565b9050610a4d565b50919050565b8115610a90575060015b919050565b600061084c828461160a565b60048054600354604080516315ab88c960e31b8152905160009485946001600160a01b039081169463e6a439059491169263ad5c4648928281019260209291908290030181865afa158015610afa573d6000803e3d6000fd5b505050506040513d601f19601f82011682018060405250810190610b1e91906116e7565b60025460405160e084901b6001600160e01b03191681526001600160a01b03928316600482015291166024820152604401602060405180830381865afa158015610b6c573d6000803e3d6000fd5b505050506040513d601f19601f82011682018060405250810190610b9091906116e7565b90506000816001600160a01b0316630902f1ac6040518163ffffffff1660e01b8152600401606060405180830381865afa158015610bd2573d6000803e3d6000fd5b505050506040513d601f19601f82011682018060405250810190610bf6919061171b565b50506001600160701b031690506000610c0f82876107f2565b90506000610c1d828861160a565b6005546040516370a0823160e01b81523060048201529192506000916001600160a01b03909116906370a0823190602401602060405180830381865afa158015610c6b573d6000803e3d6000fd5b505050506040513d601f19601f82011682018060405250810190610c8f919061176b565b60408051600280825260608201835292935060009290916020830190803683375050600354604080516315ab88c960e31b815290519394506001600160a01b039091169263ad5c4648925060048083019260209291908290030181865afa158015610cfe573d6000803e3d6000fd5b505050506040513d601f19601f82011682018060405250810190610d2291906116e7565b81600081518110610d3557610d35611784565b6001600160a01b039283166020918202929092010152600254825191169082906001908110610d6657610d66611784565b6001600160a01b03928316602091820292909201015260035460405163b6f9de9560e01b815291169063b6f9de95908690610dac9060019086903090429060040161179a565b6000604051808303818588803b158015610dc557600080fd5b505af1158015610dd9573d6000803e3d6000fd5b50506005546040516370a0823160e01b8152306004820152600094506001600160a01b0390911692506370a082319150602401602060405180830381865afa158015610e29573d6000803e3d6000fd5b505050506040513d601f19601f82011682018060405250810190610e4d919061176b565b90506000610e5b848361160a565b60055460005460405163095ea7b360e01b81526001600160a01b03620100009092048216600482015260248101849052929350169063095ea7b3906044016020604051808303816000875af1158015610eb8573d6000803e3d6000fd5b505050506040513d601f19601f82011682018060405250810190610edc919061167a565b5060008a610eea5730610eec565b335b60035460025460405163f305d71960e01b81526001600160a01b03918216600482015260248101869052600160448201819052606482015281841660848201524260a482015292935060009283928392169063f305d719908b9060c40160606040518083038185885af1158015610f67573d6000803e3d6000fd5b50505050506040513d601f19601f82011682018060405250810190610f8c9190611804565b9250925092507fdd970dd9b5bfe707922155b058a407655cb18288b807e2216442bca8ad83d6b583604051610fe891906040808252600a908201526911105248185b5bdd5b9d60b21b6060820152602081019190915260800190565b60405180910390a160408051818152600a818301526911551208185b5bdd5b9d60b21b60608201526020810184905290517fdd970dd9b5bfe707922155b058a407655cb18288b807e2216442bca8ad83d6b59181900360800190a160408051818152600981830152686c697175696469747960b81b60608201526020810183905290517fdd970dd9b5bfe707922155b058a407655cb18288b807e2216442bca8ad83d6b59181900360800190a19e9d5050505050505050505050505050565b6000336110b26108a3565b600a55426009556110c281610481565b6001600160a01b0382166000908152600d6020908152604080832093909355600a54600c90915291812091909155600b8054859290611102908490611662565b9091555050336000908152600e602052604081208054859290611126908490611662565b90915550506007546040516323b872dd60e01b8152336004820152306024820152604481018590526001600160a01b03909116906323b872dd906064016020604051808303816000875af1158015611182573d6000803e3d6000fd5b505050506040513d601f19601f8201168201806040525081019061084c919061167a565b600080600083516041146111f05760405162461bcd60e51b8152602060048201526011602482015270696e76616c6964207369676e617475726560781b604482015260640161058a565b50505060208101516040820151606090920151909260009190911a90565b6000336112196108a3565b600a554260095561122981610481565b6001600160a01b0382166000908152600d6020908152604080832093909355600a54600c90915291812091909155600b8054889290611269908490611662565b9091555050336000908152600e60205260408120805488929061128d908490611662565b90915550506007546001600160a01b031663d505accf3330896112b34262015180611662565b6040516001600160e01b031960e087901b1681526001600160a01b0394851660048201529390921660248401526044830152606482015260ff8616608482015260a4810188905260c4810187905260e401600060405180830381600087803b15801561131e57600080fd5b505af1158015611332573d6000803e3d6000fd5b50506007546040516323b872dd60e01b8152336004820152306024820152604481018a90526001600160a01b0390911692506323b872dd91506064016020604051808303816000875af115801561138d573d6000803e3d6000fd5b505050506040513d601f19601f820116820180604052508101906113b1919061167a565b9695505050505050565b61085e81336113c86108a3565b600a55426009556113d881610481565b6001600160a01b0382166000908152600d6020908152604080832093909355600a54600c90915291812091909155600b8054849290611418908490611662565b9091555050336000908152600e60205260408120805484929061143c908490611662565b90915550505050565b6001600160a01b038116811461085e57600080fd5b60006020828403121561146c57600080fd5b813561084c81611445565b600080600080600060a0868803121561148f57600080fd5b853561149a81611445565b945060208601356114aa81611445565b935060408601356114ba81611445565b925060608601356114ca81611445565b915060808601356114da81611445565b809150509295509295909350565b6000602082840312156114fa57600080fd5b5035919050565b6000806040838503121561151457600080fd5b50508035926020909101359150565b634e487b7160e01b600052604160045260246000fd5b6000806040838503121561154c57600080fd5b82359150602083013567ffffffffffffffff8082111561156b57600080fd5b818501915085601f83011261157f57600080fd5b81358181111561159157611591611523565b604051601f8201601f19908116603f011681019083821181831017156115b9576115b9611523565b816040528281528860208487010111156115d257600080fd5b8260208601602083013760006020848301015280955050505050509250929050565b634e487b7160e01b600052601160045260246000fd5b60008282101561161c5761161c6115f4565b500390565b600081600019048311821515161561163b5761163b6115f4565b500290565b60008261165d57634e487b7160e01b600052601260045260246000fd5b500490565b60008219821115611675576116756115f4565b500190565b60006020828403121561168c57600080fd5b8151801515811461084c57600080fd5b6020808252602b908201527f496e697469616c697a61626c653a20636f6e7472616374206973206e6f74206960408201526a6e697469616c697a696e6760a81b606082015260800190565b6000602082840312156116f957600080fd5b815161084c81611445565b80516001600160701b0381168114610a9057600080fd5b60008060006060848603121561173057600080fd5b61173984611704565b925061174760208501611704565b9150604084015163ffffffff8116811461176057600080fd5b809150509250925092565b60006020828403121561177d57600080fd5b5051919050565b634e487b7160e01b600052603260045260246000fd5b600060808201868352602060808185015281875180845260a086019150828901935060005b818110156117e45784516001600160a01b0316835293830193918301916001016117bf565b50506001600160a01b039690961660408501525050506060015292915050565b60008060006060848603121561181957600080fd5b835192506020840151915060408401519050925092509256fea26469706673582212208c5a2fcb38bdd59e5c0b7b8a0243cb1d82a65509de62afd1445ca471ed60e34564736f6c634300080d0033",
  "devdoc": {
    "kind": "dev",
    "methods": {
      "getAmount(uint256,uint256)": {
        "details": "according to the Uniswaps whitepaper and its maths, regarding to the swaps and fees the formula to calculate the swap before adding liquidity is s = (sqrt(((2-f)r)^2+4(1-f)ar)-(2-f)r)/(2(1-f)) where s = optimal swap amount r = amount of reserve of token a a = amount of token a the user has f = swap fee percent With the actual fee of 0.3% or 3/1000 we have that the final result is the one inside the  function.",
        "params": {
          "a": "amount of token a the user has",
          "r": "amount of reserve of token a"
        }
      },
      "initialize(address,address,address,address,address)": {
        "details": "This address is the required by UniSwap for swaps between tokens and ETH",
        "params": {
          "_DAI": "is the address of the DAI Token",
          "_FACTORY": "is the address of the Uniswap Factory V2",
          "_ROUTER": "is the address of the Uniswap Router V2"
        }
      },
      "stakeLPWithPermit(uint256,bytes)": {
        "details": "This function doesn't require the user to do an Approval transaction beforeThis function require a signature by the user in the off-chain",
        "params": {
          "_amount": "is a uint which is the amount of LP Tokens to be staked"
        }
      },
      "stakeLPWithoutPermit(uint256)": {
        "details": "This function require the user to do an Approval transaction before",
        "params": {
          "_amount": "is a uint which is the amount of LP Tokens to be staked"
        }
      },
      "swapAddLiquidityAndReturnLP()": {
        "details": "only adds liquidity to the ETH / DAI pool"
      },
      "swapAddLiquidityAndStakeLP()": {
        "details": "only adds liquidity to the ETH / DAI pool"
      },
      "withdraw(uint256)": {
        "params": {
          "_amount": "is a uint with the amount of LP Tokens to be withdrawed"
        }
      }
    },
    "version": 1
  },
  "userdoc": {
    "events": {
      "Log(string,uint256)": {
        "notice": "EVENTS "
      },
      "RewardClaimed(address,uint256)": {
        "notice": "EVENTS"
      }
    },
    "kind": "user",
    "methods": {
      "getAmount(uint256,uint256)": {
        "notice": "an auxiliar function to get the optimal swap amount to add liquidity"
      },
      "getReward()": {
        "notice": "Function that allows a user to withdraw his Reward tokens"
      },
      "initialize(address,address,address,address,address)": {
        "notice": "Function initializer of this upgradeable contract"
      },
      "rewardPerToken()": {
        "notice": "functions to calculate rewards and earnings"
      },
      "rewardsToken()": {
        "notice": "VARIABLES"
      },
      "stakeLPWithPermit(uint256,bytes)": {
        "notice": "Function used to stake LP tokens already owned by the user"
      },
      "stakeLPWithoutPermit(uint256)": {
        "notice": "Function used to stake LP tokens already owned by the user"
      },
      "swapAddLiquidityAndReturnLP()": {
        "notice": "the main function to swap and add liquiditythis function returns the LP Tokens to the msg sender"
      },
      "swapAddLiquidityAndStakeLP()": {
        "notice": "the main function to swap and add liquiditythis function returns the LP Tokens to the msg sender"
      },
      "userRewardPerTokenPaid(address)": {
        "notice": "MAPPINGS"
      },
      "withdraw(uint256)": {
        "notice": "Function that allows a user to withdraw his LP Tokens staked in the contract"
      }
    },
    "version": 1
  },
  "storageLayout": {
    "storage": [
      {
        "astId": 408,
        "contract": "contracts/LPStacking.sol:LPStaking",
        "label": "_initialized",
        "offset": 0,
        "slot": "0",
        "type": "t_bool"
      },
      {
        "astId": 411,
        "contract": "contracts/LPStacking.sol:LPStaking",
        "label": "_initializing",
        "offset": 1,
        "slot": "0",
        "type": "t_bool"
      },
      {
        "astId": 3096,
        "contract": "contracts/LPStacking.sol:LPStaking",
        "label": "ROUTER",
        "offset": 2,
        "slot": "0",
        "type": "t_address"
      },
      {
        "astId": 3098,
        "contract": "contracts/LPStacking.sol:LPStaking",
        "label": "FACTORY",
        "offset": 0,
        "slot": "1",
        "type": "t_address"
      },
      {
        "astId": 3100,
        "contract": "contracts/LPStacking.sol:LPStaking",
        "label": "DAI",
        "offset": 0,
        "slot": "2",
        "type": "t_address"
      },
      {
        "astId": 3103,
        "contract": "contracts/LPStacking.sol:LPStaking",
        "label": "router",
        "offset": 0,
        "slot": "3",
        "type": "t_contract(IUniswapV2Router02)2944"
      },
      {
        "astId": 3106,
        "contract": "contracts/LPStacking.sol:LPStaking",
        "label": "factory",
        "offset": 0,
        "slot": "4",
        "type": "t_contract(IUniswapV2Factory)2306"
      },
      {
        "astId": 3109,
        "contract": "contracts/LPStacking.sol:LPStaking",
        "label": "dai",
        "offset": 0,
        "slot": "5",
        "type": "t_contract(IERC20)1813"
      },
      {
        "astId": 3581,
        "contract": "contracts/LPStacking.sol:LPStaking",
        "label": "rewardsToken",
        "offset": 0,
        "slot": "6",
        "type": "t_contract(IERC20Upgradeable)1166"
      },
      {
        "astId": 3584,
        "contract": "contracts/LPStacking.sol:LPStaking",
        "label": "stakingToken",
        "offset": 0,
        "slot": "7",
        "type": "t_contract(IUniswapV2ERC20)2243"
      },
      {
        "astId": 3586,
        "contract": "contracts/LPStacking.sol:LPStaking",
        "label": "rewardRate",
        "offset": 0,
        "slot": "8",
        "type": "t_uint256"
      },
      {
        "astId": 3588,
        "contract": "contracts/LPStacking.sol:LPStaking",
        "label": "lastUpdateTime",
        "offset": 0,
        "slot": "9",
        "type": "t_uint256"
      },
      {
        "astId": 3590,
        "contract": "contracts/LPStacking.sol:LPStaking",
        "label": "rewardPerTokenStored",
        "offset": 0,
        "slot": "10",
        "type": "t_uint256"
      },
      {
        "astId": 3592,
        "contract": "contracts/LPStacking.sol:LPStaking",
        "label": "totalSupply",
        "offset": 0,
        "slot": "11",
        "type": "t_uint256"
      },
      {
        "astId": 3597,
        "contract": "contracts/LPStacking.sol:LPStaking",
        "label": "userRewardPerTokenPaid",
        "offset": 0,
        "slot": "12",
        "type": "t_mapping(t_address,t_uint256)"
      },
      {
        "astId": 3601,
        "contract": "contracts/LPStacking.sol:LPStaking",
        "label": "rewards",
        "offset": 0,
        "slot": "13",
        "type": "t_mapping(t_address,t_uint256)"
      },
      {
        "astId": 3605,
        "contract": "contracts/LPStacking.sol:LPStaking",
        "label": "balances",
        "offset": 0,
        "slot": "14",
        "type": "t_mapping(t_address,t_uint256)"
      }
    ],
    "types": {
      "t_address": {
        "encoding": "inplace",
        "label": "address",
        "numberOfBytes": "20"
      },
      "t_bool": {
        "encoding": "inplace",
        "label": "bool",
        "numberOfBytes": "1"
      },
      "t_contract(IERC20)1813": {
        "encoding": "inplace",
        "label": "contract IERC20",
        "numberOfBytes": "20"
      },
      "t_contract(IERC20Upgradeable)1166": {
        "encoding": "inplace",
        "label": "contract IERC20Upgradeable",
        "numberOfBytes": "20"
      },
      "t_contract(IUniswapV2ERC20)2243": {
        "encoding": "inplace",
        "label": "contract IUniswapV2ERC20",
        "numberOfBytes": "20"
      },
      "t_contract(IUniswapV2Factory)2306": {
        "encoding": "inplace",
        "label": "contract IUniswapV2Factory",
        "numberOfBytes": "20"
      },
      "t_contract(IUniswapV2Router02)2944": {
        "encoding": "inplace",
        "label": "contract IUniswapV2Router02",
        "numberOfBytes": "20"
      },
      "t_mapping(t_address,t_uint256)": {
        "encoding": "mapping",
        "key": "t_address",
        "label": "mapping(address => uint256)",
        "numberOfBytes": "32",
        "value": "t_uint256"
      },
      "t_uint256": {
        "encoding": "inplace",
        "label": "uint256",
        "numberOfBytes": "32"
      }
    }
  }
}