{
  "address": "0xFA73E8E853F18678B69D9DaFE05c375B1A045e41",
  "abi": [
    {
      "anonymous": false,
      "inputs": [
        {
          "indexed": false,
          "internalType": "string",
          "name": "message",
          "type": "string"
        },
        {
          "indexed": false,
          "internalType": "uint256",
          "name": "value",
          "type": "uint256"
        }
      ],
      "name": "Log",
      "type": "event"
    },
    {
      "anonymous": false,
      "inputs": [
        {
          "indexed": false,
          "internalType": "address",
          "name": "account",
          "type": "address"
        },
        {
          "indexed": false,
          "internalType": "uint256",
          "name": "amount",
          "type": "uint256"
        }
      ],
      "name": "RewardClaimed",
      "type": "event"
    },
    {
      "anonymous": false,
      "inputs": [
        {
          "indexed": true,
          "internalType": "bytes32",
          "name": "role",
          "type": "bytes32"
        },
        {
          "indexed": true,
          "internalType": "bytes32",
          "name": "previousAdminRole",
          "type": "bytes32"
        },
        {
          "indexed": true,
          "internalType": "bytes32",
          "name": "newAdminRole",
          "type": "bytes32"
        }
      ],
      "name": "RoleAdminChanged",
      "type": "event"
    },
    {
      "anonymous": false,
      "inputs": [
        {
          "indexed": true,
          "internalType": "bytes32",
          "name": "role",
          "type": "bytes32"
        },
        {
          "indexed": true,
          "internalType": "address",
          "name": "account",
          "type": "address"
        },
        {
          "indexed": true,
          "internalType": "address",
          "name": "sender",
          "type": "address"
        }
      ],
      "name": "RoleGranted",
      "type": "event"
    },
    {
      "anonymous": false,
      "inputs": [
        {
          "indexed": true,
          "internalType": "bytes32",
          "name": "role",
          "type": "bytes32"
        },
        {
          "indexed": true,
          "internalType": "address",
          "name": "account",
          "type": "address"
        },
        {
          "indexed": true,
          "internalType": "address",
          "name": "sender",
          "type": "address"
        }
      ],
      "name": "RoleRevoked",
      "type": "event"
    },
    {
      "inputs": [],
      "name": "ADMIN_ROLE",
      "outputs": [
        {
          "internalType": "bytes32",
          "name": "",
          "type": "bytes32"
        }
      ],
      "stateMutability": "view",
      "type": "function"
    },
    {
      "inputs": [],
      "name": "DEFAULT_ADMIN_ROLE",
      "outputs": [
        {
          "internalType": "bytes32",
          "name": "",
          "type": "bytes32"
        }
      ],
      "stateMutability": "view",
      "type": "function"
    },
    {
      "inputs": [
        {
          "internalType": "address",
          "name": "",
          "type": "address"
        }
      ],
      "name": "balances",
      "outputs": [
        {
          "internalType": "uint256",
          "name": "",
          "type": "uint256"
        }
      ],
      "stateMutability": "view",
      "type": "function"
    },
    {
      "inputs": [
        {
          "internalType": "address",
          "name": "account",
          "type": "address"
        }
      ],
      "name": "earned",
      "outputs": [
        {
          "internalType": "uint256",
          "name": "",
          "type": "uint256"
        }
      ],
      "stateMutability": "view",
      "type": "function"
    },
    {
      "inputs": [
        {
          "internalType": "uint256",
          "name": "r",
          "type": "uint256"
        },
        {
          "internalType": "uint256",
          "name": "a",
          "type": "uint256"
        }
      ],
      "name": "getAmount",
      "outputs": [
        {
          "internalType": "uint256",
          "name": "",
          "type": "uint256"
        }
      ],
      "stateMutability": "pure",
      "type": "function"
    },
    {
      "inputs": [],
      "name": "getReward",
      "outputs": [],
      "stateMutability": "nonpayable",
      "type": "function"
    },
    {
      "inputs": [
        {
          "internalType": "bytes32",
          "name": "role",
          "type": "bytes32"
        }
      ],
      "name": "getRoleAdmin",
      "outputs": [
        {
          "internalType": "bytes32",
          "name": "",
          "type": "bytes32"
        }
      ],
      "stateMutability": "view",
      "type": "function"
    },
    {
      "inputs": [
        {
          "internalType": "bytes32",
          "name": "role",
          "type": "bytes32"
        },
        {
          "internalType": "address",
          "name": "account",
          "type": "address"
        }
      ],
      "name": "grantRole",
      "outputs": [],
      "stateMutability": "nonpayable",
      "type": "function"
    },
    {
      "inputs": [
        {
          "internalType": "bytes32",
          "name": "role",
          "type": "bytes32"
        },
        {
          "internalType": "address",
          "name": "account",
          "type": "address"
        }
      ],
      "name": "hasRole",
      "outputs": [
        {
          "internalType": "bool",
          "name": "",
          "type": "bool"
        }
      ],
      "stateMutability": "view",
      "type": "function"
    },
    {
      "inputs": [
        {
          "internalType": "address",
          "name": "_router",
          "type": "address"
        },
        {
          "internalType": "address",
          "name": "_factory",
          "type": "address"
        },
        {
          "internalType": "address",
          "name": "_DAI",
          "type": "address"
        },
        {
          "internalType": "address",
          "name": "_stakingToken",
          "type": "address"
        },
        {
          "internalType": "address",
          "name": "_rewardsToken",
          "type": "address"
        }
      ],
      "name": "initialize",
      "outputs": [],
      "stateMutability": "nonpayable",
      "type": "function"
    },
    {
      "inputs": [
        {
          "internalType": "address",
          "name": "_address",
          "type": "address"
        }
      ],
      "name": "isAdmin",
      "outputs": [
        {
          "internalType": "bool",
          "name": "",
          "type": "bool"
        }
      ],
      "stateMutability": "view",
      "type": "function"
    },
    {
      "inputs": [],
      "name": "lastUpdateTime",
      "outputs": [
        {
          "internalType": "uint256",
          "name": "",
          "type": "uint256"
        }
      ],
      "stateMutability": "view",
      "type": "function"
    },
    {
      "inputs": [
        {
          "internalType": "bytes32",
          "name": "role",
          "type": "bytes32"
        },
        {
          "internalType": "address",
          "name": "account",
          "type": "address"
        }
      ],
      "name": "renounceRole",
      "outputs": [],
      "stateMutability": "nonpayable",
      "type": "function"
    },
    {
      "inputs": [
        {
          "internalType": "bytes32",
          "name": "role",
          "type": "bytes32"
        },
        {
          "internalType": "address",
          "name": "account",
          "type": "address"
        }
      ],
      "name": "revokeRole",
      "outputs": [],
      "stateMutability": "nonpayable",
      "type": "function"
    },
    {
      "inputs": [],
      "name": "rewardPerToken",
      "outputs": [
        {
          "internalType": "uint256",
          "name": "",
          "type": "uint256"
        }
      ],
      "stateMutability": "view",
      "type": "function"
    },
    {
      "inputs": [],
      "name": "rewardPerTokenStored",
      "outputs": [
        {
          "internalType": "uint256",
          "name": "",
          "type": "uint256"
        }
      ],
      "stateMutability": "view",
      "type": "function"
    },
    {
      "inputs": [],
      "name": "rewardRate",
      "outputs": [
        {
          "internalType": "uint256",
          "name": "",
          "type": "uint256"
        }
      ],
      "stateMutability": "view",
      "type": "function"
    },
    {
      "inputs": [
        {
          "internalType": "address",
          "name": "",
          "type": "address"
        }
      ],
      "name": "rewards",
      "outputs": [
        {
          "internalType": "uint256",
          "name": "",
          "type": "uint256"
        }
      ],
      "stateMutability": "view",
      "type": "function"
    },
    {
      "inputs": [],
      "name": "rewardsToken",
      "outputs": [
        {
          "internalType": "contract IERC20Upgradeable",
          "name": "",
          "type": "address"
        }
      ],
      "stateMutability": "view",
      "type": "function"
    },
    {
      "inputs": [
        {
          "internalType": "uint256",
          "name": "_amount",
          "type": "uint256"
        },
        {
          "internalType": "bytes",
          "name": "sig",
          "type": "bytes"
        }
      ],
      "name": "stakeLPWithPermit",
      "outputs": [],
      "stateMutability": "nonpayable",
      "type": "function"
    },
    {
      "inputs": [
        {
          "internalType": "uint256",
          "name": "_amount",
          "type": "uint256"
        }
      ],
      "name": "stakeLPWithoutPermit",
      "outputs": [],
      "stateMutability": "nonpayable",
      "type": "function"
    },
    {
      "inputs": [],
      "name": "stakingToken",
      "outputs": [
        {
          "internalType": "contract IUniswapV2ERC20",
          "name": "",
          "type": "address"
        }
      ],
      "stateMutability": "view",
      "type": "function"
    },
    {
      "inputs": [
        {
          "internalType": "bytes4",
          "name": "interfaceId",
          "type": "bytes4"
        }
      ],
      "name": "supportsInterface",
      "outputs": [
        {
          "internalType": "bool",
          "name": "",
          "type": "bool"
        }
      ],
      "stateMutability": "view",
      "type": "function"
    },
    {
      "inputs": [],
      "name": "swapAddLiquidityAndReturnLP",
      "outputs": [],
      "stateMutability": "payable",
      "type": "function"
    },
    {
      "inputs": [],
      "name": "swapAddLiquidityAndStakeLP",
      "outputs": [],
      "stateMutability": "payable",
      "type": "function"
    },
    {
      "inputs": [],
      "name": "totalSupply",
      "outputs": [
        {
          "internalType": "uint256",
          "name": "",
          "type": "uint256"
        }
      ],
      "stateMutability": "view",
      "type": "function"
    },
    {
      "inputs": [
        {
          "internalType": "address",
          "name": "",
          "type": "address"
        }
      ],
      "name": "userRewardPerTokenPaid",
      "outputs": [
        {
          "internalType": "uint256",
          "name": "",
          "type": "uint256"
        }
      ],
      "stateMutability": "view",
      "type": "function"
    },
    {
      "inputs": [
        {
          "internalType": "uint256",
          "name": "_amount",
          "type": "uint256"
        }
      ],
      "name": "withdraw",
      "outputs": [],
      "stateMutability": "nonpayable",
      "type": "function"
    }
  ],
  "transactionHash": "0x37dd79c282c9a6f2e72c67afc1987ec5ab2b492a58da902d2446188fa103cbbe",
  "args": [],
  "numDeployments": 2,
  "solcInputHash": "567ef482dcb73446db6b8345a20b3cb6",
  "bytecode": "0x608060405234801561001057600080fd5b5061209f806100206000396000f3fe6080604052600436106101b65760003560e01c806375b238fc116100ec578063aae693e01161008a578063d1af0c7d11610064578063d1af0c7d146104ec578063d547741f1461050c578063df136d651461052c578063ea2468271461054257600080fd5b8063aae693e0146104a1578063c8f33c91146104c1578063cd3daf9d146104d757600080fd5b80638408b5ac116100c65780638408b5ac1461041f5780638b8763471461043f57806391d148541461046c578063a217fddf1461048c57600080fd5b806375b238fc146103cd5780637b0a47ee14610401578063809b0c2d1461041757600080fd5b806327e235e31161015957806336568abe1161013357806336568abe146103405780633d18b912146103605780634ca989971461037557806372f702f31461039557600080fd5b806327e235e3146102d35780632e1a7d4d146103005780632f2ff15d1461032057600080fd5b80631459457a116101955780631459457a1461024b57806318160ddd1461026d578063248a9ca31461028357806324d7806c146102b357600080fd5b80628cc262146101bb57806301ffc9a7146101ee5780630700037d1461021e575b600080fd5b3480156101c757600080fd5b506101db6101d6366004611b48565b61054a565b6040519081526020015b60405180910390f35b3480156101fa57600080fd5b5061020e610209366004611b65565b6105d5565b60405190151581526020016101e5565b34801561022a57600080fd5b506101db610239366004611b48565b60a46020526000908152604090205481565b34801561025757600080fd5b5061026b610266366004611b8f565b61060a565b005b34801561027957600080fd5b506101db60a25481565b34801561028f57600080fd5b506101db61029e366004611c00565b60009081526065602052604090206001015490565b3480156102bf57600080fd5b5061020e6102ce366004611b48565b610753565b3480156102df57600080fd5b506101db6102ee366004611b48565b60a56020526000908152604090205481565b34801561030c57600080fd5b5061026b61031b366004611c00565b61077f565b34801561032c57600080fd5b5061026b61033b366004611c19565b61088c565b34801561034c57600080fd5b5061026b61035b366004611c19565b6108b2565b34801561036c57600080fd5b5061026b610930565b34801561038157600080fd5b506101db610390366004611c49565b610a31565b3480156103a157600080fd5b50609e546103b5906001600160a01b031681565b6040516001600160a01b0390911681526020016101e5565b3480156103d957600080fd5b506101db7fa49807205ce4d355092ef5a8a18f56e8913cf4a201fbe287825b095693c2177581565b34801561040d57600080fd5b506101db609f5481565b61026b610a92565b34801561042b57600080fd5b5061026b61043a366004611c00565b610aa0565b34801561044b57600080fd5b506101db61045a366004611b48565b60a36020526000908152604090205481565b34801561047857600080fd5b5061020e610487366004611c19565b610ab2565b34801561049857600080fd5b506101db600081565b3480156104ad57600080fd5b5061026b6104bc366004611c81565b610add565b3480156104cd57600080fd5b506101db60a05481565b3480156104e357600080fd5b506101db610b0d565b3480156104f857600080fd5b50609d546103b5906001600160a01b031681565b34801561051857600080fd5b5061026b610527366004611c19565b610b6b565b34801561053857600080fd5b506101db60a15481565b61026b610b91565b6001600160a01b038116600090815260a36020526040812054670de0b6b3a764000090610575610b0d565b61057f9190611d52565b6001600160a01b038416600090815260a560205260409020546105a29190611d69565b6105ac9190611d88565b6001600160a01b038316600090815260a460205260409020546105cf9190611daa565b92915050565b60006001600160e01b03198216637965db0b60e01b14806105cf57506301ffc9a760e01b6001600160e01b03198316146105cf565b600054610100900460ff166106255760005460ff1615610629565b303b155b6106915760405162461bcd60e51b815260206004820152602e60248201527f496e697469616c697a61626c653a20636f6e747261637420697320616c72656160448201526d191e481a5b9a5d1a585b1a5e995960921b60648201526084015b60405180910390fd5b600054610100900460ff161580156106b3576000805461ffff19166101011790555b60a680546001600160a01b038089166001600160a01b0319928316811790935560a78054898316908416811790915560a880549289169290931682179092556106fd929190610ba9565b6107078383610bdb565b61070f610c0c565b6107397fa49807205ce4d355092ef5a8a18f56e8913cf4a201fbe287825b095693c2177533610c35565b801561074b576000805461ff00191690555b505050505050565b60006105cf7fa49807205ce4d355092ef5a8a18f56e8913cf4a201fbe287825b095693c2177583610ab2565b33610788610b0d565b60a1554260a0556107988161054a565b6001600160a01b038216600090815260a4602090815260408083209390935560a15460a382528383205533825260a5905220548211156107d757600080fd5b8160a260008282546107e99190611d52565b909155505033600090815260a560205260408120805484929061080d908490611d52565b9091555050609e5460405163a9059cbb60e01b8152336004820152602481018490526001600160a01b039091169063a9059cbb906044016020604051808303816000875af1158015610863573d6000803e3d6000fd5b505050506040513d601f19601f820116820180604052508101906108879190611dc2565b505050565b6000828152606560205260409020600101546108a88133610c3f565b6108878383610ca3565b6001600160a01b03811633146109225760405162461bcd60e51b815260206004820152602f60248201527f416363657373436f6e74726f6c3a2063616e206f6e6c792072656e6f756e636560448201526e103937b632b9903337b91039b2b63360891b6064820152608401610688565b61092c8282610d29565b5050565b33610939610b0d565b60a1554260a0556109498161054a565b6001600160a01b03828116600090815260a4602081815260408084209590955560a15460a3825285842055338084529190528382208054929055609d54935163a9059cbb60e01b815260048101919091526024810182905290929091169063a9059cbb906044016020604051808303816000875af11580156109cf573d6000803e3d6000fd5b505050506040513d601f19601f820116820180604052508101906109f39190611dc2565b5060408051338152602081018390527f106f923f993c2149d49b4255ff723acafa1f2d94393f561d3eda32ae348f7241910160405180910390a15050565b60006107ca610a81610a45856107cd610d90565b610a7b610a76610a5887623cda20610d90565b610a6589623cda29610d90565b610a6f9190611daa565b8890610d90565b610d9c565b90610e0c565b610a8b9190611d88565b9392505050565b610a9d346001610e18565b50565b610aa98161141b565b610a9d57600080fd5b60009182526065602090815260408084206001600160a01b0393909316845291905290205460ff1690565b6000806000610aeb84611524565b925092509250610afd8584848461158c565b610b0657600080fd5b5050505050565b600060a254600003610b20575060a15490565b60a254609f5460a054610b339042611d52565b610b3d9190611d69565b610b4f90670de0b6b3a7640000611d69565b610b599190611d88565b60a154610b669190611daa565b905090565b600082815260656020526040902060010154610b878133610c3f565b6108878383610d29565b6000610b9e346000610e18565b9050610a9d81611739565b600054610100900460ff16610bd05760405162461bcd60e51b815260040161068890611de4565b610887838383611742565b600054610100900460ff16610c025760405162461bcd60e51b815260040161068890611de4565b61092c82826117ca565b600054610100900460ff16610c335760405162461bcd60e51b815260040161068890611de4565b565b61092c8282610ca3565b610c498282610ab2565b61092c57610c61816001600160a01b03166014611832565b610c6c836020611832565b604051602001610c7d929190611e5f565b60408051601f198184030181529082905262461bcd60e51b825261068891600401611ed4565b610cad8282610ab2565b61092c5760008281526065602090815260408083206001600160a01b03851684529091529020805460ff19166001179055610ce53390565b6001600160a01b0316816001600160a01b0316837f2f8788117e7eff1d82e926ec794901d17c78024a50270940304540a733656f0d60405160405180910390a45050565b610d338282610ab2565b1561092c5760008281526065602090815260408083206001600160a01b0385168085529252808320805460ff1916905551339285917ff6391f5c32d9c69d2a47ea670b442974b53935d1edc7fd64eb21e047a839171b9190a45050565b6000610a8b8284611d69565b60006003821115610dfd5750806000610db6600283611d88565b610dc1906001611daa565b90505b81811015610df757905080600281610ddc8186611d88565b610de69190611daa565b610df09190611d88565b9050610dc4565b50919050565b8115610e07575060015b919050565b6000610a8b8284611d52565b609b54609a54604080516315ab88c960e31b8152905160009384936001600160a01b039182169363e6a4390593919092169163ad5c46489160048083019260209291908290030181865afa158015610e74573d6000803e3d6000fd5b505050506040513d601f19601f82011682018060405250810190610e989190611f07565b60995460405160e084901b6001600160e01b03191681526001600160a01b03928316600482015291166024820152604401602060405180830381865afa158015610ee6573d6000803e3d6000fd5b505050506040513d601f19601f82011682018060405250810190610f0a9190611f07565b90506000816001600160a01b0316630902f1ac6040518163ffffffff1660e01b8152600401606060405180830381865afa158015610f4c573d6000803e3d6000fd5b505050506040513d601f19601f82011682018060405250810190610f709190611f3b565b50506001600160701b031690506000610f898287610a31565b90506000610f978288611d52565b609c546040516370a0823160e01b81523060048201529192506000916001600160a01b03909116906370a0823190602401602060405180830381865afa158015610fe5573d6000803e3d6000fd5b505050506040513d601f19601f820116820180604052508101906110099190611f8b565b60408051600280825260608201835292935060009290916020830190803683375050609a54604080516315ab88c960e31b815290519394506001600160a01b039091169263ad5c4648925060048083019260209291908290030181865afa158015611078573d6000803e3d6000fd5b505050506040513d601f19601f8201168201806040525081019061109c9190611f07565b816000815181106110af576110af611fa4565b6001600160a01b0392831660209182029290920101526099548251911690829060019081106110e0576110e0611fa4565b6001600160a01b039283166020918202929092010152609a5460405163b6f9de9560e01b815291169063b6f9de9590869061112690600190869030904290600401611fba565b6000604051808303818588803b15801561113f57600080fd5b505af1158015611153573d6000803e3d6000fd5b5050609c546040516370a0823160e01b8152306004820152600094506001600160a01b0390911692506370a082319150602401602060405180830381865afa1580156111a3573d6000803e3d6000fd5b505050506040513d601f19601f820116820180604052508101906111c79190611f8b565b905060006111d58483611d52565b609c5460975460405163095ea7b360e01b81526001600160a01b03918216600482015260248101849052929350169063095ea7b3906044016020604051808303816000875af115801561122c573d6000803e3d6000fd5b505050506040513d601f19601f820116820180604052508101906112509190611dc2565b5060008a61125e5730611260565b335b609a5460995460405163f305d71960e01b81526001600160a01b03918216600482015260248101869052600160448201819052606482015281841660848201524260a482015292935060009283928392169063f305d719908b9060c40160606040518083038185885af11580156112db573d6000803e3d6000fd5b50505050506040513d601f19601f820116820180604052508101906113009190612024565b9250925092507fdd970dd9b5bfe707922155b058a407655cb18288b807e2216442bca8ad83d6b58360405161135c91906040808252600a908201526911105248185b5bdd5b9d60b21b6060820152602081019190915260800190565b60405180910390a160408051818152600a818301526911551208185b5bdd5b9d60b21b60608201526020810184905290517fdd970dd9b5bfe707922155b058a407655cb18288b807e2216442bca8ad83d6b59181900360800190a160408051818152600981830152686c697175696469747960b81b60608201526020810183905290517fdd970dd9b5bfe707922155b058a407655cb18288b807e2216442bca8ad83d6b59181900360800190a19e9d5050505050505050505050505050565b600033611426610b0d565b60a1554260a0556114368161054a565b6001600160a01b038216600090815260a4602090815260408083209390935560a15460a39091529181209190915560a28054859290611476908490611daa565b909155505033600090815260a560205260408120805485929061149a908490611daa565b909155506114a99050836119ce565b609e546040516323b872dd60e01b8152336004820152306024820152604481018590526001600160a01b03909116906323b872dd906064016020604051808303816000875af1158015611500573d6000803e3d6000fd5b505050506040513d601f19601f82011682018060405250810190610a8b9190611dc2565b6000806000835160411461156e5760405162461bcd60e51b8152602060048201526011602482015270696e76616c6964207369676e617475726560781b6044820152606401610688565b50505060208101516040820151606090920151909260009190911a90565b600033611597610b0d565b60a1554260a0556115a78161054a565b6001600160a01b038216600090815260a4602090815260408083209390935560a15460a39091529181209190915560a280548892906115e7908490611daa565b909155505033600090815260a560205260408120805488929061160b908490611daa565b9091555050609e546001600160a01b031663d505accf3330896116314262015180611daa565b6040516001600160e01b031960e087901b1681526001600160a01b0394851660048201529390921660248401526044830152606482015260ff8616608482015260a4810188905260c4810187905260e401600060405180830381600087803b15801561169c57600080fd5b505af11580156116b0573d6000803e3d6000fd5b5050609e546040516323b872dd60e01b8152336004820152306024820152604481018a90526001600160a01b0390911692506323b872dd91506064016020604051808303816000875af115801561170b573d6000803e3d6000fd5b505050506040513d601f19601f8201168201806040525081019061172f9190611dc2565b9695505050505050565b610a9d81611a13565b600054610100900460ff166117695760405162461bcd60e51b815260040161068890611de4565b609780546001600160a01b039485166001600160a01b03199182168117909255609880549486169482168517905560998054939095169281168317909455609a805485169091179055609b80548416909217909155609c8054909216179055565b600054610100900460ff166117f15760405162461bcd60e51b815260040161068890611de4565b609e80546001600160a01b039384166001600160a01b031991821617909155609d80549290931691161790556064609f554260a055600060a181905560a255565b60606000611841836002611d69565b61184c906002611daa565b67ffffffffffffffff81111561186457611864611c6b565b6040519080825280601f01601f19166020018201604052801561188e576020820181803683370190505b509050600360fc1b816000815181106118a9576118a9611fa4565b60200101906001600160f81b031916908160001a905350600f60fb1b816001815181106118d8576118d8611fa4565b60200101906001600160f81b031916908160001a90535060006118fc846002611d69565b611907906001611daa565b90505b600181111561197f576f181899199a1a9b1b9c1cb0b131b232b360811b85600f166010811061193b5761193b611fa4565b1a60f81b82828151811061195157611951611fa4565b60200101906001600160f81b031916908160001a90535060049490941c9361197881612052565b905061190a565b508315610a8b5760405162461bcd60e51b815260206004820181905260248201527f537472696e67733a20686578206c656e67746820696e73756666696369656e746044820152606401610688565b610a9d816040516024016119e491815260200190565b60408051601f198184030181529190526020810180516001600160e01b031663f5b1bba960e01b179052611b12565b33611a1c610b0d565b60a1554260a055611a2c8161054a565b6001600160a01b038216600090815260a4602090815260408083209390935560a15460a39091529181209190915560a28054849290611a6c908490611daa565b909155505033600090815260a5602052604081208054849290611a90908490611daa565b90915550611a9f9050826119ce565b609e546040516370a0823160e01b815230600482015261092c916001600160a01b0316906370a0823190602401602060405180830381865afa158015611ae9573d6000803e3d6000fd5b505050506040513d601f19601f82011682018060405250810190611b0d9190611f8b565b6119ce565b80516a636f6e736f6c652e6c6f67602083016000808483855afa5050505050565b6001600160a01b0381168114610a9d57600080fd5b600060208284031215611b5a57600080fd5b8135610a8b81611b33565b600060208284031215611b7757600080fd5b81356001600160e01b031981168114610a8b57600080fd5b600080600080600060a08688031215611ba757600080fd5b8535611bb281611b33565b94506020860135611bc281611b33565b93506040860135611bd281611b33565b92506060860135611be281611b33565b91506080860135611bf281611b33565b809150509295509295909350565b600060208284031215611c1257600080fd5b5035919050565b60008060408385031215611c2c57600080fd5b823591506020830135611c3e81611b33565b809150509250929050565b60008060408385031215611c5c57600080fd5b50508035926020909101359150565b634e487b7160e01b600052604160045260246000fd5b60008060408385031215611c9457600080fd5b82359150602083013567ffffffffffffffff80821115611cb357600080fd5b818501915085601f830112611cc757600080fd5b813581811115611cd957611cd9611c6b565b604051601f8201601f19908116603f01168101908382118183101715611d0157611d01611c6b565b81604052828152886020848701011115611d1a57600080fd5b8260208601602083013760006020848301015280955050505050509250929050565b634e487b7160e01b600052601160045260246000fd5b600082821015611d6457611d64611d3c565b500390565b6000816000190483118215151615611d8357611d83611d3c565b500290565b600082611da557634e487b7160e01b600052601260045260246000fd5b500490565b60008219821115611dbd57611dbd611d3c565b500190565b600060208284031215611dd457600080fd5b81518015158114610a8b57600080fd5b6020808252602b908201527f496e697469616c697a61626c653a20636f6e7472616374206973206e6f74206960408201526a6e697469616c697a696e6760a81b606082015260800190565b60005b83811015611e4a578181015183820152602001611e32565b83811115611e59576000848401525b50505050565b7f416363657373436f6e74726f6c3a206163636f756e7420000000000000000000815260008351611e97816017850160208801611e2f565b7001034b99036b4b9b9b4b733903937b6329607d1b6017918401918201528351611ec8816028840160208801611e2f565b01602801949350505050565b6020815260008251806020840152611ef3816040850160208701611e2f565b601f01601f19169190910160400192915050565b600060208284031215611f1957600080fd5b8151610a8b81611b33565b80516001600160701b0381168114610e0757600080fd5b600080600060608486031215611f5057600080fd5b611f5984611f24565b9250611f6760208501611f24565b9150604084015163ffffffff81168114611f8057600080fd5b809150509250925092565b600060208284031215611f9d57600080fd5b5051919050565b634e487b7160e01b600052603260045260246000fd5b600060808201868352602060808185015281875180845260a086019150828901935060005b818110156120045784516001600160a01b031683529383019391830191600101611fdf565b50506001600160a01b039690961660408501525050506060015292915050565b60008060006060848603121561203957600080fd5b8351925060208401519150604084015190509250925092565b60008161206157612061611d3c565b50600019019056fea264697066735822122074d250d1cca171ae37577cd7031deddf48316f3aaed1d84bcd81d9e66ccd89d164736f6c634300080d0033",
  "devdoc": {
    "kind": "dev",
    "methods": {
      "getAmount(uint256,uint256)": {
        "details": "according to the Uniswaps whitepaper and its maths, regarding to the swaps and fees the formula to calculate the swap before adding liquidity is s = (sqrt(((2-f)r)^2+4(1-f)ar)-(2-f)r)/(2(1-f)) where s = optimal swap amount r = amount of reserve of token a a = amount of token a the user has f = swap fee percent With the actual fee of 0.3% or 3/1000 we have that the final result is the one inside the  function.",
        "params": {
          "a": "amount of token a the user has",
          "r": "amount of reserve of token a"
        }
      },
      "getRoleAdmin(bytes32)": {
        "details": "Returns the admin role that controls `role`. See {grantRole} and {revokeRole}. To change a role's admin, use {_setRoleAdmin}."
      },
      "grantRole(bytes32,address)": {
        "details": "Grants `role` to `account`. If `account` had not been already granted `role`, emits a {RoleGranted} event. Requirements: - the caller must have ``role``'s admin role."
      },
      "hasRole(bytes32,address)": {
        "details": "Returns `true` if `account` has been granted `role`."
      },
      "initialize(address,address,address,address,address)": {
        "details": "This address is the required by UniSwap for swaps between tokens and ETH",
        "params": {
          "_DAI": "is the address of the DAI Token",
          "_factory": "is the address of the Uniswap Factory V2",
          "_rewardsToken": "is the address of our own Reward Token",
          "_router": "is the address of the Uniswap Router V2",
          "_stakingToken": "is the address of the LP Token from Uniswap"
        }
      },
      "isAdmin(address)": {
        "params": {
          "_address": "is the address for check"
        },
        "returns": {
          "_0": "a boolean, true if the user has the ADMIN_ROLE role or false otherwise"
        }
      },
      "renounceRole(bytes32,address)": {
        "details": "Revokes `role` from the calling account. Roles are often managed via {grantRole} and {revokeRole}: this function's purpose is to provide a mechanism for accounts to lose their privileges if they are compromised (such as when a trusted device is misplaced). If the calling account had been revoked `role`, emits a {RoleRevoked} event. Requirements: - the caller must be `account`."
      },
      "revokeRole(bytes32,address)": {
        "details": "Revokes `role` from `account`. If `account` had been granted `role`, emits a {RoleRevoked} event. Requirements: - the caller must have ``role``'s admin role."
      },
      "stakeLPWithPermit(uint256,bytes)": {
        "details": "This function doesn't require the user to do an Approval transaction beforeThis function require a signature by the user in the off-chain",
        "params": {
          "_amount": "is a uint which is the amount of LP Tokens to be staked"
        }
      },
      "stakeLPWithoutPermit(uint256)": {
        "details": "This function require the user to do an Approval transaction before",
        "params": {
          "_amount": "is a uint which is the amount of LP Tokens to be staked"
        }
      },
      "supportsInterface(bytes4)": {
        "details": "See {IERC165-supportsInterface}."
      },
      "swapAddLiquidityAndReturnLP()": {
        "details": "only adds liquidity to the ETH / DAI pool"
      },
      "swapAddLiquidityAndStakeLP()": {
        "details": "only adds liquidity to the ETH / DAI pool"
      },
      "withdraw(uint256)": {
        "params": {
          "_amount": "is a uint with the amount of LP Tokens to be withdrawed"
        }
      }
    },
    "version": 1
  },
  "userdoc": {
    "events": {
      "Log(string,uint256)": {
        "notice": "EVENTS "
      },
      "RewardClaimed(address,uint256)": {
        "notice": "EVENTS"
      }
    },
    "kind": "user",
    "methods": {
      "ADMIN_ROLE()": {
        "notice": "CONSTANTS"
      },
      "getAmount(uint256,uint256)": {
        "notice": "an auxiliar function to get the optimal swap amount to add liquidity"
      },
      "getReward()": {
        "notice": "Function that allows a user to withdraw his Reward tokens"
      },
      "initialize(address,address,address,address,address)": {
        "notice": "Function initializer of this upgradeable contract"
      },
      "isAdmin(address)": {
        "notice": "Function that allow to know if an address has the ADMIN_ROLE role"
      },
      "rewardPerToken()": {
        "notice": "functions to calculate rewards and earnings"
      },
      "rewardsToken()": {
        "notice": "VARIABLES"
      },
      "stakeLPWithPermit(uint256,bytes)": {
        "notice": "Function used to stake LP tokens already owned by the user"
      },
      "stakeLPWithoutPermit(uint256)": {
        "notice": "Function used to stake LP tokens already owned by the user"
      },
      "swapAddLiquidityAndReturnLP()": {
        "notice": "the main function to swap and add liquiditythis function returns the LP Tokens to the msg sender"
      },
      "swapAddLiquidityAndStakeLP()": {
        "notice": "the main function to swap and add liquiditythis function returns the LP Tokens to the msg sender"
      },
      "userRewardPerTokenPaid(address)": {
        "notice": "MAPPINGS"
      },
      "withdraw(uint256)": {
        "notice": "Function that allows a user to withdraw his LP Tokens staked in the contract"
      }
    },
    "version": 1
  },
  "storageLayout": {
    "storage": [
      {
        "astId": 408,
        "contract": "contracts/LPStacking.sol:LPStaking",
        "label": "_initialized",
        "offset": 0,
        "slot": "0",
        "type": "t_bool"
      },
      {
        "astId": 411,
        "contract": "contracts/LPStacking.sol:LPStaking",
        "label": "_initializing",
        "offset": 1,
        "slot": "0",
        "type": "t_bool"
      },
      {
        "astId": 1475,
        "contract": "contracts/LPStacking.sol:LPStaking",
        "label": "__gap",
        "offset": 0,
        "slot": "1",
        "type": "t_array(t_uint256)50_storage"
      },
      {
        "astId": 1722,
        "contract": "contracts/LPStacking.sol:LPStaking",
        "label": "__gap",
        "offset": 0,
        "slot": "51",
        "type": "t_array(t_uint256)50_storage"
      },
      {
        "astId": 39,
        "contract": "contracts/LPStacking.sol:LPStaking",
        "label": "_roles",
        "offset": 0,
        "slot": "101",
        "type": "t_mapping(t_bytes32,t_struct(RoleData)34_storage)"
      },
      {
        "astId": 327,
        "contract": "contracts/LPStacking.sol:LPStaking",
        "label": "__gap",
        "offset": 0,
        "slot": "102",
        "type": "t_array(t_uint256)49_storage"
      },
      {
        "astId": 3144,
        "contract": "contracts/LPStacking.sol:LPStaking",
        "label": "ROUTER",
        "offset": 0,
        "slot": "151",
        "type": "t_address"
      },
      {
        "astId": 3146,
        "contract": "contracts/LPStacking.sol:LPStaking",
        "label": "FACTORY",
        "offset": 0,
        "slot": "152",
        "type": "t_address"
      },
      {
        "astId": 3148,
        "contract": "contracts/LPStacking.sol:LPStaking",
        "label": "DAI",
        "offset": 0,
        "slot": "153",
        "type": "t_address"
      },
      {
        "astId": 3151,
        "contract": "contracts/LPStacking.sol:LPStaking",
        "label": "router",
        "offset": 0,
        "slot": "154",
        "type": "t_contract(IUniswapV2Router02)2944"
      },
      {
        "astId": 3154,
        "contract": "contracts/LPStacking.sol:LPStaking",
        "label": "factory",
        "offset": 0,
        "slot": "155",
        "type": "t_contract(IUniswapV2Factory)2306"
      },
      {
        "astId": 3157,
        "contract": "contracts/LPStacking.sol:LPStaking",
        "label": "dai",
        "offset": 0,
        "slot": "156",
        "type": "t_contract(IERC20)1813"
      },
      {
        "astId": 3648,
        "contract": "contracts/LPStacking.sol:LPStaking",
        "label": "rewardsToken",
        "offset": 0,
        "slot": "157",
        "type": "t_contract(IERC20Upgradeable)1166"
      },
      {
        "astId": 3651,
        "contract": "contracts/LPStacking.sol:LPStaking",
        "label": "stakingToken",
        "offset": 0,
        "slot": "158",
        "type": "t_contract(IUniswapV2ERC20)2243"
      },
      {
        "astId": 3653,
        "contract": "contracts/LPStacking.sol:LPStaking",
        "label": "rewardRate",
        "offset": 0,
        "slot": "159",
        "type": "t_uint256"
      },
      {
        "astId": 3655,
        "contract": "contracts/LPStacking.sol:LPStaking",
        "label": "lastUpdateTime",
        "offset": 0,
        "slot": "160",
        "type": "t_uint256"
      },
      {
        "astId": 3657,
        "contract": "contracts/LPStacking.sol:LPStaking",
        "label": "rewardPerTokenStored",
        "offset": 0,
        "slot": "161",
        "type": "t_uint256"
      },
      {
        "astId": 3659,
        "contract": "contracts/LPStacking.sol:LPStaking",
        "label": "totalSupply",
        "offset": 0,
        "slot": "162",
        "type": "t_uint256"
      },
      {
        "astId": 3664,
        "contract": "contracts/LPStacking.sol:LPStaking",
        "label": "userRewardPerTokenPaid",
        "offset": 0,
        "slot": "163",
        "type": "t_mapping(t_address,t_uint256)"
      },
      {
        "astId": 3668,
        "contract": "contracts/LPStacking.sol:LPStaking",
        "label": "rewards",
        "offset": 0,
        "slot": "164",
        "type": "t_mapping(t_address,t_uint256)"
      },
      {
        "astId": 3672,
        "contract": "contracts/LPStacking.sol:LPStaking",
        "label": "balances",
        "offset": 0,
        "slot": "165",
        "type": "t_mapping(t_address,t_uint256)"
      },
      {
        "astId": 2984,
        "contract": "contracts/LPStacking.sol:LPStaking",
        "label": "mainRouter",
        "offset": 0,
        "slot": "166",
        "type": "t_address"
      },
      {
        "astId": 2986,
        "contract": "contracts/LPStacking.sol:LPStaking",
        "label": "mainFactory",
        "offset": 0,
        "slot": "167",
        "type": "t_address"
      },
      {
        "astId": 2988,
        "contract": "contracts/LPStacking.sol:LPStaking",
        "label": "DAI",
        "offset": 0,
        "slot": "168",
        "type": "t_address"
      }
    ],
    "types": {
      "t_address": {
        "encoding": "inplace",
        "label": "address",
        "numberOfBytes": "20"
      },
      "t_array(t_uint256)49_storage": {
        "base": "t_uint256",
        "encoding": "inplace",
        "label": "uint256[49]",
        "numberOfBytes": "1568"
      },
      "t_array(t_uint256)50_storage": {
        "base": "t_uint256",
        "encoding": "inplace",
        "label": "uint256[50]",
        "numberOfBytes": "1600"
      },
      "t_bool": {
        "encoding": "inplace",
        "label": "bool",
        "numberOfBytes": "1"
      },
      "t_bytes32": {
        "encoding": "inplace",
        "label": "bytes32",
        "numberOfBytes": "32"
      },
      "t_contract(IERC20)1813": {
        "encoding": "inplace",
        "label": "contract IERC20",
        "numberOfBytes": "20"
      },
      "t_contract(IERC20Upgradeable)1166": {
        "encoding": "inplace",
        "label": "contract IERC20Upgradeable",
        "numberOfBytes": "20"
      },
      "t_contract(IUniswapV2ERC20)2243": {
        "encoding": "inplace",
        "label": "contract IUniswapV2ERC20",
        "numberOfBytes": "20"
      },
      "t_contract(IUniswapV2Factory)2306": {
        "encoding": "inplace",
        "label": "contract IUniswapV2Factory",
        "numberOfBytes": "20"
      },
      "t_contract(IUniswapV2Router02)2944": {
        "encoding": "inplace",
        "label": "contract IUniswapV2Router02",
        "numberOfBytes": "20"
      },
      "t_mapping(t_address,t_bool)": {
        "encoding": "mapping",
        "key": "t_address",
        "label": "mapping(address => bool)",
        "numberOfBytes": "32",
        "value": "t_bool"
      },
      "t_mapping(t_address,t_uint256)": {
        "encoding": "mapping",
        "key": "t_address",
        "label": "mapping(address => uint256)",
        "numberOfBytes": "32",
        "value": "t_uint256"
      },
      "t_mapping(t_bytes32,t_struct(RoleData)34_storage)": {
        "encoding": "mapping",
        "key": "t_bytes32",
        "label": "mapping(bytes32 => struct AccessControlUpgradeable.RoleData)",
        "numberOfBytes": "32",
        "value": "t_struct(RoleData)34_storage"
      },
      "t_struct(RoleData)34_storage": {
        "encoding": "inplace",
        "label": "struct AccessControlUpgradeable.RoleData",
        "members": [
          {
            "astId": 31,
            "contract": "contracts/LPStacking.sol:LPStaking",
            "label": "members",
            "offset": 0,
            "slot": "0",
            "type": "t_mapping(t_address,t_bool)"
          },
          {
            "astId": 33,
            "contract": "contracts/LPStacking.sol:LPStaking",
            "label": "adminRole",
            "offset": 0,
            "slot": "1",
            "type": "t_bytes32"
          }
        ],
        "numberOfBytes": "64"
      },
      "t_uint256": {
        "encoding": "inplace",
        "label": "uint256",
        "numberOfBytes": "32"
      }
    }
  }
}