{
  "address": "0xa82C2D352b90e14F42C972960fD7De43f5BA5E5f",
  "abi": [
    {
      "anonymous": false,
      "inputs": [
        {
          "indexed": false,
          "internalType": "string",
          "name": "message",
          "type": "string"
        },
        {
          "indexed": false,
          "internalType": "uint256",
          "name": "value",
          "type": "uint256"
        }
      ],
      "name": "Log",
      "type": "event"
    },
    {
      "anonymous": false,
      "inputs": [
        {
          "indexed": false,
          "internalType": "address",
          "name": "account",
          "type": "address"
        },
        {
          "indexed": false,
          "internalType": "uint256",
          "name": "amount",
          "type": "uint256"
        }
      ],
      "name": "RewardClaimed",
      "type": "event"
    },
    {
      "anonymous": false,
      "inputs": [
        {
          "indexed": true,
          "internalType": "bytes32",
          "name": "role",
          "type": "bytes32"
        },
        {
          "indexed": true,
          "internalType": "bytes32",
          "name": "previousAdminRole",
          "type": "bytes32"
        },
        {
          "indexed": true,
          "internalType": "bytes32",
          "name": "newAdminRole",
          "type": "bytes32"
        }
      ],
      "name": "RoleAdminChanged",
      "type": "event"
    },
    {
      "anonymous": false,
      "inputs": [
        {
          "indexed": true,
          "internalType": "bytes32",
          "name": "role",
          "type": "bytes32"
        },
        {
          "indexed": true,
          "internalType": "address",
          "name": "account",
          "type": "address"
        },
        {
          "indexed": true,
          "internalType": "address",
          "name": "sender",
          "type": "address"
        }
      ],
      "name": "RoleGranted",
      "type": "event"
    },
    {
      "anonymous": false,
      "inputs": [
        {
          "indexed": true,
          "internalType": "bytes32",
          "name": "role",
          "type": "bytes32"
        },
        {
          "indexed": true,
          "internalType": "address",
          "name": "account",
          "type": "address"
        },
        {
          "indexed": true,
          "internalType": "address",
          "name": "sender",
          "type": "address"
        }
      ],
      "name": "RoleRevoked",
      "type": "event"
    },
    {
      "inputs": [],
      "name": "ADMIN_ROLE",
      "outputs": [
        {
          "internalType": "bytes32",
          "name": "",
          "type": "bytes32"
        }
      ],
      "stateMutability": "view",
      "type": "function"
    },
    {
      "inputs": [],
      "name": "DAI",
      "outputs": [
        {
          "internalType": "address",
          "name": "",
          "type": "address"
        }
      ],
      "stateMutability": "view",
      "type": "function"
    },
    {
      "inputs": [],
      "name": "DEFAULT_ADMIN_ROLE",
      "outputs": [
        {
          "internalType": "bytes32",
          "name": "",
          "type": "bytes32"
        }
      ],
      "stateMutability": "view",
      "type": "function"
    },
    {
      "inputs": [],
      "name": "FACTORY",
      "outputs": [
        {
          "internalType": "address",
          "name": "",
          "type": "address"
        }
      ],
      "stateMutability": "view",
      "type": "function"
    },
    {
      "inputs": [],
      "name": "ROUTER",
      "outputs": [
        {
          "internalType": "address",
          "name": "",
          "type": "address"
        }
      ],
      "stateMutability": "view",
      "type": "function"
    },
    {
      "inputs": [
        {
          "internalType": "address",
          "name": "",
          "type": "address"
        }
      ],
      "name": "balances",
      "outputs": [
        {
          "internalType": "uint256",
          "name": "",
          "type": "uint256"
        }
      ],
      "stateMutability": "view",
      "type": "function"
    },
    {
      "inputs": [],
      "name": "dai",
      "outputs": [
        {
          "internalType": "contract IERC20",
          "name": "",
          "type": "address"
        }
      ],
      "stateMutability": "view",
      "type": "function"
    },
    {
      "inputs": [
        {
          "internalType": "address",
          "name": "account",
          "type": "address"
        }
      ],
      "name": "earned",
      "outputs": [
        {
          "internalType": "uint256",
          "name": "",
          "type": "uint256"
        }
      ],
      "stateMutability": "view",
      "type": "function"
    },
    {
      "inputs": [],
      "name": "factory",
      "outputs": [
        {
          "internalType": "contract IUniswapV2Factory",
          "name": "",
          "type": "address"
        }
      ],
      "stateMutability": "view",
      "type": "function"
    },
    {
      "inputs": [
        {
          "internalType": "uint256",
          "name": "r",
          "type": "uint256"
        },
        {
          "internalType": "uint256",
          "name": "a",
          "type": "uint256"
        }
      ],
      "name": "getAmount",
      "outputs": [
        {
          "internalType": "uint256",
          "name": "",
          "type": "uint256"
        }
      ],
      "stateMutability": "pure",
      "type": "function"
    },
    {
      "inputs": [],
      "name": "getReward",
      "outputs": [],
      "stateMutability": "nonpayable",
      "type": "function"
    },
    {
      "inputs": [
        {
          "internalType": "bytes32",
          "name": "role",
          "type": "bytes32"
        }
      ],
      "name": "getRoleAdmin",
      "outputs": [
        {
          "internalType": "bytes32",
          "name": "",
          "type": "bytes32"
        }
      ],
      "stateMutability": "view",
      "type": "function"
    },
    {
      "inputs": [
        {
          "internalType": "bytes32",
          "name": "role",
          "type": "bytes32"
        },
        {
          "internalType": "address",
          "name": "account",
          "type": "address"
        }
      ],
      "name": "grantRole",
      "outputs": [],
      "stateMutability": "nonpayable",
      "type": "function"
    },
    {
      "inputs": [
        {
          "internalType": "bytes32",
          "name": "role",
          "type": "bytes32"
        },
        {
          "internalType": "address",
          "name": "account",
          "type": "address"
        }
      ],
      "name": "hasRole",
      "outputs": [
        {
          "internalType": "bool",
          "name": "",
          "type": "bool"
        }
      ],
      "stateMutability": "view",
      "type": "function"
    },
    {
      "inputs": [
        {
          "internalType": "address",
          "name": "_router",
          "type": "address"
        },
        {
          "internalType": "address",
          "name": "_factory",
          "type": "address"
        },
        {
          "internalType": "address",
          "name": "_DAI",
          "type": "address"
        },
        {
          "internalType": "address",
          "name": "_stakingToken",
          "type": "address"
        },
        {
          "internalType": "address",
          "name": "_rewardsToken",
          "type": "address"
        }
      ],
      "name": "initialize",
      "outputs": [],
      "stateMutability": "nonpayable",
      "type": "function"
    },
    {
      "inputs": [
        {
          "internalType": "address",
          "name": "_address",
          "type": "address"
        }
      ],
      "name": "isAdmin",
      "outputs": [
        {
          "internalType": "bool",
          "name": "",
          "type": "bool"
        }
      ],
      "stateMutability": "view",
      "type": "function"
    },
    {
      "inputs": [],
      "name": "lastUpdateTime",
      "outputs": [
        {
          "internalType": "uint256",
          "name": "",
          "type": "uint256"
        }
      ],
      "stateMutability": "view",
      "type": "function"
    },
    {
      "inputs": [
        {
          "internalType": "bytes32",
          "name": "role",
          "type": "bytes32"
        },
        {
          "internalType": "address",
          "name": "account",
          "type": "address"
        }
      ],
      "name": "renounceRole",
      "outputs": [],
      "stateMutability": "nonpayable",
      "type": "function"
    },
    {
      "inputs": [
        {
          "internalType": "bytes32",
          "name": "role",
          "type": "bytes32"
        },
        {
          "internalType": "address",
          "name": "account",
          "type": "address"
        }
      ],
      "name": "revokeRole",
      "outputs": [],
      "stateMutability": "nonpayable",
      "type": "function"
    },
    {
      "inputs": [],
      "name": "rewardPerToken",
      "outputs": [
        {
          "internalType": "uint256",
          "name": "",
          "type": "uint256"
        }
      ],
      "stateMutability": "view",
      "type": "function"
    },
    {
      "inputs": [],
      "name": "rewardPerTokenStored",
      "outputs": [
        {
          "internalType": "uint256",
          "name": "",
          "type": "uint256"
        }
      ],
      "stateMutability": "view",
      "type": "function"
    },
    {
      "inputs": [],
      "name": "rewardRate",
      "outputs": [
        {
          "internalType": "uint256",
          "name": "",
          "type": "uint256"
        }
      ],
      "stateMutability": "view",
      "type": "function"
    },
    {
      "inputs": [
        {
          "internalType": "address",
          "name": "",
          "type": "address"
        }
      ],
      "name": "rewards",
      "outputs": [
        {
          "internalType": "uint256",
          "name": "",
          "type": "uint256"
        }
      ],
      "stateMutability": "view",
      "type": "function"
    },
    {
      "inputs": [],
      "name": "rewardsToken",
      "outputs": [
        {
          "internalType": "contract IERC20Upgradeable",
          "name": "",
          "type": "address"
        }
      ],
      "stateMutability": "view",
      "type": "function"
    },
    {
      "inputs": [],
      "name": "router",
      "outputs": [
        {
          "internalType": "contract IUniswapV2Router02",
          "name": "",
          "type": "address"
        }
      ],
      "stateMutability": "view",
      "type": "function"
    },
    {
      "inputs": [
        {
          "internalType": "address",
          "name": "_DAI",
          "type": "address"
        }
      ],
      "name": "setDAI",
      "outputs": [],
      "stateMutability": "nonpayable",
      "type": "function"
    },
    {
      "inputs": [
        {
          "internalType": "address",
          "name": "_FACTORY",
          "type": "address"
        }
      ],
      "name": "setFactory",
      "outputs": [],
      "stateMutability": "nonpayable",
      "type": "function"
    },
    {
      "inputs": [
        {
          "internalType": "uint256",
          "name": "_rewardRate",
          "type": "uint256"
        }
      ],
      "name": "setRewardRate",
      "outputs": [],
      "stateMutability": "nonpayable",
      "type": "function"
    },
    {
      "inputs": [
        {
          "internalType": "address",
          "name": "_rewardsToken",
          "type": "address"
        }
      ],
      "name": "setRewardsToken",
      "outputs": [],
      "stateMutability": "nonpayable",
      "type": "function"
    },
    {
      "inputs": [
        {
          "internalType": "address",
          "name": "_ROUTER",
          "type": "address"
        }
      ],
      "name": "setRouter",
      "outputs": [],
      "stateMutability": "nonpayable",
      "type": "function"
    },
    {
      "inputs": [
        {
          "internalType": "address",
          "name": "_stakingToken",
          "type": "address"
        }
      ],
      "name": "setStakingToken",
      "outputs": [],
      "stateMutability": "nonpayable",
      "type": "function"
    },
    {
      "inputs": [
        {
          "internalType": "uint256",
          "name": "_amount",
          "type": "uint256"
        },
        {
          "internalType": "bytes",
          "name": "sig",
          "type": "bytes"
        }
      ],
      "name": "stakeLPWithPermit",
      "outputs": [],
      "stateMutability": "nonpayable",
      "type": "function"
    },
    {
      "inputs": [
        {
          "internalType": "uint256",
          "name": "_amount",
          "type": "uint256"
        }
      ],
      "name": "stakeLPWithoutPermit",
      "outputs": [],
      "stateMutability": "nonpayable",
      "type": "function"
    },
    {
      "inputs": [],
      "name": "stakingToken",
      "outputs": [
        {
          "internalType": "contract IUniswapV2ERC20",
          "name": "",
          "type": "address"
        }
      ],
      "stateMutability": "view",
      "type": "function"
    },
    {
      "inputs": [
        {
          "internalType": "bytes4",
          "name": "interfaceId",
          "type": "bytes4"
        }
      ],
      "name": "supportsInterface",
      "outputs": [
        {
          "internalType": "bool",
          "name": "",
          "type": "bool"
        }
      ],
      "stateMutability": "view",
      "type": "function"
    },
    {
      "inputs": [],
      "name": "swapAddLiquidityAndReturnLP",
      "outputs": [],
      "stateMutability": "payable",
      "type": "function"
    },
    {
      "inputs": [],
      "name": "swapAddLiquidityAndStakeLP",
      "outputs": [],
      "stateMutability": "payable",
      "type": "function"
    },
    {
      "inputs": [],
      "name": "totalSupply",
      "outputs": [
        {
          "internalType": "uint256",
          "name": "",
          "type": "uint256"
        }
      ],
      "stateMutability": "view",
      "type": "function"
    },
    {
      "inputs": [
        {
          "internalType": "address",
          "name": "",
          "type": "address"
        }
      ],
      "name": "userRewardPerTokenPaid",
      "outputs": [
        {
          "internalType": "uint256",
          "name": "",
          "type": "uint256"
        }
      ],
      "stateMutability": "view",
      "type": "function"
    },
    {
      "inputs": [
        {
          "internalType": "uint256",
          "name": "_amount",
          "type": "uint256"
        }
      ],
      "name": "withdraw",
      "outputs": [],
      "stateMutability": "nonpayable",
      "type": "function"
    }
  ],
  "transactionHash": "0xeed51388341d1a1e3a81b8b82abb4e46e8338fbdc12bdbe057a7b1520c0ec85a",
  "args": [],
  "numDeployments": 1,
  "solcInputHash": "984f229352a817782683c22520edc851",
  "bytecode": "0x608060405234801561001057600080fd5b506121aa806100206000396000f3fe60806040526004361061023a5760003560e01c8063809b0c2d1161012e578063c8f33c91116100ab578063df136d651161006f578063df136d65146106be578063e0bab4c4146106d4578063ea246827146106f4578063f4b9fa75146106fc578063f887ea401461071c57600080fd5b8063c8f33c9114610633578063cd3daf9d14610649578063d1af0c7d1461065e578063d547741f1461067e578063de320cc11461069e57600080fd5b8063a217fddf116100f2578063a217fddf1461059e578063aae693e0146105b3578063b97dbf59146105d3578063c0d78655146105f3578063c45a01551461061357600080fd5b8063809b0c2d146105095780638408b5ac146105115780638b8763471461053157806391d148541461055e5780639e447fc61461057e57600080fd5b80632e1a7d4d116101bc5780634ca98997116101805780634ca98997146104715780635bb478081461049157806372f702f3146104b157806375b238fc146104d15780637b0a47ee146104f357600080fd5b80632e1a7d4d146103dc5780632f2ff15d146103fc57806332fe7b261461041c57806336568abe1461043c5780633d18b9121461045c57600080fd5b80631e9b12ef116102035780631e9b12ef14610307578063248a9ca31461032757806324d7806c1461035757806327e235e3146103775780632dd31000146103a457600080fd5b80628cc2621461023f57806301ffc9a7146102725780630700037d146102a25780631459457a146102cf57806318160ddd146102f1575b600080fd5b34801561024b57600080fd5b5061025f61025a366004611c7e565b61073c565b6040519081526020015b60405180910390f35b34801561027e57600080fd5b5061029261028d366004611c9b565b6107c7565b6040519015158152602001610269565b3480156102ae57600080fd5b5061025f6102bd366004611c7e565b60a46020526000908152604090205481565b3480156102db57600080fd5b506102ef6102ea366004611cc5565b6107fc565b005b3480156102fd57600080fd5b5061025f60a25481565b34801561031357600080fd5b506102ef610322366004611c7e565b61092a565b34801561033357600080fd5b5061025f610342366004611d36565b60009081526065602052604090206001015490565b34801561036357600080fd5b50610292610372366004611c7e565b610966565b34801561038357600080fd5b5061025f610392366004611c7e565b60a56020526000908152604090205481565b3480156103b057600080fd5b506098546103c4906001600160a01b031681565b6040516001600160a01b039091168152602001610269565b3480156103e857600080fd5b506102ef6103f7366004611d36565b610980565b34801561040857600080fd5b506102ef610417366004611d4f565b610a8d565b34801561042857600080fd5b506097546103c4906001600160a01b031681565b34801561044857600080fd5b506102ef610457366004611d4f565b610ab3565b34801561046857600080fd5b506102ef610b31565b34801561047d57600080fd5b5061025f61048c366004611d7f565b610c32565b34801561049d57600080fd5b506102ef6104ac366004611c7e565b610c93565b3480156104bd57600080fd5b50609e546103c4906001600160a01b031681565b3480156104dd57600080fd5b5061025f60008051602061215583398151915281565b3480156104ff57600080fd5b5061025f609f5481565b6102ef610cd9565b34801561051d57600080fd5b506102ef61052c366004611d36565b610ce7565b34801561053d57600080fd5b5061025f61054c366004611c7e565b60a36020526000908152604090205481565b34801561056a57600080fd5b50610292610579366004611d4f565b610cf9565b34801561058a57600080fd5b506102ef610599366004611d36565b610d24565b3480156105aa57600080fd5b5061025f600081565b3480156105bf57600080fd5b506102ef6105ce366004611db7565b610d43565b3480156105df57600080fd5b506102ef6105ee366004611c7e565b610d73565b3480156105ff57600080fd5b506102ef61060e366004611c7e565b610db9565b34801561061f57600080fd5b50609b546103c4906001600160a01b031681565b34801561063f57600080fd5b5061025f60a05481565b34801561065557600080fd5b5061025f610dff565b34801561066a57600080fd5b50609d546103c4906001600160a01b031681565b34801561068a57600080fd5b506102ef610699366004611d4f565b610e5d565b3480156106aa57600080fd5b506102ef6106b9366004611c7e565b610e83565b3480156106ca57600080fd5b5061025f60a15481565b3480156106e057600080fd5b506099546103c4906001600160a01b031681565b6102ef610ebf565b34801561070857600080fd5b50609c546103c4906001600160a01b031681565b34801561072857600080fd5b50609a546103c4906001600160a01b031681565b6001600160a01b038116600090815260a36020526040812054670de0b6b3a764000090610767610dff565b6107719190611e88565b6001600160a01b038416600090815260a560205260409020546107949190611e9f565b61079e9190611ebe565b6001600160a01b038316600090815260a460205260409020546107c19190611ee0565b92915050565b60006001600160e01b03198216637965db0b60e01b14806107c157506301ffc9a760e01b6001600160e01b03198316146107c1565b600054610100900460ff166108175760005460ff161561081b565b303b155b6108835760405162461bcd60e51b815260206004820152602e60248201527f496e697469616c697a61626c653a20636f6e747261637420697320616c72656160448201526d191e481a5b9a5d1a585b1a5e995960921b60648201526084015b60405180910390fd5b600054610100900460ff161580156108a5576000805461ffff19166101011790555b6108ad610ed7565b6108b5610ed7565b6108bd610ed7565b6108d560008051602061215583398151915233610f44565b6108de86610db9565b6108e785610c93565b6108f084610d73565b6108f98361092a565b61090282610e83565b61090c6064610d24565b4260a0558015610922576000805461ff00191690555b505050505050565b6000805160206121558339815191526109438133610f4e565b50609e80546001600160a01b0319166001600160a01b0392909216919091179055565b60006107c160008051602061215583398151915283610cf9565b33610989610dff565b60a1554260a0556109998161073c565b6001600160a01b038216600090815260a4602090815260408083209390935560a15460a382528383205533825260a5905220548211156109d857600080fd5b8160a260008282546109ea9190611e88565b909155505033600090815260a5602052604081208054849290610a0e908490611e88565b9091555050609e5460405163a9059cbb60e01b8152336004820152602481018490526001600160a01b039091169063a9059cbb906044016020604051808303816000875af1158015610a64573d6000803e3d6000fd5b505050506040513d601f19601f82011682018060405250810190610a889190611ef8565b505050565b600082815260656020526040902060010154610aa98133610f4e565b610a888383610fb2565b6001600160a01b0381163314610b235760405162461bcd60e51b815260206004820152602f60248201527f416363657373436f6e74726f6c3a2063616e206f6e6c792072656e6f756e636560448201526e103937b632b9903337b91039b2b63360891b606482015260840161087a565b610b2d8282611038565b5050565b33610b3a610dff565b60a1554260a055610b4a8161073c565b6001600160a01b03828116600090815260a4602081815260408084209590955560a15460a3825285842055338084529190528382208054929055609d54935163a9059cbb60e01b815260048101919091526024810182905290929091169063a9059cbb906044016020604051808303816000875af1158015610bd0573d6000803e3d6000fd5b505050506040513d601f19601f82011682018060405250810190610bf49190611ef8565b5060408051338152602081018390527f106f923f993c2149d49b4255ff723acafa1f2d94393f561d3eda32ae348f7241910160405180910390a15050565b60006107ca610c82610c46856107cd61109f565b610c7c610c77610c5987623cda2061109f565b610c6689623cda2961109f565b610c709190611ee0565b889061109f565b6110ab565b9061111b565b610c8c9190611ebe565b9392505050565b600080516020612155833981519152610cac8133610f4e565b50609880546001600160a01b039092166001600160a01b03199283168117909155609b8054909216179055565b610ce4346001611127565b50565b610cf08161172a565b610ce457600080fd5b60009182526065602090815260408084206001600160a01b0393909316845291905290205460ff1690565b600080516020612155833981519152610d3d8133610f4e565b50609f55565b6000806000610d5184611829565b925092509250610d6385848484611891565b610d6c57600080fd5b5050505050565b600080516020612155833981519152610d8c8133610f4e565b50609980546001600160a01b039092166001600160a01b03199283168117909155609c8054909216179055565b600080516020612155833981519152610dd28133610f4e565b50609780546001600160a01b039092166001600160a01b03199283168117909155609a8054909216179055565b600060a254600003610e12575060a15490565b60a254609f5460a054610e259042611e88565b610e2f9190611e9f565b610e4190670de0b6b3a7640000611e9f565b610e4b9190611ebe565b60a154610e589190611ee0565b905090565b600082815260656020526040902060010154610e798133610f4e565b610a888383611038565b600080516020612155833981519152610e9c8133610f4e565b50609d80546001600160a01b0319166001600160a01b0392909216919091179055565b6000610ecc346000611127565b9050610ce481611a3e565b600054610100900460ff16610f425760405162461bcd60e51b815260206004820152602b60248201527f496e697469616c697a61626c653a20636f6e7472616374206973206e6f74206960448201526a6e697469616c697a696e6760a81b606482015260840161087a565b565b610b2d8282610fb2565b610f588282610cf9565b610b2d57610f70816001600160a01b03166014611a47565b610f7b836020611a47565b604051602001610f8c929190611f4a565b60408051601f198184030181529082905262461bcd60e51b825261087a91600401611fbf565b610fbc8282610cf9565b610b2d5760008281526065602090815260408083206001600160a01b03851684529091529020805460ff19166001179055610ff43390565b6001600160a01b0316816001600160a01b0316837f2f8788117e7eff1d82e926ec794901d17c78024a50270940304540a733656f0d60405160405180910390a45050565b6110428282610cf9565b15610b2d5760008281526065602090815260408083206001600160a01b0385168085529252808320805460ff1916905551339285917ff6391f5c32d9c69d2a47ea670b442974b53935d1edc7fd64eb21e047a839171b9190a45050565b6000610c8c8284611e9f565b6000600382111561110c57508060006110c5600283611ebe565b6110d0906001611ee0565b90505b81811015611106579050806002816110eb8186611ebe565b6110f59190611ee0565b6110ff9190611ebe565b90506110d3565b50919050565b8115611116575060015b919050565b6000610c8c8284611e88565b609b54609a54604080516315ab88c960e31b8152905160009384936001600160a01b039182169363e6a4390593919092169163ad5c46489160048083019260209291908290030181865afa158015611183573d6000803e3d6000fd5b505050506040513d601f19601f820116820180604052508101906111a79190611ff2565b60995460405160e084901b6001600160e01b03191681526001600160a01b03928316600482015291166024820152604401602060405180830381865afa1580156111f5573d6000803e3d6000fd5b505050506040513d601f19601f820116820180604052508101906112199190611ff2565b90506000816001600160a01b0316630902f1ac6040518163ffffffff1660e01b8152600401606060405180830381865afa15801561125b573d6000803e3d6000fd5b505050506040513d601f19601f8201168201806040525081019061127f9190612026565b50506001600160701b0316905060006112988287610c32565b905060006112a68288611e88565b609c546040516370a0823160e01b81523060048201529192506000916001600160a01b03909116906370a0823190602401602060405180830381865afa1580156112f4573d6000803e3d6000fd5b505050506040513d601f19601f820116820180604052508101906113189190612076565b60408051600280825260608201835292935060009290916020830190803683375050609a54604080516315ab88c960e31b815290519394506001600160a01b039091169263ad5c4648925060048083019260209291908290030181865afa158015611387573d6000803e3d6000fd5b505050506040513d601f19601f820116820180604052508101906113ab9190611ff2565b816000815181106113be576113be61208f565b6001600160a01b0392831660209182029290920101526099548251911690829060019081106113ef576113ef61208f565b6001600160a01b039283166020918202929092010152609a5460405163b6f9de9560e01b815291169063b6f9de95908690611435906001908690309042906004016120a5565b6000604051808303818588803b15801561144e57600080fd5b505af1158015611462573d6000803e3d6000fd5b5050609c546040516370a0823160e01b8152306004820152600094506001600160a01b0390911692506370a082319150602401602060405180830381865afa1580156114b2573d6000803e3d6000fd5b505050506040513d601f19601f820116820180604052508101906114d69190612076565b905060006114e48483611e88565b609c5460975460405163095ea7b360e01b81526001600160a01b03918216600482015260248101849052929350169063095ea7b3906044016020604051808303816000875af115801561153b573d6000803e3d6000fd5b505050506040513d601f19601f8201168201806040525081019061155f9190611ef8565b5060008a61156d573061156f565b335b609a5460995460405163f305d71960e01b81526001600160a01b03918216600482015260248101869052600160448201819052606482015281841660848201524260a482015292935060009283928392169063f305d719908b9060c40160606040518083038185885af11580156115ea573d6000803e3d6000fd5b50505050506040513d601f19601f8201168201806040525081019061160f919061210f565b9250925092507fdd970dd9b5bfe707922155b058a407655cb18288b807e2216442bca8ad83d6b58360405161166b91906040808252600a908201526911105248185b5bdd5b9d60b21b6060820152602081019190915260800190565b60405180910390a160408051818152600a818301526911551208185b5bdd5b9d60b21b60608201526020810184905290517fdd970dd9b5bfe707922155b058a407655cb18288b807e2216442bca8ad83d6b59181900360800190a160408051818152600981830152686c697175696469747960b81b60608201526020810183905290517fdd970dd9b5bfe707922155b058a407655cb18288b807e2216442bca8ad83d6b59181900360800190a19e9d5050505050505050505050505050565b600033611735610dff565b60a1554260a0556117458161073c565b6001600160a01b038216600090815260a4602090815260408083209390935560a15460a39091529181209190915560a28054859290611785908490611ee0565b909155505033600090815260a56020526040812080548592906117a9908490611ee0565b9091555050609e546040516323b872dd60e01b8152336004820152306024820152604481018590526001600160a01b03909116906323b872dd906064016020604051808303816000875af1158015611805573d6000803e3d6000fd5b505050506040513d601f19601f82011682018060405250810190610c8c9190611ef8565b600080600083516041146118735760405162461bcd60e51b8152602060048201526011602482015270696e76616c6964207369676e617475726560781b604482015260640161087a565b50505060208101516040820151606090920151909260009190911a90565b60003361189c610dff565b60a1554260a0556118ac8161073c565b6001600160a01b038216600090815260a4602090815260408083209390935560a15460a39091529181209190915560a280548892906118ec908490611ee0565b909155505033600090815260a5602052604081208054889290611910908490611ee0565b9091555050609e546001600160a01b031663d505accf3330896119364262015180611ee0565b6040516001600160e01b031960e087901b1681526001600160a01b0394851660048201529390921660248401526044830152606482015260ff8616608482015260a4810188905260c4810187905260e401600060405180830381600087803b1580156119a157600080fd5b505af11580156119b5573d6000803e3d6000fd5b5050609e546040516323b872dd60e01b8152336004820152306024820152604481018a90526001600160a01b0390911692506323b872dd91506064016020604051808303816000875af1158015611a10573d6000803e3d6000fd5b505050506040513d601f19601f82011682018060405250810190611a349190611ef8565b9695505050505050565b610ce481611be3565b60606000611a56836002611e9f565b611a61906002611ee0565b67ffffffffffffffff811115611a7957611a79611da1565b6040519080825280601f01601f191660200182016040528015611aa3576020820181803683370190505b509050600360fc1b81600081518110611abe57611abe61208f565b60200101906001600160f81b031916908160001a905350600f60fb1b81600181518110611aed57611aed61208f565b60200101906001600160f81b031916908160001a9053506000611b11846002611e9f565b611b1c906001611ee0565b90505b6001811115611b94576f181899199a1a9b1b9c1cb0b131b232b360811b85600f1660108110611b5057611b5061208f565b1a60f81b828281518110611b6657611b6661208f565b60200101906001600160f81b031916908160001a90535060049490941c93611b8d8161213d565b9050611b1f565b508315610c8c5760405162461bcd60e51b815260206004820181905260248201527f537472696e67733a20686578206c656e67746820696e73756666696369656e74604482015260640161087a565b33611bec610dff565b60a1554260a055611bfc8161073c565b6001600160a01b038216600090815260a4602090815260408083209390935560a15460a39091529181209190915560a28054849290611c3c908490611ee0565b909155505033600090815260a5602052604081208054849290611c60908490611ee0565b90915550505050565b6001600160a01b0381168114610ce457600080fd5b600060208284031215611c9057600080fd5b8135610c8c81611c69565b600060208284031215611cad57600080fd5b81356001600160e01b031981168114610c8c57600080fd5b600080600080600060a08688031215611cdd57600080fd5b8535611ce881611c69565b94506020860135611cf881611c69565b93506040860135611d0881611c69565b92506060860135611d1881611c69565b91506080860135611d2881611c69565b809150509295509295909350565b600060208284031215611d4857600080fd5b5035919050565b60008060408385031215611d6257600080fd5b823591506020830135611d7481611c69565b809150509250929050565b60008060408385031215611d9257600080fd5b50508035926020909101359150565b634e487b7160e01b600052604160045260246000fd5b60008060408385031215611dca57600080fd5b82359150602083013567ffffffffffffffff80821115611de957600080fd5b818501915085601f830112611dfd57600080fd5b813581811115611e0f57611e0f611da1565b604051601f8201601f19908116603f01168101908382118183101715611e3757611e37611da1565b81604052828152886020848701011115611e5057600080fd5b8260208601602083013760006020848301015280955050505050509250929050565b634e487b7160e01b600052601160045260246000fd5b600082821015611e9a57611e9a611e72565b500390565b6000816000190483118215151615611eb957611eb9611e72565b500290565b600082611edb57634e487b7160e01b600052601260045260246000fd5b500490565b60008219821115611ef357611ef3611e72565b500190565b600060208284031215611f0a57600080fd5b81518015158114610c8c57600080fd5b60005b83811015611f35578181015183820152602001611f1d565b83811115611f44576000848401525b50505050565b7f416363657373436f6e74726f6c3a206163636f756e7420000000000000000000815260008351611f82816017850160208801611f1a565b7001034b99036b4b9b9b4b733903937b6329607d1b6017918401918201528351611fb3816028840160208801611f1a565b01602801949350505050565b6020815260008251806020840152611fde816040850160208701611f1a565b601f01601f19169190910160400192915050565b60006020828403121561200457600080fd5b8151610c8c81611c69565b80516001600160701b038116811461111657600080fd5b60008060006060848603121561203b57600080fd5b6120448461200f565b92506120526020850161200f565b9150604084015163ffffffff8116811461206b57600080fd5b809150509250925092565b60006020828403121561208857600080fd5b5051919050565b634e487b7160e01b600052603260045260246000fd5b600060808201868352602060808185015281875180845260a086019150828901935060005b818110156120ef5784516001600160a01b0316835293830193918301916001016120ca565b50506001600160a01b039690961660408501525050506060015292915050565b60008060006060848603121561212457600080fd5b8351925060208401519150604084015190509250925092565b60008161214c5761214c611e72565b50600019019056fea49807205ce4d355092ef5a8a18f56e8913cf4a201fbe287825b095693c21775a264697066735822122044901c52080c4109a3b6d436636f104a489e2928c40e824f2a487106c5d1758c64736f6c634300080d0033",
  "devdoc": {
    "kind": "dev",
    "methods": {
      "getAmount(uint256,uint256)": {
        "details": "according to the Uniswaps whitepaper and its maths, regarding to the swaps and fees the formula to calculate the swap before adding liquidity is s = (sqrt(((2-f)r)^2+4(1-f)ar)-(2-f)r)/(2(1-f)) where s = optimal swap amount r = amount of reserve of token a a = amount of token a the user has f = swap fee percent With the actual fee of 0.3% or 3/1000 we have that the final result is the one inside the  function.",
        "params": {
          "a": "amount of token a the user has",
          "r": "amount of reserve of token a"
        }
      },
      "getRoleAdmin(bytes32)": {
        "details": "Returns the admin role that controls `role`. See {grantRole} and {revokeRole}. To change a role's admin, use {_setRoleAdmin}."
      },
      "grantRole(bytes32,address)": {
        "details": "Grants `role` to `account`. If `account` had not been already granted `role`, emits a {RoleGranted} event. Requirements: - the caller must have ``role``'s admin role."
      },
      "hasRole(bytes32,address)": {
        "details": "Returns `true` if `account` has been granted `role`."
      },
      "initialize(address,address,address,address,address)": {
        "details": "This address is the required by UniSwap for swaps between tokens and ETH",
        "params": {
          "_DAI": "is the address of the DAI Token",
          "_factory": "is the address of the Uniswap Factory V2",
          "_router": "is the address of the Uniswap Router V2"
        }
      },
      "isAdmin(address)": {
        "params": {
          "_address": "is the address for check"
        },
        "returns": {
          "_0": "a boolean, true if the user has the ADMIN_ROLE role or false otherwise"
        }
      },
      "renounceRole(bytes32,address)": {
        "details": "Revokes `role` from the calling account. Roles are often managed via {grantRole} and {revokeRole}: this function's purpose is to provide a mechanism for accounts to lose their privileges if they are compromised (such as when a trusted device is misplaced). If the calling account had been revoked `role`, emits a {RoleRevoked} event. Requirements: - the caller must be `account`."
      },
      "revokeRole(bytes32,address)": {
        "details": "Revokes `role` from `account`. If `account` had been granted `role`, emits a {RoleRevoked} event. Requirements: - the caller must have ``role``'s admin role."
      },
      "stakeLPWithPermit(uint256,bytes)": {
        "details": "This function doesn't require the user to do an Approval transaction beforeThis function require a signature by the user in the off-chain",
        "params": {
          "_amount": "is a uint which is the amount of LP Tokens to be staked"
        }
      },
      "stakeLPWithoutPermit(uint256)": {
        "details": "This function require the user to do an Approval transaction before",
        "params": {
          "_amount": "is a uint which is the amount of LP Tokens to be staked"
        }
      },
      "supportsInterface(bytes4)": {
        "details": "See {IERC165-supportsInterface}."
      },
      "swapAddLiquidityAndReturnLP()": {
        "details": "only adds liquidity to the ETH / DAI pool"
      },
      "swapAddLiquidityAndStakeLP()": {
        "details": "only adds liquidity to the ETH / DAI pool"
      },
      "withdraw(uint256)": {
        "params": {
          "_amount": "is a uint with the amount of LP Tokens to be withdrawed"
        }
      }
    },
    "version": 1
  },
  "userdoc": {
    "events": {
      "Log(string,uint256)": {
        "notice": "EVENTS "
      },
      "RewardClaimed(address,uint256)": {
        "notice": "EVENTS"
      }
    },
    "kind": "user",
    "methods": {
      "ADMIN_ROLE()": {
        "notice": "CONSTANTS"
      },
      "getAmount(uint256,uint256)": {
        "notice": "an auxiliar function to get the optimal swap amount to add liquidity"
      },
      "getReward()": {
        "notice": "Function that allows a user to withdraw his Reward tokens"
      },
      "initialize(address,address,address,address,address)": {
        "notice": "Function initializer of this upgradeable contract"
      },
      "isAdmin(address)": {
        "notice": "Function that allow to know if an address has the ADMIN_ROLE role"
      },
      "rewardPerToken()": {
        "notice": "functions to calculate rewards and earnings"
      },
      "rewardsToken()": {
        "notice": "VARIABLES"
      },
      "stakeLPWithPermit(uint256,bytes)": {
        "notice": "Function used to stake LP tokens already owned by the user"
      },
      "stakeLPWithoutPermit(uint256)": {
        "notice": "Function used to stake LP tokens already owned by the user"
      },
      "swapAddLiquidityAndReturnLP()": {
        "notice": "the main function to swap and add liquiditythis function returns the LP Tokens to the msg sender"
      },
      "swapAddLiquidityAndStakeLP()": {
        "notice": "the main function to swap and add liquiditythis function returns the LP Tokens to the msg sender"
      },
      "userRewardPerTokenPaid(address)": {
        "notice": "MAPPINGS"
      },
      "withdraw(uint256)": {
        "notice": "Function that allows a user to withdraw his LP Tokens staked in the contract"
      }
    },
    "version": 1
  },
  "storageLayout": {
    "storage": [
      {
        "astId": 408,
        "contract": "contracts/LPStacking.sol:LPStaking",
        "label": "_initialized",
        "offset": 0,
        "slot": "0",
        "type": "t_bool"
      },
      {
        "astId": 411,
        "contract": "contracts/LPStacking.sol:LPStaking",
        "label": "_initializing",
        "offset": 1,
        "slot": "0",
        "type": "t_bool"
      },
      {
        "astId": 1475,
        "contract": "contracts/LPStacking.sol:LPStaking",
        "label": "__gap",
        "offset": 0,
        "slot": "1",
        "type": "t_array(t_uint256)50_storage"
      },
      {
        "astId": 1722,
        "contract": "contracts/LPStacking.sol:LPStaking",
        "label": "__gap",
        "offset": 0,
        "slot": "51",
        "type": "t_array(t_uint256)50_storage"
      },
      {
        "astId": 39,
        "contract": "contracts/LPStacking.sol:LPStaking",
        "label": "_roles",
        "offset": 0,
        "slot": "101",
        "type": "t_mapping(t_bytes32,t_struct(RoleData)34_storage)"
      },
      {
        "astId": 327,
        "contract": "contracts/LPStacking.sol:LPStaking",
        "label": "__gap",
        "offset": 0,
        "slot": "102",
        "type": "t_array(t_uint256)49_storage"
      },
      {
        "astId": 3249,
        "contract": "contracts/LPStacking.sol:LPStaking",
        "label": "ROUTER",
        "offset": 0,
        "slot": "151",
        "type": "t_address"
      },
      {
        "astId": 3251,
        "contract": "contracts/LPStacking.sol:LPStaking",
        "label": "FACTORY",
        "offset": 0,
        "slot": "152",
        "type": "t_address"
      },
      {
        "astId": 3253,
        "contract": "contracts/LPStacking.sol:LPStaking",
        "label": "DAI",
        "offset": 0,
        "slot": "153",
        "type": "t_address"
      },
      {
        "astId": 3256,
        "contract": "contracts/LPStacking.sol:LPStaking",
        "label": "router",
        "offset": 0,
        "slot": "154",
        "type": "t_contract(IUniswapV2Router02)2944"
      },
      {
        "astId": 3259,
        "contract": "contracts/LPStacking.sol:LPStaking",
        "label": "factory",
        "offset": 0,
        "slot": "155",
        "type": "t_contract(IUniswapV2Factory)2306"
      },
      {
        "astId": 3262,
        "contract": "contracts/LPStacking.sol:LPStaking",
        "label": "dai",
        "offset": 0,
        "slot": "156",
        "type": "t_contract(IERC20)1813"
      },
      {
        "astId": 3698,
        "contract": "contracts/LPStacking.sol:LPStaking",
        "label": "rewardsToken",
        "offset": 0,
        "slot": "157",
        "type": "t_contract(IERC20Upgradeable)1166"
      },
      {
        "astId": 3701,
        "contract": "contracts/LPStacking.sol:LPStaking",
        "label": "stakingToken",
        "offset": 0,
        "slot": "158",
        "type": "t_contract(IUniswapV2ERC20)2243"
      },
      {
        "astId": 3703,
        "contract": "contracts/LPStacking.sol:LPStaking",
        "label": "rewardRate",
        "offset": 0,
        "slot": "159",
        "type": "t_uint256"
      },
      {
        "astId": 3705,
        "contract": "contracts/LPStacking.sol:LPStaking",
        "label": "lastUpdateTime",
        "offset": 0,
        "slot": "160",
        "type": "t_uint256"
      },
      {
        "astId": 3707,
        "contract": "contracts/LPStacking.sol:LPStaking",
        "label": "rewardPerTokenStored",
        "offset": 0,
        "slot": "161",
        "type": "t_uint256"
      },
      {
        "astId": 3709,
        "contract": "contracts/LPStacking.sol:LPStaking",
        "label": "totalSupply",
        "offset": 0,
        "slot": "162",
        "type": "t_uint256"
      },
      {
        "astId": 3714,
        "contract": "contracts/LPStacking.sol:LPStaking",
        "label": "userRewardPerTokenPaid",
        "offset": 0,
        "slot": "163",
        "type": "t_mapping(t_address,t_uint256)"
      },
      {
        "astId": 3718,
        "contract": "contracts/LPStacking.sol:LPStaking",
        "label": "rewards",
        "offset": 0,
        "slot": "164",
        "type": "t_mapping(t_address,t_uint256)"
      },
      {
        "astId": 3722,
        "contract": "contracts/LPStacking.sol:LPStaking",
        "label": "balances",
        "offset": 0,
        "slot": "165",
        "type": "t_mapping(t_address,t_uint256)"
      }
    ],
    "types": {
      "t_address": {
        "encoding": "inplace",
        "label": "address",
        "numberOfBytes": "20"
      },
      "t_array(t_uint256)49_storage": {
        "base": "t_uint256",
        "encoding": "inplace",
        "label": "uint256[49]",
        "numberOfBytes": "1568"
      },
      "t_array(t_uint256)50_storage": {
        "base": "t_uint256",
        "encoding": "inplace",
        "label": "uint256[50]",
        "numberOfBytes": "1600"
      },
      "t_bool": {
        "encoding": "inplace",
        "label": "bool",
        "numberOfBytes": "1"
      },
      "t_bytes32": {
        "encoding": "inplace",
        "label": "bytes32",
        "numberOfBytes": "32"
      },
      "t_contract(IERC20)1813": {
        "encoding": "inplace",
        "label": "contract IERC20",
        "numberOfBytes": "20"
      },
      "t_contract(IERC20Upgradeable)1166": {
        "encoding": "inplace",
        "label": "contract IERC20Upgradeable",
        "numberOfBytes": "20"
      },
      "t_contract(IUniswapV2ERC20)2243": {
        "encoding": "inplace",
        "label": "contract IUniswapV2ERC20",
        "numberOfBytes": "20"
      },
      "t_contract(IUniswapV2Factory)2306": {
        "encoding": "inplace",
        "label": "contract IUniswapV2Factory",
        "numberOfBytes": "20"
      },
      "t_contract(IUniswapV2Router02)2944": {
        "encoding": "inplace",
        "label": "contract IUniswapV2Router02",
        "numberOfBytes": "20"
      },
      "t_mapping(t_address,t_bool)": {
        "encoding": "mapping",
        "key": "t_address",
        "label": "mapping(address => bool)",
        "numberOfBytes": "32",
        "value": "t_bool"
      },
      "t_mapping(t_address,t_uint256)": {
        "encoding": "mapping",
        "key": "t_address",
        "label": "mapping(address => uint256)",
        "numberOfBytes": "32",
        "value": "t_uint256"
      },
      "t_mapping(t_bytes32,t_struct(RoleData)34_storage)": {
        "encoding": "mapping",
        "key": "t_bytes32",
        "label": "mapping(bytes32 => struct AccessControlUpgradeable.RoleData)",
        "numberOfBytes": "32",
        "value": "t_struct(RoleData)34_storage"
      },
      "t_struct(RoleData)34_storage": {
        "encoding": "inplace",
        "label": "struct AccessControlUpgradeable.RoleData",
        "members": [
          {
            "astId": 31,
            "contract": "contracts/LPStacking.sol:LPStaking",
            "label": "members",
            "offset": 0,
            "slot": "0",
            "type": "t_mapping(t_address,t_bool)"
          },
          {
            "astId": 33,
            "contract": "contracts/LPStacking.sol:LPStaking",
            "label": "adminRole",
            "offset": 0,
            "slot": "1",
            "type": "t_bytes32"
          }
        ],
        "numberOfBytes": "64"
      },
      "t_uint256": {
        "encoding": "inplace",
        "label": "uint256",
        "numberOfBytes": "32"
      }
    }
  }
}