{
  "address": "0x055364eEff5F91b624Fa6Df8CAf10c72D6FFc80E",
  "abi": [
    {
      "anonymous": false,
      "inputs": [
        {
          "indexed": false,
          "internalType": "string",
          "name": "message",
          "type": "string"
        },
        {
          "indexed": false,
          "internalType": "uint256",
          "name": "value",
          "type": "uint256"
        }
      ],
      "name": "Log",
      "type": "event"
    },
    {
      "anonymous": false,
      "inputs": [
        {
          "indexed": false,
          "internalType": "address",
          "name": "account",
          "type": "address"
        },
        {
          "indexed": false,
          "internalType": "uint256",
          "name": "amount",
          "type": "uint256"
        }
      ],
      "name": "RewardClaimed",
      "type": "event"
    },
    {
      "anonymous": false,
      "inputs": [
        {
          "indexed": true,
          "internalType": "bytes32",
          "name": "role",
          "type": "bytes32"
        },
        {
          "indexed": true,
          "internalType": "bytes32",
          "name": "previousAdminRole",
          "type": "bytes32"
        },
        {
          "indexed": true,
          "internalType": "bytes32",
          "name": "newAdminRole",
          "type": "bytes32"
        }
      ],
      "name": "RoleAdminChanged",
      "type": "event"
    },
    {
      "anonymous": false,
      "inputs": [
        {
          "indexed": true,
          "internalType": "bytes32",
          "name": "role",
          "type": "bytes32"
        },
        {
          "indexed": true,
          "internalType": "address",
          "name": "account",
          "type": "address"
        },
        {
          "indexed": true,
          "internalType": "address",
          "name": "sender",
          "type": "address"
        }
      ],
      "name": "RoleGranted",
      "type": "event"
    },
    {
      "anonymous": false,
      "inputs": [
        {
          "indexed": true,
          "internalType": "bytes32",
          "name": "role",
          "type": "bytes32"
        },
        {
          "indexed": true,
          "internalType": "address",
          "name": "account",
          "type": "address"
        },
        {
          "indexed": true,
          "internalType": "address",
          "name": "sender",
          "type": "address"
        }
      ],
      "name": "RoleRevoked",
      "type": "event"
    },
    {
      "inputs": [],
      "name": "ADMIN_ROLE",
      "outputs": [
        {
          "internalType": "bytes32",
          "name": "",
          "type": "bytes32"
        }
      ],
      "stateMutability": "view",
      "type": "function"
    },
    {
      "inputs": [],
      "name": "DEFAULT_ADMIN_ROLE",
      "outputs": [
        {
          "internalType": "bytes32",
          "name": "",
          "type": "bytes32"
        }
      ],
      "stateMutability": "view",
      "type": "function"
    },
    {
      "inputs": [
        {
          "internalType": "address",
          "name": "",
          "type": "address"
        }
      ],
      "name": "balances",
      "outputs": [
        {
          "internalType": "uint256",
          "name": "",
          "type": "uint256"
        }
      ],
      "stateMutability": "view",
      "type": "function"
    },
    {
      "inputs": [
        {
          "internalType": "address",
          "name": "account",
          "type": "address"
        }
      ],
      "name": "earned",
      "outputs": [
        {
          "internalType": "uint256",
          "name": "",
          "type": "uint256"
        }
      ],
      "stateMutability": "view",
      "type": "function"
    },
    {
      "inputs": [
        {
          "internalType": "uint256",
          "name": "r",
          "type": "uint256"
        },
        {
          "internalType": "uint256",
          "name": "a",
          "type": "uint256"
        }
      ],
      "name": "getAmount",
      "outputs": [
        {
          "internalType": "uint256",
          "name": "",
          "type": "uint256"
        }
      ],
      "stateMutability": "pure",
      "type": "function"
    },
    {
      "inputs": [],
      "name": "getReward",
      "outputs": [],
      "stateMutability": "nonpayable",
      "type": "function"
    },
    {
      "inputs": [
        {
          "internalType": "bytes32",
          "name": "role",
          "type": "bytes32"
        }
      ],
      "name": "getRoleAdmin",
      "outputs": [
        {
          "internalType": "bytes32",
          "name": "",
          "type": "bytes32"
        }
      ],
      "stateMutability": "view",
      "type": "function"
    },
    {
      "inputs": [
        {
          "internalType": "bytes32",
          "name": "role",
          "type": "bytes32"
        },
        {
          "internalType": "address",
          "name": "account",
          "type": "address"
        }
      ],
      "name": "grantRole",
      "outputs": [],
      "stateMutability": "nonpayable",
      "type": "function"
    },
    {
      "inputs": [
        {
          "internalType": "bytes32",
          "name": "role",
          "type": "bytes32"
        },
        {
          "internalType": "address",
          "name": "account",
          "type": "address"
        }
      ],
      "name": "hasRole",
      "outputs": [
        {
          "internalType": "bool",
          "name": "",
          "type": "bool"
        }
      ],
      "stateMutability": "view",
      "type": "function"
    },
    {
      "inputs": [
        {
          "internalType": "address",
          "name": "_router",
          "type": "address"
        },
        {
          "internalType": "address",
          "name": "_factory",
          "type": "address"
        },
        {
          "internalType": "address",
          "name": "_DAI",
          "type": "address"
        },
        {
          "internalType": "address",
          "name": "_ETH",
          "type": "address"
        },
        {
          "internalType": "address",
          "name": "_stakingToken",
          "type": "address"
        },
        {
          "internalType": "address",
          "name": "_rewardsToken",
          "type": "address"
        }
      ],
      "name": "initialize",
      "outputs": [],
      "stateMutability": "nonpayable",
      "type": "function"
    },
    {
      "inputs": [
        {
          "internalType": "address",
          "name": "_address",
          "type": "address"
        }
      ],
      "name": "isAdmin",
      "outputs": [
        {
          "internalType": "bool",
          "name": "",
          "type": "bool"
        }
      ],
      "stateMutability": "view",
      "type": "function"
    },
    {
      "inputs": [],
      "name": "lastUpdateTime",
      "outputs": [
        {
          "internalType": "uint256",
          "name": "",
          "type": "uint256"
        }
      ],
      "stateMutability": "view",
      "type": "function"
    },
    {
      "inputs": [
        {
          "internalType": "bytes32",
          "name": "role",
          "type": "bytes32"
        },
        {
          "internalType": "address",
          "name": "account",
          "type": "address"
        }
      ],
      "name": "renounceRole",
      "outputs": [],
      "stateMutability": "nonpayable",
      "type": "function"
    },
    {
      "inputs": [
        {
          "internalType": "bytes32",
          "name": "role",
          "type": "bytes32"
        },
        {
          "internalType": "address",
          "name": "account",
          "type": "address"
        }
      ],
      "name": "revokeRole",
      "outputs": [],
      "stateMutability": "nonpayable",
      "type": "function"
    },
    {
      "inputs": [],
      "name": "rewardPerToken",
      "outputs": [
        {
          "internalType": "uint256",
          "name": "",
          "type": "uint256"
        }
      ],
      "stateMutability": "view",
      "type": "function"
    },
    {
      "inputs": [],
      "name": "rewardPerTokenStored",
      "outputs": [
        {
          "internalType": "uint256",
          "name": "",
          "type": "uint256"
        }
      ],
      "stateMutability": "view",
      "type": "function"
    },
    {
      "inputs": [],
      "name": "rewardRate",
      "outputs": [
        {
          "internalType": "uint256",
          "name": "",
          "type": "uint256"
        }
      ],
      "stateMutability": "view",
      "type": "function"
    },
    {
      "inputs": [
        {
          "internalType": "address",
          "name": "",
          "type": "address"
        }
      ],
      "name": "rewards",
      "outputs": [
        {
          "internalType": "uint256",
          "name": "",
          "type": "uint256"
        }
      ],
      "stateMutability": "view",
      "type": "function"
    },
    {
      "inputs": [],
      "name": "rewardsToken",
      "outputs": [
        {
          "internalType": "contract IERC20Upgradeable",
          "name": "",
          "type": "address"
        }
      ],
      "stateMutability": "view",
      "type": "function"
    },
    {
      "inputs": [
        {
          "internalType": "uint256",
          "name": "_amount",
          "type": "uint256"
        },
        {
          "internalType": "bytes",
          "name": "sig",
          "type": "bytes"
        }
      ],
      "name": "stakeLPWithPermit",
      "outputs": [],
      "stateMutability": "nonpayable",
      "type": "function"
    },
    {
      "inputs": [
        {
          "internalType": "uint256",
          "name": "_amount",
          "type": "uint256"
        }
      ],
      "name": "stakeLPWithoutPermit",
      "outputs": [],
      "stateMutability": "nonpayable",
      "type": "function"
    },
    {
      "inputs": [],
      "name": "stakingToken",
      "outputs": [
        {
          "internalType": "contract IUniswapV2ERC20",
          "name": "",
          "type": "address"
        }
      ],
      "stateMutability": "view",
      "type": "function"
    },
    {
      "inputs": [
        {
          "internalType": "bytes4",
          "name": "interfaceId",
          "type": "bytes4"
        }
      ],
      "name": "supportsInterface",
      "outputs": [
        {
          "internalType": "bool",
          "name": "",
          "type": "bool"
        }
      ],
      "stateMutability": "view",
      "type": "function"
    },
    {
      "inputs": [],
      "name": "swapAddLiquidityAndReturnLP",
      "outputs": [],
      "stateMutability": "payable",
      "type": "function"
    },
    {
      "inputs": [],
      "name": "swapAddLiquidityAndStakeLP",
      "outputs": [],
      "stateMutability": "payable",
      "type": "function"
    },
    {
      "inputs": [],
      "name": "totalSupply",
      "outputs": [
        {
          "internalType": "uint256",
          "name": "",
          "type": "uint256"
        }
      ],
      "stateMutability": "view",
      "type": "function"
    },
    {
      "inputs": [
        {
          "internalType": "address",
          "name": "",
          "type": "address"
        }
      ],
      "name": "userRewardPerTokenPaid",
      "outputs": [
        {
          "internalType": "uint256",
          "name": "",
          "type": "uint256"
        }
      ],
      "stateMutability": "view",
      "type": "function"
    },
    {
      "inputs": [
        {
          "internalType": "uint256",
          "name": "_amount",
          "type": "uint256"
        }
      ],
      "name": "withdraw",
      "outputs": [],
      "stateMutability": "nonpayable",
      "type": "function"
    }
  ],
  "transactionHash": "0xfa41941a0b1539362a836988d28a72b7e8230ce8ae4b5a6ae202b9daf1d241cc",
  "args": [],
  "numDeployments": 1,
  "solcInputHash": "2e99b6de881f7694d42eb9583addd165",
  "bytecode": "0x608060405234801561001057600080fd5b50611e8a806100206000396000f3fe6080604052600436106101b65760003560e01c80637b0a47ee116100ec578063c8f33c911161008a578063d1af0c7d11610064578063d1af0c7d146104ec578063d547741f1461050c578063df136d651461052c578063ea2468271461054257600080fd5b8063c8f33c91146104a1578063cc2a9a5b146104b7578063cd3daf9d146104d757600080fd5b80638b876347116100c65780638b8763471461041f57806391d148541461044c578063a217fddf1461046c578063aae693e01461048157600080fd5b80637b0a47ee146103e1578063809b0c2d146103f75780638408b5ac146103ff57600080fd5b80632e1a7d4d116101595780633d18b912116101335780633d18b912146103405780634ca989971461035557806372f702f31461037557806375b238fc146103ad57600080fd5b80632e1a7d4d146102de5780632f2ff15d1461030057806336568abe1461032057600080fd5b806318160ddd1161019557806318160ddd1461024b578063248a9ca31461026157806324d7806c1461029157806327e235e3146102b157600080fd5b80628cc262146101bb57806301ffc9a7146101ee5780630700037d1461021e575b600080fd5b3480156101c757600080fd5b506101db6101d6366004611926565b61054a565b6040519081526020015b60405180910390f35b3480156101fa57600080fd5b5061020e610209366004611943565b6105d5565b60405190151581526020016101e5565b34801561022a57600080fd5b506101db610239366004611926565b60a56020526000908152604090205481565b34801561025757600080fd5b506101db60a35481565b34801561026d57600080fd5b506101db61027c36600461196d565b60009081526065602052604090206001015490565b34801561029d57600080fd5b5061020e6102ac366004611926565b61060a565b3480156102bd57600080fd5b506101db6102cc366004611926565b60a66020526000908152604090205481565b3480156102ea57600080fd5b506102fe6102f936600461196d565b610636565b005b34801561030c57600080fd5b506102fe61031b366004611986565b610743565b34801561032c57600080fd5b506102fe61033b366004611986565b610769565b34801561034c57600080fd5b506102fe6107ec565b34801561036157600080fd5b506101db6103703660046119b6565b6108ed565b34801561038157600080fd5b50609f54610395906001600160a01b031681565b6040516001600160a01b0390911681526020016101e5565b3480156103b957600080fd5b506101db7fa49807205ce4d355092ef5a8a18f56e8913cf4a201fbe287825b095693c2177581565b3480156103ed57600080fd5b506101db60a05481565b6102fe61094e565b34801561040b57600080fd5b506102fe61041a36600461196d565b61095c565b34801561042b57600080fd5b506101db61043a366004611926565b60a46020526000908152604090205481565b34801561045857600080fd5b5061020e610467366004611986565b61096e565b34801561047857600080fd5b506101db600081565b34801561048d57600080fd5b506102fe61049c3660046119ee565b610999565b3480156104ad57600080fd5b506101db60a15481565b3480156104c357600080fd5b506102fe6104d2366004611aa9565b6109c9565b3480156104e357600080fd5b506101db610b1e565b3480156104f857600080fd5b50609e54610395906001600160a01b031681565b34801561051857600080fd5b506102fe610527366004611986565b610b7c565b34801561053857600080fd5b506101db60a25481565b6102fe610ba2565b6001600160a01b038116600090815260a46020526040812054670de0b6b3a764000090610575610b1e565b61057f9190611b41565b6001600160a01b038416600090815260a660205260409020546105a29190611b58565b6105ac9190611b77565b6001600160a01b038316600090815260a560205260409020546105cf9190611b99565b92915050565b60006001600160e01b03198216637965db0b60e01b14806105cf57506301ffc9a760e01b6001600160e01b03198316146105cf565b60006105cf7fa49807205ce4d355092ef5a8a18f56e8913cf4a201fbe287825b095693c217758361096e565b3361063f610b1e565b60a2554260a15561064f8161054a565b6001600160a01b038216600090815260a5602090815260408083209390935560a25460a482528383205533825260a69052205482111561068e57600080fd5b8160a360008282546106a09190611b41565b909155505033600090815260a66020526040812080548492906106c4908490611b41565b9091555050609f5460405163a9059cbb60e01b8152336004820152602481018490526001600160a01b039091169063a9059cbb906044016020604051808303816000875af115801561071a573d6000803e3d6000fd5b505050506040513d601f19601f8201168201806040525081019061073e9190611bb1565b505050565b60008281526065602052604090206001015461075f8133610bba565b61073e8383610c1e565b6001600160a01b03811633146107de5760405162461bcd60e51b815260206004820152602f60248201527f416363657373436f6e74726f6c3a2063616e206f6e6c792072656e6f756e636560448201526e103937b632b9903337b91039b2b63360891b60648201526084015b60405180910390fd5b6107e88282610ca4565b5050565b336107f5610b1e565b60a2554260a1556108058161054a565b6001600160a01b03828116600090815260a5602081815260408084209590955560a25460a4825285842055338084529190528382208054929055609e54935163a9059cbb60e01b815260048101919091526024810182905290929091169063a9059cbb906044016020604051808303816000875af115801561088b573d6000803e3d6000fd5b505050506040513d601f19601f820116820180604052508101906108af9190611bb1565b5060408051338152602081018390527f106f923f993c2149d49b4255ff723acafa1f2d94393f561d3eda32ae348f7241910160405180910390a15050565b60006107ca61093d610901856107cd610d0b565b61093761093261091487623cda20610d0b565b61092189623cda29610d0b565b61092b9190611b99565b8890610d0b565b610d17565b90610d87565b6109479190611b77565b9392505050565b610959346001610d93565b50565b610965816112c3565b61095957600080fd5b60009182526065602090815260408084206001600160a01b0393909316845291905290205460ff1690565b60008060006109a7846113c2565b9250925092506109b98582858561142a565b6109c257600080fd5b5050505050565b600054610100900460ff166109e45760005460ff16156109e8565b303b155b610a4b5760405162461bcd60e51b815260206004820152602e60248201527f496e697469616c697a61626c653a20636f6e747261637420697320616c72656160448201526d191e481a5b9a5d1a585b1a5e995960921b60648201526084016107d5565b600054610100900460ff16158015610a6d576000805461ffff19166101011790555b60a780546001600160a01b03808a166001600160a01b0319928316811790935560a880548a8316908416811790915560a980548a8416908516811790915560aa8054938a16939094168317909355610ac7939290916115d7565b610ad18383611610565b610ad9611641565b610b037fa49807205ce4d355092ef5a8a18f56e8913cf4a201fbe287825b095693c217753361166a565b8015610b15576000805461ff00191690555b50505050505050565b600060a354600003610b31575060a25490565b60a35460a05460a154610b449042611b41565b610b4e9190611b58565b610b6090670de0b6b3a7640000611b58565b610b6a9190611b77565b60a254610b779190611b99565b905090565b600082815260656020526040902060010154610b988133610bba565b61073e8383610ca4565b6000610baf346000610d93565b90506109598161095c565b610bc4828261096e565b6107e857610bdc816001600160a01b03166014611674565b610be7836020611674565b604051602001610bf8929190611bff565b60408051601f198184030181529082905262461bcd60e51b82526107d591600401611c74565b610c28828261096e565b6107e85760008281526065602090815260408083206001600160a01b03851684529091529020805460ff19166001179055610c603390565b6001600160a01b0316816001600160a01b0316837f2f8788117e7eff1d82e926ec794901d17c78024a50270940304540a733656f0d60405160405180910390a45050565b610cae828261096e565b156107e85760008281526065602090815260408083206001600160a01b0385168085529252808320805460ff1916905551339285917ff6391f5c32d9c69d2a47ea670b442974b53935d1edc7fd64eb21e047a839171b9190a45050565b60006109478284611b58565b60006003821115610d785750806000610d31600283611b77565b610d3c906001611b99565b90505b81811015610d7257905080600281610d578186611b77565b610d619190611b99565b610d6b9190611b77565b9050610d3f565b50919050565b8115610d82575060015b919050565b60006109478284611b41565b609c54609a5460995460405163e6a4390560e01b81526001600160a01b03928316600482015290821660248201526000928392169063e6a4390590604401602060405180830381865afa158015610dee573d6000803e3d6000fd5b505050506040513d601f19601f82011682018060405250810190610e129190611ca7565b90506000816001600160a01b0316630902f1ac6040518163ffffffff1660e01b8152600401606060405180830381865afa158015610e54573d6000803e3d6000fd5b505050506040513d601f19601f82011682018060405250810190610e789190611cdb565b50506001600160701b031690506000610e9182876108ed565b90506000610e9f8288611b41565b609d546040516370a0823160e01b81523060048201529192506000916001600160a01b03909116906370a0823190602401602060405180830381865afa158015610eed573d6000803e3d6000fd5b505050506040513d601f19601f82011682018060405250810190610f119190611d2b565b60408051600280825260608201835292935060009290916020830190803683375050609a5482519293506001600160a01b031691839150600090610f5757610f57611d44565b6001600160a01b039283166020918202929092010152609954825191169082906001908110610f8857610f88611d44565b6001600160a01b039283166020918202929092010152609b5460405163b6f9de9560e01b815291169063b6f9de95908690610fce90600190869030904290600401611d5a565b6000604051808303818588803b158015610fe757600080fd5b505af1158015610ffb573d6000803e3d6000fd5b5050609d546040516370a0823160e01b8152306004820152600094506001600160a01b0390911692506370a082319150602401602060405180830381865afa15801561104b573d6000803e3d6000fd5b505050506040513d601f19601f8201168201806040525081019061106f9190611d2b565b9050600061107d8483611b41565b609d5460975460405163095ea7b360e01b81526001600160a01b03918216600482015260248101849052929350169063095ea7b3906044016020604051808303816000875af11580156110d4573d6000803e3d6000fd5b505050506040513d601f19601f820116820180604052508101906110f89190611bb1565b5060008a6111065730611108565b335b609b5460995460405163f305d71960e01b81526001600160a01b03918216600482015260248101869052600160448201819052606482015281841660848201524260a482015292935060009283928392169063f305d719908b9060c40160606040518083038185885af1158015611183573d6000803e3d6000fd5b50505050506040513d601f19601f820116820180604052508101906111a89190611dc4565b9250925092507fdd970dd9b5bfe707922155b058a407655cb18288b807e2216442bca8ad83d6b58360405161120491906040808252600a908201526911105248185b5bdd5b9d60b21b6060820152602081019190915260800190565b60405180910390a160408051818152600a818301526911551208185b5bdd5b9d60b21b60608201526020810184905290517fdd970dd9b5bfe707922155b058a407655cb18288b807e2216442bca8ad83d6b59181900360800190a160408051818152600981830152686c697175696469747960b81b60608201526020810183905290517fdd970dd9b5bfe707922155b058a407655cb18288b807e2216442bca8ad83d6b59181900360800190a19e9d5050505050505050505050505050565b6000336112ce610b1e565b60a2554260a1556112de8161054a565b6001600160a01b038216600090815260a5602090815260408083209390935560a25460a49091529181209190915560a3805485929061131e908490611b99565b909155505033600090815260a6602052604081208054859290611342908490611b99565b9091555050609f546040516323b872dd60e01b8152336004820152306024820152604481018590526001600160a01b03909116906323b872dd906064016020604051808303816000875af115801561139e573d6000803e3d6000fd5b505050506040513d601f19601f820116820180604052508101906109479190611bb1565b6000806000835160411461140c5760405162461bcd60e51b8152602060048201526011602482015270696e76616c6964207369676e617475726560781b60448201526064016107d5565b50505060208101516040820151606090920151909260009190911a90565b600033611435610b1e565b60a2554260a1556114458161054a565b6001600160a01b038216600090815260a5602090815260408083209390935560a25460a49091529181209190915560a38054889290611485908490611b99565b909155505033600090815260a66020526040812080548892906114a9908490611b99565b9091555050609f546001600160a01b031663d505accf3330896114cf4262015180611b99565b6040516001600160e01b031960e087901b1681526001600160a01b0394851660048201529390921660248401526044830152606482015260ff8816608482015260a4810187905260c4810186905260e401600060405180830381600087803b15801561153a57600080fd5b505af115801561154e573d6000803e3d6000fd5b5050609f546040516323b872dd60e01b8152336004820152306024820152604481018a90526001600160a01b0390911692506323b872dd91506064016020604051808303816000875af11580156115a9573d6000803e3d6000fd5b505050506040513d601f19601f820116820180604052508101906115cd9190611bb1565b9695505050505050565b600054610100900460ff166115fe5760405162461bcd60e51b81526004016107d590611df2565b61160a84848484611810565b50505050565b600054610100900460ff166116375760405162461bcd60e51b81526004016107d590611df2565b6107e882826118a9565b600054610100900460ff166116685760405162461bcd60e51b81526004016107d590611df2565b565b6107e88282610c1e565b60606000611683836002611b58565b61168e906002611b99565b67ffffffffffffffff8111156116a6576116a66119d8565b6040519080825280601f01601f1916602001820160405280156116d0576020820181803683370190505b509050600360fc1b816000815181106116eb576116eb611d44565b60200101906001600160f81b031916908160001a905350600f60fb1b8160018151811061171a5761171a611d44565b60200101906001600160f81b031916908160001a905350600061173e846002611b58565b611749906001611b99565b90505b60018111156117c1576f181899199a1a9b1b9c1cb0b131b232b360811b85600f166010811061177d5761177d611d44565b1a60f81b82828151811061179357611793611d44565b60200101906001600160f81b031916908160001a90535060049490941c936117ba81611e3d565b905061174c565b5083156109475760405162461bcd60e51b815260206004820181905260248201527f537472696e67733a20686578206c656e67746820696e73756666696369656e7460448201526064016107d5565b600054610100900460ff166118375760405162461bcd60e51b81526004016107d590611df2565b609780546001600160a01b039586166001600160a01b0319918216811790925560988054958716958216861790556099805494871694821685179055609a80549390961692811692909217909455609b80548216909417909355609c80548416909217909155609d8054909216179055565b600054610100900460ff166118d05760405162461bcd60e51b81526004016107d590611df2565b609f80546001600160a01b039384166001600160a01b031991821617909155609e8054929093169116179055606460a0554260a155600060a281905560a355565b6001600160a01b038116811461095957600080fd5b60006020828403121561193857600080fd5b813561094781611911565b60006020828403121561195557600080fd5b81356001600160e01b03198116811461094757600080fd5b60006020828403121561197f57600080fd5b5035919050565b6000806040838503121561199957600080fd5b8235915060208301356119ab81611911565b809150509250929050565b600080604083850312156119c957600080fd5b50508035926020909101359150565b634e487b7160e01b600052604160045260246000fd5b60008060408385031215611a0157600080fd5b82359150602083013567ffffffffffffffff80821115611a2057600080fd5b818501915085601f830112611a3457600080fd5b813581811115611a4657611a466119d8565b604051601f8201601f19908116603f01168101908382118183101715611a6e57611a6e6119d8565b81604052828152886020848701011115611a8757600080fd5b8260208601602083013760006020848301015280955050505050509250929050565b60008060008060008060c08789031215611ac257600080fd5b8635611acd81611911565b95506020870135611add81611911565b94506040870135611aed81611911565b93506060870135611afd81611911565b92506080870135611b0d81611911565b915060a0870135611b1d81611911565b809150509295509295509295565b634e487b7160e01b600052601160045260246000fd5b600082821015611b5357611b53611b2b565b500390565b6000816000190483118215151615611b7257611b72611b2b565b500290565b600082611b9457634e487b7160e01b600052601260045260246000fd5b500490565b60008219821115611bac57611bac611b2b565b500190565b600060208284031215611bc357600080fd5b8151801515811461094757600080fd5b60005b83811015611bee578181015183820152602001611bd6565b8381111561160a5750506000910152565b7f416363657373436f6e74726f6c3a206163636f756e7420000000000000000000815260008351611c37816017850160208801611bd3565b7001034b99036b4b9b9b4b733903937b6329607d1b6017918401918201528351611c68816028840160208801611bd3565b01602801949350505050565b6020815260008251806020840152611c93816040850160208701611bd3565b601f01601f19169190910160400192915050565b600060208284031215611cb957600080fd5b815161094781611911565b80516001600160701b0381168114610d8257600080fd5b600080600060608486031215611cf057600080fd5b611cf984611cc4565b9250611d0760208501611cc4565b9150604084015163ffffffff81168114611d2057600080fd5b809150509250925092565b600060208284031215611d3d57600080fd5b5051919050565b634e487b7160e01b600052603260045260246000fd5b600060808201868352602060808185015281875180845260a086019150828901935060005b81811015611da45784516001600160a01b031683529383019391830191600101611d7f565b50506001600160a01b039690961660408501525050506060015292915050565b600080600060608486031215611dd957600080fd5b8351925060208401519150604084015190509250925092565b6020808252602b908201527f496e697469616c697a61626c653a20636f6e7472616374206973206e6f74206960408201526a6e697469616c697a696e6760a81b606082015260800190565b600081611e4c57611e4c611b2b565b50600019019056fea2646970667358221220b015289b221413ee3d8266fb9f507d714cf12e2b7fd5fb7b2700535d11e50c1464736f6c634300080d0033",
  "devdoc": {
    "kind": "dev",
    "methods": {
      "getAmount(uint256,uint256)": {
        "details": "according to the Uniswaps whitepaper and its maths, regarding to the swaps and fees the formula to calculate the swap before adding liquidity is s = (sqrt(((2-f)r)^2+4(1-f)ar)-(2-f)r)/(2(1-f)) where s = optimal swap amount r = amount of reserve of token a a = amount of token a the user has f = swap fee percent With the actual fee of 0.3% or 3/1000 we have that the final result is the one inside the  function.",
        "params": {
          "a": "amount of token a the user has",
          "r": "amount of reserve of token a"
        }
      },
      "getRoleAdmin(bytes32)": {
        "details": "Returns the admin role that controls `role`. See {grantRole} and {revokeRole}. To change a role's admin, use {_setRoleAdmin}."
      },
      "grantRole(bytes32,address)": {
        "details": "Grants `role` to `account`. If `account` had not been already granted `role`, emits a {RoleGranted} event. Requirements: - the caller must have ``role``'s admin role."
      },
      "hasRole(bytes32,address)": {
        "details": "Returns `true` if `account` has been granted `role`."
      },
      "initialize(address,address,address,address,address,address)": {
        "details": "This address is the required by UniSwap for swaps between tokens and ETH",
        "params": {
          "_DAI": "is the address of the DAI Token",
          "_ETH": "is the address of the ETH Token",
          "_factory": "is the address of the Uniswap Factory V2",
          "_rewardsToken": "is the address of our own Reward Token",
          "_router": "is the address of the Uniswap Router V2",
          "_stakingToken": "is the address of the LP Token from Uniswap"
        }
      },
      "isAdmin(address)": {
        "params": {
          "_address": "is the address for check"
        },
        "returns": {
          "_0": "a boolean, true if the user has the ADMIN_ROLE role or false otherwise"
        }
      },
      "renounceRole(bytes32,address)": {
        "details": "Revokes `role` from the calling account. Roles are often managed via {grantRole} and {revokeRole}: this function's purpose is to provide a mechanism for accounts to lose their privileges if they are compromised (such as when a trusted device is misplaced). If the calling account had been revoked `role`, emits a {RoleRevoked} event. Requirements: - the caller must be `account`."
      },
      "revokeRole(bytes32,address)": {
        "details": "Revokes `role` from `account`. If `account` had been granted `role`, emits a {RoleRevoked} event. Requirements: - the caller must have ``role``'s admin role."
      },
      "stakeLPWithPermit(uint256,bytes)": {
        "details": "This function doesn't require the user to do an Approval transaction beforeThis function require a signature by the user in the off-chain",
        "params": {
          "_amount": "is a uint which is the amount of LP Tokens to be staked"
        }
      },
      "stakeLPWithoutPermit(uint256)": {
        "details": "This function require the user to do an Approval transaction before",
        "params": {
          "_amount": "is a uint which is the amount of LP Tokens to be staked"
        }
      },
      "supportsInterface(bytes4)": {
        "details": "See {IERC165-supportsInterface}."
      },
      "swapAddLiquidityAndReturnLP()": {
        "details": "only adds liquidity to the ETH / DAI pool"
      },
      "swapAddLiquidityAndStakeLP()": {
        "details": "only adds liquidity to the ETH / DAI pool"
      }
    },
    "version": 1
  },
  "userdoc": {
    "events": {
      "Log(string,uint256)": {
        "notice": "EVENTS "
      },
      "RewardClaimed(address,uint256)": {
        "notice": "EVENTS"
      }
    },
    "kind": "user",
    "methods": {
      "ADMIN_ROLE()": {
        "notice": "CONSTANTS"
      },
      "getAmount(uint256,uint256)": {
        "notice": "an auxiliar function to get the optimal swap amount to add liquidity"
      },
      "initialize(address,address,address,address,address,address)": {
        "notice": "Function initializer of this upgradeable contract"
      },
      "isAdmin(address)": {
        "notice": "Function that allow to know if an address has the ADMIN_ROLE role"
      },
      "rewardPerToken()": {
        "notice": "functions to calculate rewards and earnings"
      },
      "rewardsToken()": {
        "notice": "VARIABLES"
      },
      "stakeLPWithPermit(uint256,bytes)": {
        "notice": "Function used to stake LP tokens already owned by the user"
      },
      "stakeLPWithoutPermit(uint256)": {
        "notice": "Function used to stake LP tokens already owned by the user"
      },
      "swapAddLiquidityAndReturnLP()": {
        "notice": "the main function to swap and add liquiditythis function returns the LP Tokens to the msg sender"
      },
      "swapAddLiquidityAndStakeLP()": {
        "notice": "the main function to swap and add liquiditythis function returns the LP Tokens to the msg sender"
      },
      "userRewardPerTokenPaid(address)": {
        "notice": "MAPPINGS"
      }
    },
    "version": 1
  },
  "storageLayout": {
    "storage": [
      {
        "astId": 408,
        "contract": "contracts/LPStacking.sol:LPStaking",
        "label": "_initialized",
        "offset": 0,
        "slot": "0",
        "type": "t_bool"
      },
      {
        "astId": 411,
        "contract": "contracts/LPStacking.sol:LPStaking",
        "label": "_initializing",
        "offset": 1,
        "slot": "0",
        "type": "t_bool"
      },
      {
        "astId": 1475,
        "contract": "contracts/LPStacking.sol:LPStaking",
        "label": "__gap",
        "offset": 0,
        "slot": "1",
        "type": "t_array(t_uint256)50_storage"
      },
      {
        "astId": 1722,
        "contract": "contracts/LPStacking.sol:LPStaking",
        "label": "__gap",
        "offset": 0,
        "slot": "51",
        "type": "t_array(t_uint256)50_storage"
      },
      {
        "astId": 39,
        "contract": "contracts/LPStacking.sol:LPStaking",
        "label": "_roles",
        "offset": 0,
        "slot": "101",
        "type": "t_mapping(t_bytes32,t_struct(RoleData)34_storage)"
      },
      {
        "astId": 327,
        "contract": "contracts/LPStacking.sol:LPStaking",
        "label": "__gap",
        "offset": 0,
        "slot": "102",
        "type": "t_array(t_uint256)49_storage"
      },
      {
        "astId": 3155,
        "contract": "contracts/LPStacking.sol:LPStaking",
        "label": "ROUTER",
        "offset": 0,
        "slot": "151",
        "type": "t_address"
      },
      {
        "astId": 3157,
        "contract": "contracts/LPStacking.sol:LPStaking",
        "label": "FACTORY",
        "offset": 0,
        "slot": "152",
        "type": "t_address"
      },
      {
        "astId": 3159,
        "contract": "contracts/LPStacking.sol:LPStaking",
        "label": "DAI",
        "offset": 0,
        "slot": "153",
        "type": "t_address"
      },
      {
        "astId": 3161,
        "contract": "contracts/LPStacking.sol:LPStaking",
        "label": "ETH",
        "offset": 0,
        "slot": "154",
        "type": "t_address"
      },
      {
        "astId": 3164,
        "contract": "contracts/LPStacking.sol:LPStaking",
        "label": "router",
        "offset": 0,
        "slot": "155",
        "type": "t_contract(IUniswapV2Router02)2944"
      },
      {
        "astId": 3167,
        "contract": "contracts/LPStacking.sol:LPStaking",
        "label": "factory",
        "offset": 0,
        "slot": "156",
        "type": "t_contract(IUniswapV2Factory)2306"
      },
      {
        "astId": 3170,
        "contract": "contracts/LPStacking.sol:LPStaking",
        "label": "dai",
        "offset": 0,
        "slot": "157",
        "type": "t_contract(IERC20)1813"
      },
      {
        "astId": 3665,
        "contract": "contracts/LPStacking.sol:LPStaking",
        "label": "rewardsToken",
        "offset": 0,
        "slot": "158",
        "type": "t_contract(IERC20Upgradeable)1166"
      },
      {
        "astId": 3668,
        "contract": "contracts/LPStacking.sol:LPStaking",
        "label": "stakingToken",
        "offset": 0,
        "slot": "159",
        "type": "t_contract(IUniswapV2ERC20)2243"
      },
      {
        "astId": 3670,
        "contract": "contracts/LPStacking.sol:LPStaking",
        "label": "rewardRate",
        "offset": 0,
        "slot": "160",
        "type": "t_uint256"
      },
      {
        "astId": 3672,
        "contract": "contracts/LPStacking.sol:LPStaking",
        "label": "lastUpdateTime",
        "offset": 0,
        "slot": "161",
        "type": "t_uint256"
      },
      {
        "astId": 3674,
        "contract": "contracts/LPStacking.sol:LPStaking",
        "label": "rewardPerTokenStored",
        "offset": 0,
        "slot": "162",
        "type": "t_uint256"
      },
      {
        "astId": 3676,
        "contract": "contracts/LPStacking.sol:LPStaking",
        "label": "totalSupply",
        "offset": 0,
        "slot": "163",
        "type": "t_uint256"
      },
      {
        "astId": 3681,
        "contract": "contracts/LPStacking.sol:LPStaking",
        "label": "userRewardPerTokenPaid",
        "offset": 0,
        "slot": "164",
        "type": "t_mapping(t_address,t_uint256)"
      },
      {
        "astId": 3685,
        "contract": "contracts/LPStacking.sol:LPStaking",
        "label": "rewards",
        "offset": 0,
        "slot": "165",
        "type": "t_mapping(t_address,t_uint256)"
      },
      {
        "astId": 3689,
        "contract": "contracts/LPStacking.sol:LPStaking",
        "label": "balances",
        "offset": 0,
        "slot": "166",
        "type": "t_mapping(t_address,t_uint256)"
      },
      {
        "astId": 2984,
        "contract": "contracts/LPStacking.sol:LPStaking",
        "label": "mainRouter",
        "offset": 0,
        "slot": "167",
        "type": "t_address"
      },
      {
        "astId": 2986,
        "contract": "contracts/LPStacking.sol:LPStaking",
        "label": "mainFactory",
        "offset": 0,
        "slot": "168",
        "type": "t_address"
      },
      {
        "astId": 2988,
        "contract": "contracts/LPStacking.sol:LPStaking",
        "label": "DAI",
        "offset": 0,
        "slot": "169",
        "type": "t_address"
      },
      {
        "astId": 2990,
        "contract": "contracts/LPStacking.sol:LPStaking",
        "label": "ETH",
        "offset": 0,
        "slot": "170",
        "type": "t_address"
      }
    ],
    "types": {
      "t_address": {
        "encoding": "inplace",
        "label": "address",
        "numberOfBytes": "20"
      },
      "t_array(t_uint256)49_storage": {
        "base": "t_uint256",
        "encoding": "inplace",
        "label": "uint256[49]",
        "numberOfBytes": "1568"
      },
      "t_array(t_uint256)50_storage": {
        "base": "t_uint256",
        "encoding": "inplace",
        "label": "uint256[50]",
        "numberOfBytes": "1600"
      },
      "t_bool": {
        "encoding": "inplace",
        "label": "bool",
        "numberOfBytes": "1"
      },
      "t_bytes32": {
        "encoding": "inplace",
        "label": "bytes32",
        "numberOfBytes": "32"
      },
      "t_contract(IERC20)1813": {
        "encoding": "inplace",
        "label": "contract IERC20",
        "numberOfBytes": "20"
      },
      "t_contract(IERC20Upgradeable)1166": {
        "encoding": "inplace",
        "label": "contract IERC20Upgradeable",
        "numberOfBytes": "20"
      },
      "t_contract(IUniswapV2ERC20)2243": {
        "encoding": "inplace",
        "label": "contract IUniswapV2ERC20",
        "numberOfBytes": "20"
      },
      "t_contract(IUniswapV2Factory)2306": {
        "encoding": "inplace",
        "label": "contract IUniswapV2Factory",
        "numberOfBytes": "20"
      },
      "t_contract(IUniswapV2Router02)2944": {
        "encoding": "inplace",
        "label": "contract IUniswapV2Router02",
        "numberOfBytes": "20"
      },
      "t_mapping(t_address,t_bool)": {
        "encoding": "mapping",
        "key": "t_address",
        "label": "mapping(address => bool)",
        "numberOfBytes": "32",
        "value": "t_bool"
      },
      "t_mapping(t_address,t_uint256)": {
        "encoding": "mapping",
        "key": "t_address",
        "label": "mapping(address => uint256)",
        "numberOfBytes": "32",
        "value": "t_uint256"
      },
      "t_mapping(t_bytes32,t_struct(RoleData)34_storage)": {
        "encoding": "mapping",
        "key": "t_bytes32",
        "label": "mapping(bytes32 => struct AccessControlUpgradeable.RoleData)",
        "numberOfBytes": "32",
        "value": "t_struct(RoleData)34_storage"
      },
      "t_struct(RoleData)34_storage": {
        "encoding": "inplace",
        "label": "struct AccessControlUpgradeable.RoleData",
        "members": [
          {
            "astId": 31,
            "contract": "contracts/LPStacking.sol:LPStaking",
            "label": "members",
            "offset": 0,
            "slot": "0",
            "type": "t_mapping(t_address,t_bool)"
          },
          {
            "astId": 33,
            "contract": "contracts/LPStacking.sol:LPStaking",
            "label": "adminRole",
            "offset": 0,
            "slot": "1",
            "type": "t_bytes32"
          }
        ],
        "numberOfBytes": "64"
      },
      "t_uint256": {
        "encoding": "inplace",
        "label": "uint256",
        "numberOfBytes": "32"
      }
    }
  }
}